:020000040800F2
:10000000D8100020A52400082D0900082F09000899
:1000100033090008370900083B0900080000000008
:100020000000000000000000000000003F09000880
:1000300041090008000000004309000845090008C4
:10004000BF240008BF240008BF240008BF24000804
:10005000BF240008BF240008BF240008BF240008F4
:10006000BF240008BF240008BF240008BF240008E4
:1000700071240008BF2400084D240008BF24000894
:10008000BF240008BF240008BF240008BF240008C4
:10009000BF240008BF240008BF240008BF240008B4
:1000A000BF240008BF240008BF240008291A000844
:1000B000BF240008BF240008BB180008BF240008A4
:1000C000BF2400081D09000825090008BF240008F6
:1000D000BF24000833230008BF240008DD230008E4
:1000E000BF240008BF240008BF240008BF24000864
:1000F000BF240008BF240008BF240008BF24000854
:10010000BF240008BF240008BF240008BF24000843
:10011000BF240008BF240008BF240008BF24000833
:10012000BF240008BF240008BF240008BF24000823
:1001300000F002F800F03EF80AA090E8000C8244BB
:100140008344AAF10107DA4501D100F033F8AFF298
:10015000090EBAE80F0013F0010F18BFFB1A43F0A5
:1001600001031847048E0000248E0000103A24BFBB
:1001700078C878C1FAD8520724BF30C830C144BF0C
:1001800004680C607047000000230024002500264E
:10019000103A28BF78C1FBD8520728BF30C148BFEA
:1001A0000B6070471FB59DE8030004F095FE1FBD6E
:1001B00010B510BD04F0FCFE1146FFF7F3FF00F090
:1001C00015F804F01AFF03B4FFF7F2FF03BC04F0C4
:1001D0004BFF00007047FE48006808B9012000E0AE
:1001E0000020FB490860704770477047A2B001F0DB
:1001F0005BFE01F053FE01F0D9FA642001F091FE9C
:100200004FF4E13001F09BFF47214CF2503001F0F8
:100210000CFB47214CF2503001F0E0FAED48EE497A
:1002200006F008FC00224FF08043CDE90A0106F0F9
:1002300079FFCDE90E01E748E84906F0FBFB002213
:100240004FF08043CDE90A0106F06CFFCDE90C01C7
:10025000DDE90E2306F00EFDCDE9100105F016FED6
:100260000022DF4BCDE914011046DE4905F080FE87
:100270000022DD4BCDE90E0107F07AF9CDE910013E
:1002800005F004FECDE91201DDE9142306F0F2FCCD
:100290000022D64BCDE9160106F044FFCDE9180146
:1002A00005F08AFBCDE91A0106F078FE401C20908B
:1002B0002098C0001B9004F073FD1E90C548C649ED
:1002C00006F0B8FB00224FF08043CDE90A0106F0AA
:1002D00029FFCDE90E01BF48C04906F0ABFB002263
:1002E0004FF08043CDE90A0106F01CFFCDE90C0177
:1002F000DDE90E2306F0BEFCCDE9100105F0C6FDD8
:100300000022B74BCDE914011046B64905F030FE86
:100310000022B54BCDE90E0107F02AF9CDE9100115
:1003200005F0B4FDCDE91201DDE9142306F0A2FCCD
:100330000022AE4BCDE9160106F0F4FECDE918011E
:1003400005F03AFBCDE91A0106F028FE401C1F908B
:100350001F98C0001B9004F023FD1D909D489E49EE
:1003600006F068FB00224FF08043CDE9040106F05F
:10037000D9FECDE908019748984906F05BFB0022B9
:100380004FF08043CDE9040106F0CCFECDE9060133
:10039000DDE9082306F06EFCCDE90A0105F076FDE3
:1003A00000228F4BCDE90E0110468E4905F0E0FD8D
:1003B00000228D4BCDE9080107F0DAF8CDE90A01FA
:1003C00005F064FDCDE90C01DDE90E2306F052FCD9
:1003D0000022864BCDE9100106F0A4FECDE9120102
:1003E00005F0EAFACDE9140106F0D8FD1B90794832
:1003F0007A4906F01FFB00224FF08043CDE914013B
:1004000006F090FECDE918017248734906F012FB20
:1004100000224FF08043CDE9140106F083FECDE9C0
:100420001601DDE91D021B99CDE90212049000219D
:100430006F48CDE9001016A80FC800F0E1FE65482E
:10044000654906F0F7FA00224FF08043CDE9080134
:1004500006F068FECDE90C015E48604906F0EAFA54
:1004600000224FF08043CDE9080106F05BFECDE9A4
:100470000A01DDE90C2306F0FDFBCDE90E0105F0D4
:1004800005FD0022564BCDE912011046554905F0F5
:100490006FFD0022544BCDE90C0107F069F8CDE95E
:1004A0000E0105F0F3FCCDE91001DDE9122306F0A1
:1004B000E1FB00224D4BCDE9140106F033FECDE9FE
:1004C000160105F079FACDE9180106F067FD401C28
:1004D000C0001B9004F064FC1C903E483E4906F0AE
:1004E000A9FA00224FF08043CDE9080106F01AFE78
:1004F000CDE90C013748394906F09CFA00224FF04B
:100500008043CDE9080106F00DFECDE90A01DDE9E1
:100510000C2306F0AFFBCDE90E0105F0B7FC00227D
:100520002F4BCDE9120110462E4905F021FD002286
:100530002D4BCDE90C0107F01BF8CDE90E0105F0BC
:10054000A5FCCDE91001DDE9122306F093FB0022A2
:10055000264BCDE9140106F0E5FDCDE9160105F0C5
:100560002BFACDE9180106F019FD401CC000014628
:100570001B901C9804F06AFC9DE100BF4FF47A7058
:1005800001F045F90028F9D11A480078401C1949B2
:100590000870084600780A287EDB0020087016489C
:1005A000006806F06FFD154A154BCDE9100106F005
:1005B000B9FD0022134BCDE9120106F05BFBCDE93A
:1005C000140106F0C1F9CDE9160106F065FA1BE049
:1005D0009001214263B37C8DBF15A03FBF15D03F72
:1005E00000001840000024400000F03F0000E03F01
:1005F00000004E400C000020100000204AD8124D90
:10060000FB21494000408F401B90AB48006806F03A
:1006100039FDAA4AAA4BCDE9100106F083FD00225C
:10062000A84BCDE9120106F025FBCDE9140106F037
:100630008BF9CDE9160106F02FFA1A909E48006852
:1006400006F020FDA04AA14BCDE9100106F06AFD9D
:1006500000229C4BCDE9120106F00CFBCDE9140100
:1006600006F072F9CDE9160106F016FA19909248D3
:10067000006806F007FD964A964BCDE9100106F09A
:1006800051FD00228F4BCDE9120106F0F3FACDE9BE
:10069000140106F059F900E0E6E0CDE9160106F094
:1006A000FBF91890DDE91A1007F078F817901999FE
:1006B00007F074F8884908608848006807F042F835
:1006C000874A884BCDE9100106F02CFDCDE91401D5
:1006D0008148006807F036F8834A844BCDE9100161
:1006E00006F020FDCDE91201DDE9142306F006FA3B
:1006F000CDE9160106F0D0F978490860764800681F
:1007000007F020F8CDE9140179487A4906F092F90A
:1007100000224FF08043CDE9000106F003FDCDE952
:1007200004017348744906F085F900224FF08043B4
:10073000CDE9000106F0F6FCCDE90201DDE9042374
:1007400006F098FACDE9060105F0A0FB00226B4BFC
:10075000CDE90A0110466A4905F00AFC0022694BFE
:10076000CDE9040106F004FFCDE9060105F08EFB9A
:10077000CDE90801DDE90A2306F07CFA0022624B8C
:10078000CDE90C0106F0CEFCCDE90E0105F014F91F
:10079000CDE9100106F002FC401C13905448554965
:1007A00006F048F900224FF08043CDE9000106F041
:1007B000B9FCCDE904014E484F4906F03BF900224F
:1007C0004FF08043CDE9000106F0ACFCCDE9020119
:1007D000DDE9042306F04EFACDE9060105F056FBEB
:1007E0000022464BCDE90A011046454905F0C0FB01
:1007F0000022444BCDE9040106F0BAFECDE9060122
:1008000005F044FBCDE90801DDE90A2306F032FAE0
:1008100000223D4BCDE90C0106F084FCCDE90E0130
:1008200005F0CAF8CDE9100106F0B8FB401C1290A3
:100830001C980290DDE91401CDE90001DDE91213F5
:10084000DDE91D2000F05CFCCDE9160106F024F97D
:100850002E49086000F0E8FA17480068401C164965
:100860000860FFF7C2FC00BF29480078401C2849F7
:10087000087008460078142803DB00200870FFF792
:10088000B3FC24480078401C2249087008460078D0
:10089000642803DB00200870FFF79DFC1E480078E9
:1008A000401C1D49087008460078642803DB0020BE
:1008B0000870FFF78FFC60E6100000205C8E572068
:1008C0007A6A5F4000408F40FAB836548CA2834069
:1008D0007715527ED2739D40000000200800002052
:1008E000AE47E17A14AEEF3F7B14AE47E17A843F26
:1008F00063B37C8DBF15A03FBF15D03F00001840EB
:10090000000024400000F03F0000E03F0400002011
:100910000D0000200E0000200F00002010B504F094
:100920003FF810BD10B504F012FA10BD704700BFBB
:10093000FEE700BFFEE700BFFEE700BFFEE770472F
:1009400070477047704700000CB500200190009080
:100950006C48006840F480306A49086000BF69480C
:10096000006800F4003000900198401C019000984D
:1009700018B90198B0F5A06FF1D16248006800F491
:10098000003010B10120009001E00020009000989C
:10099000012843D15C48006840F010005A490860C3
:1009A0000846006820F0030008600846006840F030
:1009B0000200086053484068524948600846406851
:1009C00048600846406840F48060486008464068D7
:1009D00020F47C1048600846406840F4E810486005
:1009E0000846006840F08070086000BF4548006815
:1009F00000F000700028F9D04248406820F0030061
:100A0000404948600846406840F00200486000BF26
:100A10003C48406800F00C000828F9D10CBD10B526
:100A2000FFF792FF10BD10B53648006840F0010096
:100A300034490860084640683449084031494860F4
:100A400008460068324908402E4908600846006898
:100A500020F4802008600846406820F4FE004860CA
:100A60004FF41F008860FFF7DAFF4FF0006029495C
:100A7000086010BD10B5002100200022214B5B68EA
:100A800003F00C0121B1042906D0082928D107E080
:100A9000214B224C236027E01F4B204C236023E096
:100AA000184B5B6803F47010164B5B6803F48032DC
:100AB000022303EB904022B9194B4343174C2360A8
:100AC0000DE0104B5B6803F4003323B1144B434338
:100AD000124C236003E0104B4343104C236003E0AF
:100AE0000D4B0E4C236000BF00BF064B5B68C3F389
:100AF00003130C4CE15C094B1B68CB40074C236093
:100B000010BD000000100240002002400000FFF86D
:100B1000FFFFF6FE08ED00E000127A00140000204E
:100B200000093D001800002070B506460D46144629
:100B30002146304607F0CAF801D2264605E029468C
:100B4000304606F0C3FF00D22E46304670BD30B5A9
:100B500003460C4600210020214604E05D5C05446C
:100B6000E8B24D1CE9B29142F8DB30BD10B5024647
:100B70000B460020114604E04C1E1C5D60404C1CDE
:100B8000E1B20829F8DB10BD2DE9FC4781468A4611
:100B900014461D4600210F468846207849F820A0BB
:100BA0002078401CC0B22070A84201DB00202070D9
:100BB00000260DE059F8260006F0C4FD3A464346EB
:100BC000CDE9000105F09AFF07468846701CC6B2C1
:100BD000AE42EFDB284606F055FA02460B46CDE959
:100BE00000013846414606F045F807468846384633
:100BF000414605F051FFBDE8FC872DE9F04105466F
:100C00002849284606F096FF0746274906F092FF36
:100C1000064606F0F3FE04B202E0A4F5616004B2F9
:100C2000B4F5616FF9DC02E004F5616004B2002CF8
:100C3000FADBB4F5617F06DA002C04DB1B4850F8C0
:100C40002400BDE8F081B4F5E16F09DAB4F5617F05
:100C500006DBC4F5E16004B2144850F82400F0E764
:100C600040F68C2084420BDAB4F5E16F08DBA4F582
:100C7000E16004B20D4850F8240080F00040E0E745
:100C8000B4F5616F0CDA40F68C20844208DBC4F5C1
:100C9000616004B2054850F8240080F00040D0E7BD
:100CA0000020CEE7A34C6542000020410C7F0008E5
:100CB00038B500240025AA222146641C9D484254D0
:100CC000BB222146641C425401222146641C42542A
:100CD00000222146641C4254601EC5B2964800683A
:100CE00000909DF800202146641C924842549DF8D3
:100CF00001202146641C42549DF802202146641CB8
:100D000042549DF803202046611CCCB289490A5404
:100D10008A48006800909DF800202046611CCCB2F3
:100D200084490A549DF801202046611CCCB28149B7
:100D30000A549DF802202046611CCCB27D490A5419
:100D40009DF803202046611CCCB27A490A547C48A5
:100D5000406900909DF800202046611CCCB2754986
:100D60000A549DF801202046611CCCB271490A54F6
:100D70009DF802202046611CCCB26E490A549DF8B1
:100D800003202046611CCCB26A490A546C48806931
:100D900000909DF800202046611CCCB265490A54A1
:100DA0009DF801202046611CCCB262490A549DF88E
:100DB00002202046611CCCB25E490A549DF80320F3
:100DC0002046611CCCB25B490A545E480068009022
:100DD0009DF800202046611CCCB256490A549DF86B
:100DE00001202046611CCCB252490A549DF80220D1
:100DF0002046611CCCB24F490A549DF8032020467E
:100E0000611CCCB24B490A54601EC2B2042149484D
:100E1000FFF79DFE47490855201F4855611CC8B281
:100E200001F059FA204638BD38B500240025AA2221
:100E30002146641C3F484254BB222146641C425454
:100E40004148006800909DF800202146641C394804
:100E500042549DF801202146641C42549DF8022012
:100E60002146641C42549DF803202146641C4254D0
:100E70003648006800909DF800202146641C2D48EB
:100E800042549DF801202046611CCCB229490A54E5
:100E90009DF802202046611CCCB226490A549DF8D8
:100EA00003202046611CCCB222490A54284800681D
:100EB00000909DF800202046611CCCB21D490A54C8
:100EC0009DF801202046611CCCB21A490A549DF8B5
:100ED00002202046611CCCB216490A549DF803201A
:100EE0002046611CCCB213490A54002000909DF8A2
:100EF00000202046611CCCB20E490A549DF8012006
:100F00002046611CCCB20B490A549DF802202046B1
:100F1000611CCCB207490A549DF803202046611C8D
:100F2000CCB204490A54611CC8B201F0D4F920467D
:100F300038BD0000740200202C000020300000208A
:100F4000D40000207C0000200000002008000020C9
:100F5000040000202DE9FF5FDDE910432246DDE9B2
:100F60000261304606F0DEF880468946DDE90E4330
:100F70002246DDE90061304606F0D4F8824642465A
:100F80004B4606F0F5FA129A03C2DDE910432246F9
:100F9000DDE90061304606F0C5F880468946DDE9A6
:100FA0000E432246DDE90261304606F0BBF8824678
:100FB00042464B4605F0A2FD139A03C2012004B03D
:100FC000BDE8F09F2DE9FF5F84B0DDE914452646BA
:100FD00022462B463046294606F0A4F8804689462C
:100FE000DDE91245264622462B463046294606F0C4
:100FF00099F8824642464B4605F080FDCDE9020154
:10100000DDE914432246DDE90661304606F08AF840
:1010100080468946DDE912432246DDE90461304617
:1010200006F080F8824642464B4605F067FDCDE962
:101030000001DDE9022305F01DFE169A03C2DDE979
:101040001445264622462B463046294606F06AF8C5
:1010500080468946DDE91245264622462B46304623
:10106000294606F05FF8824642464B4605F046FDAB
:10107000CDE90201DDE912432246DDE90661304691
:1010800006F050F880468946DDE914432246DDE942
:101090000461304606F046F8824642464B4606F06A
:1010A00067FACDE90001DDE9022305F0E3FD179AB7
:1010B00003C2012008B0BDE8F09F2DE9FF5F82B0B8
:1010C000DDE90445264622462B463046294606F0F1
:1010D00029F880468946DDE90245264622462B4608
:1010E0003046294606F01EF8824642464B4605F039
:1010F00005FDCDE9000105F077FC06B0BDE8F09FE5
:101100002DE9FF4F87B0834689469A46169D0021F8
:101110000E460F468846D14501DBC84600E0D04662
:10112000DBE90001CDE90201DDE9142305F0FAFF56
:1011300032463B46CDE9040105F0E0FC06460F4689
:1011400001241AE0A8F1010005EBC000A0EBC400E7
:1011500003C8CDE902010BEBC40003C8CDE90001CF
:10116000DDE9022305F0DEFF32463B46CDE904010E
:1011700006F00CF906460F46641C4C45E2DB05EB15
:10118000C80242F8086D576000210E460F46002441
:101190001BE0A8F1010005EBC000A0EBC40103C9EE
:1011A000CDE90201099800EBC40103C9CDE90001B2
:1011B000DDE9022305F0B6FF32463B46CDE90401E6
:1011C00005F09CFC06460F46641C5445E1DB0024F8
:1011D00007E005EBC401D1E9020105EBC40203C23B
:1011E000641CA8F10100A042F3DC002105EBC80259
:1011F00042F8081D5160304639460BB0BDE8F08F0B
:101200002DE9FF5FA0B0DDF8C090CDF87C90DDF84F
:101210007C904FEA091003F0C3FD824600BF002016
:10122000139000248346484609EBD0714910A9EB7E
:10123000410119B90027DFF8FC8301E00027B84617
:1012400000201390B4E0484605F005FF02460B4627
:10125000CDE90001F848F94905F00CFDCDE904019C
:10126000139805F0F8FE3A464346CDE9000105F033
:1012700045FCCDE90201DDE9042305F053FFCDE98A
:10128000060104F007FC0022EA4BCDE90A01DDE982
:10129000200105F047FFCDE90801DDE90A2305F04B
:1012A00041FFCDE91801484605F0D5FE02460B4640
:1012B000CDE90001E048E14905F0DCFCCDE904019D
:1012C000139805F0C8FE3A464346CDE9000105F003
:1012D00015FCCDE90201DDE9042305F023FFCDE98A
:1012E000060105F031FB0022D24BCDE90A01DDE910
:1012F000200105F017FFCDE90801DDE90A2305F01B
:1013000011FFCDE91A01DDE9180102460B46CDE9CE
:101310000A010020CA4906F02BF9CDE91401DDE9E4
:101320001A0181F00041CDE91601DDE91801002222
:10133000C34BCDE90A0105F0E1FBCDE91801DDE978
:101340001801CDE918010AEB041008300AEB04116A
:10135000CDE9041014A80FC88DE80F0018A80FC815
:10136000FFF730FE0AEB041C9CE80F00FFF7A5FE18
:101370000022B34BCDE90A0105F098FE15D20AEB25
:10138000041103C981F000410AEB041203C20AEB05
:101390000411D1E9020181F000410AEB0412C2E913
:1013A0000201641C4C4500D109E01398401C1390C5
:1013B0004FEA4900401E13998842BFF644AF00BF70
:1013C00009F101001E901E99080103F0E9FC064690
:1013D00009F101001D901D99080103F0E1FC05468B
:1013E000DAE90001C6E90001DAE90201C6E9020111
:1013F00000219348C6E90410B161F1614FF0000B80
:10140000ABE0002482E0CCB905EB0410083005EB1A
:101410000411CDE904100BF101000AEB0013D3E92C
:101420000012D3E9020306EB041CCDE90203CDE967
:1014300000129CE80F00FFF78DFD66E00BF1020043
:10144000A04227D1601E06EB001003C8CDE90A01B7
:1014500005EB041003C8CDE90801DDE90A2305F016
:101460004DFB05EB041203C2601E06EB0010C168C1
:101470008068CDE90A0105EB0410C1688068CDE9F8
:101480000801DDE90A2305F039FB05EB0412C2E986
:1014900002013AE005EB0410083005EB0411CDE938
:1014A00004100BF101000AEB00130FCB06EB041C38
:1014B0008DE80F009CE80F00FFF74CFD601E06EB67
:1014C000001003C8CDE90A0105EB041103C9CDE9F9
:1014D0000801DDE90A2305F011FB05EB041203C244
:1014E000601E06EB0010C1688068CDE90A0105EBBB
:1014F0000411D1E90201CDE90801DDE90A2305F073
:10150000FDFA05EB0412C2E90201641C0BF10200B2
:1015100084427FF778AF00241BE005EB0410D0E98C
:10152000001006EB0412C2E9001005EB0410D0E92C
:10153000021006EB0412C2E9021006EB0410D0E917
:101540000020319901EBC901A1EBC401C1E90020E0
:10155000641C4C45E1DD0BF1010BA9F1010058457C
:101560003FF74FAF00201090119000240CE031980D
:1015700000EBC40003C8CDE90A01DDE9102305F042
:10158000BDFACDE91001641C4C45F0DD484605F07C
:1015900062FD02460B46CDE9080100204FF0804174
:1015A00004F0E6FC02460B46CDE90A01DDE9100134
:1015B00005F060FBCDE91001002412E0002006EBED
:1015C00004121060506006EB04129060D06000219D
:1015D00005EB04121160516005EB04129160D160BB
:1015E000641C4C45EADD00211548CDE90C100E9134
:1015F0000F91C6E90010B160F160C6E90410B16155
:10160000F1614FF0000BA7E0002480E0D4B905EBB6
:101610000410083005EB0411CDE904100CA80FC824
:1016200006EB041C8DE80F009CE80F00FFF792FC0E
:101630006CE000000000E03F4AD8124DFB21094059
:101640000000F03F0BF10200A04227D1601E06EB24
:10165000001003C8CDE90A0105EB041003C8CDE969
:101660000801DDE90A2305F049FA05EB041203C27B
:10167000601E06EB0010C1688068CDE90A0105EB29
:101680000410C1688068CDE90801DDE90A2305F08E
:1016900035FA05EB0412C2E9020137E005EB04104C
:1016A000083005EB0411CDE904100CA80FC806EBB7
:1016B000041C8DE80F009CE80F00FFF74BFC601E38
:1016C00006EB001003C8CDE90A0105EB041103C9BC
:1016D000CDE90801DDE90A2305F010FA05EB041253
:1016E00003C2601E06EB0010C1688068CDE90A01E4
:1016F00005EB0410C1688068CDE90801DDE90A2323
:1017000005F0FCF905EB0412C2E90201641C0BF1BF
:10171000020084427FF77AAF002419E005EB041041
:10172000D0E9001006EB0412C2E9001005EB04102A
:10173000D0E9021006EB0412C2E9021006EB041015
:1017400006C8329800EBC900A0EBC40006C0641CB8
:101750004C45E3DD0BF1010BA9F1010058453FF7C2
:1017600053AF002412E0329800EBC900A0EBC40094
:1017700003C8CDE90A01DDE9102305F0D3FC329A54
:1017800002EBC902A2EBC40203C2641C4C45EADDB1
:10179000284603F034FB304603F031FB504603F09B
:1017A0002EFB012024B0BDE8F09F000008B5012108
:1017B000042001F025FC1020ADF800008DF8030096
:1017C00003208DF802006946034801F05DF91021FD
:1017D000014801F006FA08BD000801403EB5054683
:1017E0000C460121022001F018FCADF80450ADF8C0
:1017F00000400020ADF80600ADF802006946374809
:1018000002F062F80121354802F0BAFB3EBD014604
:10181000324824300088884201DA012070470020D5
:101820002E4A2432108000BFF8E77FB505460C46EB
:101830000121042001F0F1FB1E208DF800000020A2
:101840008DF801008DF8020001208DF80300684634
:1018500001F051F8ADF80850ADF804400020ADF8A3
:101860000A00ADF8060001A91D4802F02DF801227A
:1018700011461B4802F09FFB0121194802F080FB32
:101880007FBD1748243002881648006840F635416D
:10189000484302EB001000217047114824300188B2
:1018A0004FF47A7091FBF0F00E4A126802EBC2031B
:1018B00003EB021200EB4200704709481030008829
:1018C00000F0010040B107480068401C054908606D
:1018D00000200349103108807047000000040040D8
:1018E000000800405400002030B589B005460C4681
:1018F0000121C80201F084FB0121042001F080FBDA
:101900004FF48070ADF8140003208DF816002820E5
:101910008DF8170005A9FE4801F0B6F8ADF80C5097
:10192000ADF808400020ADF80E00ADF80A0002A99D
:10193000F84801F0C9FF0020ADF81800ADF81A0012
:101940000120ADF81C000020ADF81E00ADF820000D
:1019500006A9F04802F04BFA1B208DF80400012084
:101960008DF8050000208DF8060001208DF8070095
:1019700001A800F0C0FF01220221E64802F01BFB93
:101980000121E44802F0FCFA09B030BD30B589B05D
:1019900004460D460121052001F032FB01210846D5
:1019A00001F03BFB0E20ADF8200018208DF823003D
:1019B00002208DF8220008A9D54801F065F8ADF89D
:1019C00004500020ADF80600ADF80840ADF80A005C
:1019D00001A94FF0804001F077FF6020ADF81000C2
:1019E0000120ADF812000020ADF81600ADF8180087
:1019F0004FF48070ADF81C0004A9800501F0E3FFEE
:101A000004A94FF0804002F02BF804A94FF0804069
:101A100002F071F80121880702F0B2FA012188076B
:101A200002F0BAFA09B030BD10B5BB48007800F03A
:101A30008000002861D10221B64802F06AFD00282A
:101A40005BD00221B34802F075FDB348007800F086
:101A5000400038B3AF4802F03DFDB0490880084669
:101A60000088AF49098888420ADAAC480088AC4946
:101A70000988401A4FF6FF710844AA49086006E039
:101A8000A6480088A6490988401AA649086001208E
:101A9000A54908700020A049087000219D4802F067
:101AA00021FC2AE09B4802F015FD9D4908809A48D8
:101AB000007840F0400098490870994800889B4998
:101AC000098888420ADA9648008898490988401AA5
:101AD0004FF6FF7108449649086006E09048008878
:101AE00092490988401A924908608D4800888F49B8
:101AF00008800221874802F0F5FB10BD2DE9F14F67
:101B000082B0029805F01EFE824604F01DFF80465A
:101B10000022884B05F006FB06460022864B04F0A7
:101B2000EDFF044605F06AFA4FF0804108870298FD
:101B300005F008FE8046814A814B04F0DFFF06462F
:101B400004F002FF044600227A4B05F0EBFA8246CD
:101B50000022794B04F0D2FFCDE9000105F04EFAE6
:101B60004FF080418887029805F0ECFD734A754B71
:101B7000CDE9000104F0C2FF804604F0E5FE064610
:101B800000226C4B05F0CEFA044600226A4B04F0AA
:101B9000B5FF824605F032FA6B490880BDE8FE8F3A
:101BA0002DE9F04F89B0694801686948006806F07E
:101BB000BFF805464FF0814105F05EFE04464FF048
:101BC000804105F059FE089056480068614909882F
:101BD000401A1DD55F48008805F064FF06465B4843
:101BE00001685B48006806F0A3F807464D480068A6
:101BF00005F040FF8046394605F0D0FD05463146E8
:101C000006F096F8044605F0F9FE0FFA80FA06E0B1
:101C1000444800884F490988401A0FFA80FA4E4814
:101C2000B0F9000040F2B631884203DB08464A4969
:101C3000088009E04848B0F900004849884203DCC0
:101C40004FF64A40444908804548007800285DD056
:101C50004148B0F9000005F00DFF0790CAF10000FF
:101C600005F008FF0390089905F006FE4FF07C513F
:101C7000049005F093FD059005F064FD0646394A91
:101C8000394B05F04FFA044604F006FF8346FEF791
:101C9000B4FF0690079905F04DFF8146334905F0E2
:101CA0007DFD804605F0C6FE4FF0804108872A483A
:101CB000B0F9000005F0DEFE0590CAF1000005F065
:101CC000D9FE0190089905F0D7FD83464FF07C516D
:101CD00005F064FD029005F035FD8046214A224B57
:101CE00005F020FA0646154A154B04F007FF044696
:101CF00004F0D2FE0390FEF780FF0490059905F0F2
:101D000019FF1A49069005F049FD31E069E000002D
:101D100000080140002C0140580000205E00002017
:101D20005A00002064000020680000205C000020B1
:101D30006000002000C0824000408F4064732D3856
:101D400052C1004052C11040400000406C000020D1
:101D50007000002076000020740000204AFCFFFF85
:101D600080000020182D4454FB21094000007A44D3
:101D7000079005F05FFE4FF0804188873B48B0F93F
:101D8000000005F077FE0690CAF1000005F072FE33
:101D90000190089905F070FD4FF07C51029005F01C
:101DA000FDFC039005F0CEFC0646314A314B05F0B0
:101DB000B9F98046304A314B04F0A0FE044604F0E5
:101DC0006BFE0490FEF719FF0590069905F0B2FE30
:101DD0002B49079005F0E2FC834605F02BFE2949CC
:101DE000088009B0BDE8F08F2DE9F84F264800685B
:101DF00026490988401A16D52548016825480068F3
:101E000005F096FF064620490968204A1288881A7C
:101E100005F030FE0746314605F0C0FC054605F0EA
:101E2000EDFD04B205E01848008818490988401AF9
:101E300004B2174801681748006805F079FF834627
:101E4000204605F017FE5946009005F015FD824624
:101E500005F078FC074600220F4B05F063F90546B4
:101E600004F01AFE81464846BDE8F88F7400002051
:101E7000182D4454FB21094064732D3852C1104081
:101E800000007A44400000406400002078000020F8
:101E90006C000020700000200080764010B54FF4E8
:101EA000A06000F023FD10BD10B56FF0040000F03D
:101EB0006CFD2E4800682E49B0FBF1F02D490870EA
:101EC0000846007800EB4001C1EBC0104FF6FF71EF
:101ED00001EAC0002849088010BD0146254A127851
:101EE0004A434FF0E0235A6100229A611A46126970
:101EF00042F001021A6100BF4FF0E022106900F0C9
:101F000001021AB100F48032002AF5D04FF0E0222D
:101F1000126922F001024FF0E0231A6100229A6157
:101F200070470146144A12884A434FF0E0235A6131
:101F300000229A611A46126942F001021A6100BF3A
:101F40004FF0E022106900F001021AB100F4803273
:101F5000002AF5D04FF0E022126922F001024FF082
:101F6000E0231A6100229A617047000014000020EB
:101F700000127A00860000208800002000B58BB097
:101F80000121084601F02FF8FE4801F09DF8FE48B7
:101F90000090FE4801901020029040010390002024
:101FA0000490802005900020069007902020089043
:101FB000002009900A906946F24801F027F90122B1
:101FC0000221F04801F059F901220821ED4801F001
:101FD00054F901228021EC48001F00F083FB00210E
:101FE000E84801F03EF9E748143001F06DF8E648A2
:101FF0000090E7480190002002904FF40070039099
:10200000002004908020059000200690079020205A
:1020100008904FF44050099000200A906946D94832
:10202000143001F0F3F801220221D648143001F0F7
:1020300024F901220821D348143001F01EF90122AD
:102040004021D148001F00F04DFB0121CD48143044
:1020500001F007F90BB000BD00B58BB001210846B7
:1020600000F0C1FFC748283801F02EF8C948009099
:10207000C948019010200290400103900020049074
:1020800080200590002006900790202008900020D6
:1020900009900A906946BB48283801F0B7F8012238
:1020A0000221B848283801F0E8F801220821B54893
:1020B000283801F0E2F801228021B648001F00F024
:1020C00011FB0021AF48283801F0CBF8AD48143897
:1020D00000F0FAFFAF480090B04801900020029055
:1020E0004FF40070039000200490802005900020A1
:1020F00006900790202008904FF44050099000204F
:102100000A9069469F48143801F080F801220221A4
:102110009C48143801F0B1F801220821994814387C
:1021200001F0ABF8012240219A48001F00F0DAFAD2
:1021300001219448143801F094F80BB000BD10B59B
:1021400086B00446012144F2040000F059FF4FF428
:102150000070ADF8140003208DF8160018208DF8DB
:10216000170005A98E4800F08FFC4FF48060ADF891
:10217000140004208DF8170005A9894800F084FC9C
:10218000FFF7FCFE25208DF8000001208DF80100EE
:102190008DF802008DF80300684600F0ACFB0E20BD
:1021A0008DF8000001208DF8010000208DF802005C
:1021B00001208DF80300684600F09DFB019400208B
:1021C000ADF80800ADF80A00ADF80C00ADF810004D
:1021D0000C20ADF80E0001A96B48001F00F0C5F9F6
:1021E000012240F224416848001F00F056FA012104
:1021F0006548001F00F045FA40216348001F00F0C9
:1022000028FB06B010BD10B586B004460121082099
:1022100000F0F6FE0121880400F0FFFE4FF480601C
:10222000ADF8140003208DF8160018208DF8170063
:1022300005A95C4800F028FC4FF40060ADF81400DC
:1022400004208DF8170005A9564800F01DFCFFF783
:1022500003FF27208DF8000002208DF801000120E7
:102260008DF802008DF80300684600F044FB0C2056
:102270008DF8000002208DF8010000208DF802008A
:1022800001208DF80300684600F035FB0194002022
:10229000ADF80800ADF80A00ADF80C00ADF810007C
:1022A0000C20ADF80E0001A93A48001F00F05DF9BE
:1022B000012240F224413748001F00F0EEF90121CD
:1022C0003448001F00F0DDF940213248001F00F0C3
:1022D000C0FA06B010BD10B5044600BF3248007801
:1022E0000028FBD00021274800F0BBFF25484438D8
:1022F000846400202C4908700121224800F0B1FFBD
:1023000010BD10B5044600BF284800780028FBD057
:1023100000211C48283800F0A4FF1A484438046201
:1023200000202249087001211648283800F099FF42
:1023300010BD70B540F224411348001F00F092FA1E
:10234000F0B100210F48143000F08BFF0D4814301D
:1023500000F09EFFC0F5007084B24FF4702000F0D2
:10236000AFFF4FF4007007494439C86501210548A3
:10237000143000F076FF0448001F0588001D058812
:1023800016E00000440002400438014074020020BE
:1023900074040020044800407406002074080020E3
:1023A00000080140000C01408A0000208B00002042
:1023B0004FF45A71364800F055FA20B14FF45A7173
:1023C000334800F079FA40F22661314800F074FA9F
:1023D00040F224412E4800F06FFA70BD70B540F213
:1023E00024412C4800F03EFAD0B100212A4800F0E8
:1023F00038FF294800F04CFFC0F5007084B24FF45C
:10240000706000F05DFF4FF400702349303948637D
:102410000121214800F025FF1E480588001D058880
:102420004FF45A711B4800F01DFA20B14FF45A7155
:10243000184800F041FA40F22661164800F03CFAD4
:1024400040F22441134800F037FA70BD10B5002166
:102450001148143000F005FF4FF4005000F04FFF1A
:102460004FF4004000F04BFF01200C49087010BDF4
:1024700010B500210848143800F0F3FE202000F0C9
:102480003EFF802000F03BFF01200549087010BD91
:102490000038014000480040300002408A0000201F
:1024A0008B0000200948804709480047FEE7FEE707
:1024B000FEE7FEE7FEE7FEE7FEE7FEE7FEE7FEE7F4
:1024C00004480549054A064B70470000270A0008E2
:1024D00031010008D80A0020D8100020D80C0020B4
:1024E000D80C002010B50446FB48844209D10121D4
:1024F000880300F09FFD00214FF4804000F09AFD1A
:1025000032E0F648844209D10121480400F09FFDE1
:1025100000214FF4003000F09AFD25E0F04884429D
:1025200009D10121880400F092FD00214FF48020A0
:1025300000F08DFD18E0EB48844209D10121C80468
:1025400000F085FD00214FF4002000F080FD0BE03D
:10255000E548844208D10121080500F078FD0021FA
:102560004FF4801000F073FD10BD2DE9F04786B0E8
:1025700005460E460024A24600BFA1460027B089AA
:1025800000B100BF2F462C8A4CF6FF700440F08843
:1025900004432C82AC894EF6F3100440B088318994
:1025A0000843718908430443AC81AC8A4FF6FF406D
:1025B0000440B0890443AC8201A800F0B4FCC648D2
:1025C000874202D1DDF810A001E0DDF80CA0A88957
:1025D00000F4004040B10AEBCA0000EB0A10316879
:1025E0004900B0FBF1F807E00AEBCA0000EB0A1063
:1025F00031688900B0FBF1F86420B8FBF0F0040109
:102600002009642101FB1089A88900F4004040B131
:10261000322000EBC900B0FBF1F000F007000443EA
:1026200008E0322000EB09106421B0FBF1F000F06B
:102630000F0004432C8106B0BDE8F0874FF416511B
:10264000016000218180C18001810C214181002134
:102650008181704710B502460020108A4FF2FF03B7
:1026600018400B884C8823438C882343CC88234311
:102670001843108210BD0021018041808180C180FB
:10268000704721B1828942F40052828104E082893C
:102690004DF6FF731A4082817047F0B5034600245F
:1026A00000260025002040F66A17B94200D100BF7D
:1026B0001846C1F3421401F01F06012707FA06F578
:1026C000012C01D10C3004E0022C01D1103000E0CB
:1026D00014301AB107682F43076002E00768AF4360
:1026E0000760F0BD1AB1838A0B43838202E0838ABC
:1026F0008B4383827047028A4FF6F0731A4002823E
:10270000028A0A430282704782894FF2FF731A409D
:10271000828182890A438281704721B1828942F095
:102720000202828104E082894FF6FD731A408281A1
:102730007047028A4FF6DF731A400282028A0A4308
:102740000282704721B1028A42F48042028204E090
:10275000028A4BF6FF731A4002827047C1F30802E7
:102760008280704701468888C0F3080070478189DD
:1027700041F0010181817047028BD2B20283028B4A
:1027800042EA012202837047028B02F47F420283F5
:10279000028B0A430283704721B1828A42F02002F1
:1027A000828204E0828A4FF6DF731A408282704789
:1027B00021B1828A42F01002828204E0828A4FF6BE
:1027C000EF731A408282704721B1828A42F0080278
:1027D000828204E0828A4FF6F7731A408282704741
:1027E00021B1828942F40042828103E08289C2F3EE
:1027F0000E028281704721B1828A42F40062828295
:1028000004E0828A4FF2FF731A4082827047828A04
:102810004FF6FB731A408282828A0A438282704793
:1028200021B1828A42F00202828204E0828A4FF65B
:10283000FD731A408282704702460020B1F5007F86
:1028400000D100BF13880B400BB1012000E0002035
:10285000704701F40072B2F5007F00D100BFCA4397
:102860000280704770B50246002400230025002036
:1028700040F66A16B14200D100BFC1F3421501F023
:102880001F03012606FA03F3012D02D19689334076
:1028900006E0022D02D1168A334001E0968A3340C9
:1028A0000C12012606FA04F41688344013B10CB158
:1028B000012000E0002070BD10B50022002340F68A
:1028C0006A14A14200D100BF0A1201249440A3B2AD
:1028D000DC43048010BD000000380140004400408B
:1028E00000480040004C0040005000403149014386
:1028F000314A1160704770B5002100230F22C4785F
:1029000004B32D4C246804F4E064C4F5E064210AA7
:10291000C1F10403CA40447804FA03F184781440F6
:1029200021430901254C0678A155047804F01F05C0
:102930000124AC4005786D11AD0005F1E025C5F826
:10294000004109E0047804F01F050124AC401C4D4F
:102950000678761145F8264070BD1A4A0A400243AF
:10296000154B1B1F1A60704739B1134A121D1268AC
:102970000243114B1B1D1A6006E00F4A121D12681C
:1029800082430D4B1B1D1A607047042808D14FF07D
:10299000E021096941F004014FF0E022116107E0F4
:1029A0004FF0E021096921F004014FF0E0221161AC
:1029B000704700000000FA050CED00E000E400E0C4
:1029C00080E100E080FFFF1F10B50446CC48844240
:1029D00008D10121042000F02DFB0021042000F08B
:1029E00029FB46E0C748844208D10121082000F0B5
:1029F00021FB0021082000F01DFB3AE0C248844280
:102A000008D10121102000F015FB0021102000F05A
:102A100011FB2EE0BD48844208D10121202000F0A6
:102A200009FB0021202000F005FB22E0B848844289
:102A300008D10121402000F0FDFA0021402000F0E3
:102A4000F9FA16E0B348844208D10121802000F051
:102A5000F1FA0021802000F0EDFA0AE0AE4884424D
:102A600007D10121801500F0E5FA0021A01500F042
:102A7000E1FA10BD10B50121084600F0DBFA002193
:102A8000012000F0D7FA10BD2DE9F04102460025E3
:102A90000026002000230024002791F803C00CF03A
:102AA0000F0591F803C00CF0100CBCF1000F03D01F
:102AB00091F802C04CEA050591F800C0BCF1000F86
:102AC00031D0146800202BE04FF0010C0CFA00F319
:102AD000B1F800C00CEA03069E4220D183004FF0FB
:102AE0000F0C0CFA03F7BC4305FA03FC4CEA040490
:102AF00091F803C0BCF1280F06D14FF0010C0CFA7D
:102B000000FCC2F814C00AE091F803C0BCF1480F01
:102B100005D14FF0010C0CFA00FCC2F810C0401CAB
:102B20000828D1D31460B1F800C0BCF1FF0F34DD28
:102B3000546800202EE000F1080C4FF0010808FA5C
:102B40000CF3B1F800C00CEA03069E4221D18300C9
:102B50004FF00F0C0CFA03F7BC4305FA03FC4CEAE8
:102B6000040491F803C0BCF1280F05D100F1080C52
:102B700008FA0CF8C2F8148091F803C0BCF1480FB1
:102B800007D100F1080C4FF0010808FA0CF8C2F860
:102B90001080401C0828CED35460BDE8F0814FF669
:102BA000FF710180022181700421C17070470246CB
:102BB000002093680B400BB1012000E0002070471B
:102BC0000146886880B2704702460020D3680B40F7
:102BD0000BB1012000E0002070470146C86880B2B8
:102BE000704701617047416170470AB1016100E0BF
:102BF00041617047C16070474FF480320A4382617F
:102C00008161826182698269704702460020434B7C
:102C100018684FF68073184040EA021008433F4B93
:102C2000186070473E49C8617047F0B50A460023F6
:102C300000240021002500F00046B6F1004F02D12B
:102C4000364EF16901E0354E7168C0F3034583B239
:102C500000F44016B6F5401F08D121F070612F4EE8
:102C6000766826F070662D4F7E6012E000F48016C4
:102C7000B6F5801F06D1032606FA05F4A14341F0FC
:102C8000706106E0460D360103FA06F6B14341F0E5
:102C9000706122B1460D360103FA06F6314300F0A9
:102CA0000046B6F1004F02D11C4EF16101E01B4E0F
:102CB0007160F0BD30B500228B071C0F0F2303FAA3
:102CC00004F2164B08338C1053F824309343134C02
:102CD00008348D1044F8253023468C1053F82430E6
:102CE0008C07240F00FA04F423430C4C08348D1095
:102CF00044F8253030BD0A49DC31086070470000D7
:102D000000080140000C0140001001400014014087
:102D100000180140001C014000200140000001405B
:102D200000002042DF48006840F00100DD490860F3
:102D300008464068DC490840DA49486008460068AF
:102D4000DA490840D74908600846006820F4802026
:102D500008600846406820F4FE0048604FF41F00F9
:102D600088607047CF49096821F48031CD4A1160ED
:102D70001146096821F480211160B0F5803F03D02D
:102D8000B0F5802F0ED106E0C649096841F48031C4
:102D9000C44A116007E0C349096841F4A021C14A4F
:102DA000116000E000BF00BF704710B5014600226F
:102DB000002300204A11012A02D1BA4C236806E000
:102DC000022A02D1B74C236A01E0B64C636A01F0D3
:102DD0001F02012494401C400CB1012000E000209F
:102DE00010BD38B5002000900024002500BF312020
:102DF000FFF7DBFF05460098401C00900098B0F5F7
:102E0000A06F01D0002DF2D03120FFF7CEFF08B126
:102E1000012400E00024204638BD01460020A14ADC
:102E2000106820F0F80040EAC10010607047A04927
:102E300008607047024600209A4B586820F47C10C6
:102E400042EA01031843974B586070479849086657
:102E5000704701460020934A506820F00300084361
:102E6000506070478F48406800F00C007047014682
:102E700000208C4A506820F0F000084350607047F2
:102E800001460020874A506820F4E0600843506003
:102E9000704701460020834A506820F4605040EAA1
:102EA000C1005060704729B17E4A527A02437D4B7F
:102EB0005A7204E07B4A527A82437A4B5A727047C4
:102EC0007B49D8310860704701460020754A506838
:102ED00020F440400843506070470021714A20327E
:102EE0001170704A82F82010012802D004280AD1FB
:102EF00004E001216B4A2032117005E00521694A86
:102F00002032117000E000BF00BF704769490860BF
:102F100070476449096A0143624A11627047654912
:102F200044390860704730B5002100220024002396
:102F30005C4D6D6805F00C0121B1042905D008290C
:102F400023D105E05C4D056022E05B4D05601FE08C
:102F5000544D6D6805F47012524D6D6805F480345F
:102F6000022505EB92421CB9544D554305600BE018
:102F70004C4D6D6805F400351DB1504D554305604D
:102F800002E04D4D5543056002E04B4D056000BF2A
:102F900000BF444D6D6805F0F0010909484D6B5CB8
:102FA0000568DD4045603F4D6D6805F4E061090A44
:102FB000434D6B5C4568DD4085603A4D6D6805F4B6
:102FC0006051C90A3E4D6B5C4568DD40C560354DBA
:102FD0006D6805F44041890B3A4D6B5CC568B5FBE3
:102FE000F3F5056130BD29B12E4A526902432D4BDC
:102FF0005A6104E02B4A526982432A4B5A61704756
:1030000029B1284A92690243264B9A6104E0254A75
:1030100092698243234B9A61704729B1214AD26950
:103020000243204BDA6104E01E4AD26982431D4B01
:10303000DA61704729B11B4AD2680243194BDA6042
:1030400004E0184AD2688243164BDA60704729B10F
:10305000144A12690243134B1A6104E0114A1269BF
:103060008243104B1A61704712494039086070471B
:103070000F49C86470470B49C87170470948406AD6
:1030800040F0807007494862704701460020054AB9
:1030900092680A400AB1012000E00020704701490F
:1030A00088727047001002400000FFF8FFFFF6FE34
:1030B000000042428004424200127A0000093D00B2
:1030C00090000020A000002001684FF6FE72114021
:1030D00001600021016041608160C1608D498842CA
:1030E00008D18C490839496841F00F01894A083AEA
:1030F00051608AE087491431884208D185490839EE
:10310000496841F0F001834A083A51607DE0814905
:103110002831884208D17F490839496841F47061F3
:103120007C4A083A516070E07A493C31884208D1C3
:1031300078490839496841F47041764A083A516043
:1031400063E074495031884208D1724908394968AE
:1031500041F470216F4A083A516056E06D4964317C
:10316000884208D16B490839496841F47001694ABD
:10317000083A516049E067497831884208D1654989
:103180000839496841F07061624A083A51603CE090
:103190006149884206D1011F096841F00F01021FF1
:1031A000116032E05C491431884208D15A49091F44
:1031B000096841F0F001584A121F116025E0564994
:1031C0002831884208D15449091F096841F47061C7
:1031D000514A121F116018E04F493C31884208D112
:1031E0004D49091F096841F470414B4A121F116093
:1031F0000BE049495031884207D14749091F096806
:1032000041F47021444A121F1160704710B500222A
:10321000026847F6F0739A430C6A8B6823430C6983
:1032200023434C6923438C692343CC6923434C6A71
:1032300023438C6A23431A430260CB6843600B68C4
:1032400083604B68C36010BD0021016041608160F4
:10325000C160016141618161C1610162416281625C
:10326000704721B1026842F00102026004E0026886
:103270004FF6FE731A40026070471AB103680B43A1
:10328000036002E003688B4303607047416070474E
:103290000146486880B2704701460020002201F0D4
:1032A00080531BB11C4B083B1A6802E0194B083BCA
:1032B0001A6802EA01030BB1012000E00020704708
:1032C00000F0805119B11449091F086002E011494A
:1032D00008394860704701460020002201F0805301
:1032E0001BB10D4B083B1A6802E00A4B083B1A68F9
:1032F00002EA01030BB1012000E00020704700F05A
:10330000805119B10449091F086002E001490839D8
:1033100048607047080002400804024010B50446A7
:10332000F748844209D101214805FFF790FE0021AA
:103330004FF40010FFF78BFE08E001218805FFF72E
:1033400086FE00214FF48000FFF781FE10BD2DE9BD
:10335000F04385B004460D460026B1460427DFF849
:10336000A483A6884FF6C07006406846FFF7DBFDD1
:10337000DDF80880E448B8FBF0F01FFA80F946EA6F
:103380000906A68020884FF6FE710840208000269E
:10339000DE49286888420CD828684000B8FBF0F065
:1033A00087B2042F00DA04273E4309F1010020848C
:1033B00027E0E8884BF6FF71884206D1286800EBC9
:1033C0004000B8FBF0F087B209E0286800EBC001CC
:1033D00001EB0010B8FBF0F087B247F48047C7F369
:1033E0000B0008B947F0010747F4004006434FF4CB
:1033F000967009FB00F04FF47A7190FBF1F0401CDD
:103400002084A683208840F00100208026884FF683
:10341000F5300640A8886989084306432680A889B4
:1034200029890843208105B0BDE8F08341F2883145
:103430000160002181804BF6FF71C1800021018174
:1034400041814FF480418181704721B1028842F06F
:103450000102028004E002884FF6FE731A400280E7
:10346000704721B1828842F40062828004E0828841
:103470004FF2FF731A408280704721B1828842F474
:103480008052828004E082884EF6FF731A40828068
:10349000704721B1028842F48072028004E0028801
:1034A0004FF6FF631A400280704721B1028842F450
:1034B0000072028004E002884FF6FF531A40028037
:1034C000704721B1028842F48062028004E00288E1
:1034D0004FF6FF331A40028070470A460021818967
:1034E0004FF60173194002F0FE03194381817047C2
:1034F00021B1828942F00102828104E082894FF683
:10350000FE731A408281704721B1028842F0400266
:10351000028004E002884FF6BF731A4002807047B1
:103520001AB183880B43838002E083888B438380B6
:103530007047018270470146088AC0B2704712B1D5
:1035400041F0010102E04FF6FE731940018270471D
:1035500008B50246002000900092009808440090B0
:103560000098008808BD21B1028842F40042028020
:1035700003E00288C2F30E0202807047B1F5006FCB
:1035800004D1028842F40062028004E002884FF213
:10359000FF731A4002807047B1F5005F04D10288C2
:1035A00042F40052028004E002884DF6FF731A4094
:1035B0000280704721B1028842F48052028004E008
:1035C00002884EF6FF731A4002807047B1F5006F13
:1035D00004D1028842F40062028004E002884FF2C3
:1035E000FF731A400280704721B1028842F0200226
:1035F000028004E002884FF6DF731A4002807047B1
:103600000146088B0012704721B1028842F0100277
:10361000028004E002884FF6EF731A400280704780
:1036200021B9028842F08002028004E002884FF64D
:103630007F731A4002807047B1F5804F05D0828BAE
:103640004BF6FF731A40828303E0828B42F4804280
:103650008283704770B502460024002500230020B5
:10366000958A138B1B0445EA030626F07F4404EA7F
:1036700001068E4201D1012000E0002070BD10B58E
:1036800001460020002300228B8A0A8B120443EAA1
:10369000020424F07F4010BD0CB502460020002338
:1036A0000193009300920B0F019321F07F41019B46
:1036B0001BB1009B1433009303E0090C009B1833EB
:1036C0000093009B1B680B400BB1012000E0002021
:1036D0000CBD002221F07F42D3438382704730B576
:1036E000024600200023948801F0E06504EA1543B7
:1036F00021F07F41948A0C4054B14BB1012008E085
:103700000054004000127A0040420F00A0860100E1
:10371000002030BD002221F07F42D34383827047D6
:1037200010B50446FE48844208D10121C014FFF7B9
:1037300081FC0021E014FFF77DFCC4E0B4F1804F70
:1037400008D101210846FFF782FC00210120FFF784
:103750007EFCB8E0F348844208D101210220FFF743
:1037600076FC00210220FFF772FCACE0EE488442B8
:1037700008D101210420FFF76AFC00210420FFF793
:1037800066FCA0E0E948844208D101210820FFF747
:103790005EFC00210820FFF75AFC94E0E4488442D4
:1037A00008D101211020FFF752FC00211020FFF763
:1037B0004EFC88E0DF48844208D101212020FFF739
:1037C00046FC00212020FFF742FC7CE0DA488442DE
:1037D00008D101214014FFF72DFC00216014FFF7F0
:1037E00029FC70E0D548844209D10121C804FFF7C3
:1037F00021FC00214FF40020FFF71CFC63E0D048BF
:10380000844209D101210805FFF714FC00214FF47F
:103810008010FFF70FFC56E0CA48844209D101210D
:103820004805FFF707FC00214FF40010FFF702FCEA
:1038300049E0C548844208D101214020FFF707FC38
:1038400000214020FFF703FC3DE0C048844208D13E
:1038500001218020FFF7FBFB00218020FFF7F7FB11
:1038600031E0BB48844208D101218015FFF7EFFB0E
:103870000021A015FFF7EBFB25E0B648844209D1F3
:1038800001210804FFF7D6FB00214FF48030FFF739
:10389000D1FB18E0B048844209D101214804FFF768
:1038A000C9FB00214FF40030FFF7C4FB0BE0AB482D
:1038B000844208D101218804FFF7BCFB00214FF4AA
:1038C0008020FFF7B7FB10BD00220288944B98427E
:1038D0000ED0994B98420BD0B0F1804F08D0914B4D
:1038E000984205D0904B984202D0904B984204D118
:1038F0004FF68F731A404B881A438D4B984207D06E
:103900008C4B984204D04FF6FF431A40CB881A43A1
:1039100002808B8883850B880385814B98420BD06E
:10392000854B984208D08B4B984205D08A4B9842E1
:1039300002D08A4B984201D10B7A038601238382FD
:10394000704770B5002400220023058C4FF6FE76E8
:1039500035400584028C8388048B4FF68F752C408C
:10396000B51E2C400D882C43751E2A400D892A4314
:103970004D882A436A4DA8420BD06F4DA84208D00B
:10398000744DA84205D0744DA84202D0734DA84290
:1039900013D14FF6F7752A404D892A434FF6FB7530
:1039A0002A408D882A434FF6FF652B404FF6FF557E
:1039B0002B408D892B43CD892B4383800483CD8875
:1039C0008586028470BD70B5002400220023058C1A
:1039D0004FF6EF7635400584028C8388048B48F6D9
:1039E000FF752C404FF6FF452C400D884FF6FF76B3
:1039F00006EA05252C434FF6DF752A400D8906EAB5
:103A000005152A434D8806EA05152A43444DA84268
:103A100002D0494DA8421DD14FF67F752A404D89ED
:103A20004FF6FF7606EA05152A434FF6BF752A4082
:103A30008D8806EA05152A434FF6FF352B404FF2D5
:103A4000FF752B408D8906EA85052B43CD8906EA53
:103A500085052B4383800483CD880587028470BD50
:103A600070B5002400220023058C4FF6FF66354018
:103A70000584028C8388848B4FF68F752C404FF61B
:103A8000FC752C400D882C434FF6FF552A400D89BC
:103A90004FF6FF7606EA05252A434D8806EA0525F6
:103AA0002A431F4DA84202D0234DA8421DD14FF2F8
:103AB000FF752A404D894FF6FF7606EA05252A4311
:103AC0004FF6FF352A408D8806EA05252A434EF633
:103AD000FF752B404DF6FF752B408D8906EA0515C5
:103AE0002B43CD8906EA05152B4383808483CD883B
:103AF0008587028470BD70B5002200230024058CE8
:103B00004EF6FF7635400584038C8488828B48F618
:103B1000FF752A404FF6FF452A400D8820E000003F
:103B2000002C01400004004000080040000C004050
:103B3000001000400014004000340140004C0140DF
:103B4000005001400054014000180040001C00409B
:103B50000020004000400140004401400048014076
:103B60004FF6FF7606EA05252A434DF6FF752B40F2
:103B70000D8906EA05352B434D8806EA05352B43AA
:103B8000FA4DA84202D0FA4DA84208D14BF6FF7573
:103B90002C408D894FF6FF7606EA85152C438480EC
:103BA0008283CD88A0F84050038470BD828B4FF291
:103BB000FF331A408283828B4FF6FF7303EA01239F
:103BC0001A4382837047F0B50C4615460022002147
:103BD0000026078C4EF6FF7C07EA0C070784828BD1
:103BE000018C4FF6FF7707EA043640F6FF473A406C
:103BF0004FF6FF7707EA05273A434FF6FF7707EAC4
:103C000003373A43D94FB8420ED0D94FB8420BD000
:103C1000B0F1804F08D0D74FB84205D0D64FB84248
:103C200002D0D64FB84206D14DF6FF77394046F460
:103C30008057394305E047F6FF57394044F4805731
:103C4000394382830184F0BD828B4FF6F3731A40AF
:103C50008283828B0A4382837047F0B50C461546F7
:103C6000002200210026078C4FF6FF6C07EA0C07A4
:103C70000784828B018C4FF6FF7707EA04264FF604
:103C80000C773A404FF6FF7707EA03172F433A4382
:103C9000B64FB8420ED0B64FB8420BD0B0F1804FFD
:103CA00008D0B44FB84205D0B34FB84202D0B34F9A
:103CB000B84206D14FF6FF57394046F48077394372
:103CC00005E04FF2FF57394044F48077394382834F
:103CD0000184F0BD028B4FF2FF331A400283028B46
:103CE0004FF6FF7303EA01231A4302837047F0B5CE
:103CF0000C461546002200210026078C4FF6EF7C6B
:103D000007EA0C070784028B018C4FF6FF7707EA5E
:103D1000041640F6FF473A404FF6FF7707EA0337AD
:103D20003A434FF6FF7707EA05273A438F4FB842E9
:103D30000ED08F4FB8420BD0B0F1804F08D08D4FCE
:103D4000B84205D08C4FB84202D08C4FB84206D151
:103D50004FF6DF77394046F01007394305E04FF65C
:103D60005F77394044F01007394302830184F0BD86
:103D7000028B4FF6F3731A400283028B0A430283CD
:103D80007047F0B50C46154600220021068C4FF610
:103D9000FE773E400684028B018C4FF60C76324053
:103DA0007E1C06EA03162E433243704EB0420ED0FC
:103DB0006F4EB0420BD0B0F1804F08D06D4EB04284
:103DC00005D06D4EB04202D06C4EB04206D14FF6D7
:103DD000FD76314044F00106314305E04FF6F576BB
:103DE000314044F00106314302830184F0BD70B5D7
:103DF00005460C465D4885420ED05D4885420BD095
:103E0000B5F1804F08D05B48854205D05A488542BD
:103E100002D05A48854200D100E000BF208850B946
:103E20002389A28861882846FFF7ABFFE1882846EE
:103E3000FFF79EFF25E0208804280AD12389A28865
:103E400061882846FFF753FFE1882846FFF742FFC5
:103E500017E0208808280AD12389A288618828468B
:103E6000FFF7FBFEE1882846FFF7EEFE09E0238915
:103E7000A28861882846FFF7A6FEE1882846FFF75A
:103E800095FE70BD2DE9F04105460C460026012740
:103E9000608808B9022600E00026A088012801D128
:103EA000022700E001272088A0B92389A288618821
:103EB0002846FFF766FFE1882846FFF759FF238968
:103EC0003A4631462846FFF712FFE1882846FFF7B9
:103ED00001FF13E02389A28861882846FFF707FFC6
:103EE000E1882846FFF7F6FE23893A463146284600
:103EF000FFF747FFE1882846FFF73AFFBDE8F0816A
:103F00000A884B881A438B881A43CB881A430B893B
:103F10001A434B891A438B891A43A0F844207047EF
:103F20004FF6FF71818000210180C18041800172C4
:103F300070470021018041808180C18001814181E1
:103F40008181C181704700210180418001218180F0
:103F50000021C18001817047002101804180818062
:103F6000C18001814181818170470000002C0140A6
:103F7000003401400004004000080040000C0040F4
:103F800021B1028842F00102028004E002884FF66B
:103F9000FE731A400280704731B1B0F8442042F4F9
:103FA0000042A0F8442005E0B0F84420C2F30E021D
:103FB000A0F8442070471AB183890B43838102E043
:103FC00083898B43838170478182704741EA020372
:103FD000A0F8483070471AB183890B43838102E00F
:103FE00083898B438381704701894FF6F8721140B2
:103FF000018170470A46002101894FF68F731940ED
:1040000011430181704730B504460D4629462046CC
:10401000FFF7F0FF208940F00700208130BD2DE937
:10402000F04104460D4616461F46602D06D13B461C
:10403000012231462046FFF75AFE05E03B460122A9
:1040400031462046FFF79DFE29462046FFF7D2FF66
:10405000208940F007002081BDE8F08130B50C4692
:1040600000210189C9B24FF6FF7505EA0325154302
:1040700025432943018130BD2DE9F04105460E4617
:1040800017469846002443463A4631462846FFF7ED
:10409000E5FF2C894FF6F870044044F007044FF612
:1040A0008F70044044F070042C81BDE8F081F0B5BD
:1040B00004460D4616461F463B46324629462046D4
:1040C000FFF7CCFF208940F480402081F0BD0185BE
:1040D000828270470A46002101884FF68F7319408B
:1040E000114301807047F0B50C4615461E4600216D
:1040F000002200230189028B038C4FF6F8773940A8
:1041000021434FF6FC473A4040F201173A434FF63D
:10411000DD773B404FF6FF7707EA06172F433B4317
:10412000018102830384F0BD0A460021018B4FF612
:104130008F7319401143018370470A460021018B98
:1041400048F6FF7319404FF6FF7303EA0223194341
:10415000018370470A460021818B4FF68F73194007
:104160001143818370470A460021818B48F6FF7313
:1041700019404FF6FF7303EA022319438183704706
:1041800021B1028842F08002028004E002884FF6EA
:104190007F731A400280704721B1828842F0040286
:1041A000828004E082884FF6FB731A408280704759
:1041B00021B1828842F00802828004E082884FF6B2
:1041C000F7731A408280704721B1828842F0010261
:1041D000828004E082884FF6FE731A408280704726
:1041E0000A460021018B4FF6F773194011430183F2
:1041F00070470A460021018B4FF2FF7319404FF6BA
:10420000FF7303EA02231943018370470A46002122
:10421000818B4FF6F77319401143818370470A462B
:104220000021818B4FF2FF7319404FF6FF7303EAB1
:1042300002231943818370470A460021018B4FF600
:10424000FB7319401143018370470A460021018B1B
:104250004FF6FF3319404FF6FF7303EA0223194369
:10426000018370470A460021818B4FF6FB7319408A
:104270001143818370470A460021818B4FF6FF333B
:1042800019404FF6FF7303EA0223194381837047F5
:104290000A460021018B4FF67F73194011430183B9
:1042A00070470A460021018BC1F30E014FF6FF73E0
:1042B00003EA02231943018370470A460021818BD8
:1042C0004FF67F7319401143818370470A460021DE
:1042D000818BC1F30E014FF6FF7303EA02231943EA
:1042E000818370470A460021018C4FF6FD73194007
:1042F0001143018470470A460021018C4FF6F77381
:1043000019401143018470470A460021018C4FF681
:10431000DF7319404FF6FF7303EA02131943018458
:1043200070470A460021018C4FF67F7319404FF603
:10433000FF7303EA02131943018470470A46002100
:10434000018C4FF6FF5319404FF6FF7303EA022327
:104350001943018470470A460021018C4FF2FF7314
:1043600019404FF6FF7303EA022319430184704793
:104370000A460021018C4DF6FF7319404FF6FF737A
:1043800003EA023319430184704730B50023012446
:104390008C40A3B2048C9C430484048C02FA01F583
:1043A000ADB22C43048430BD30B5002304248C40CE
:1043B000A3B2048C9C430484048C02FA01F5ADB2D0
:1043C0002C43048430BD70B50346002000241846F9
:1043D000183001258D40ACB21D8CA5431D8409B158
:1043E000082909D100EB6100056825F0700505601A
:1043F0000568154305600EE00D1FC5F34E05284402
:10440000056825F4E045056005684FF6FF7606EA85
:1044100002263543056070BD21B1028842F00202D8
:10442000028004E002884FF6FD731A400280704754
:1044300021B1028842F00402028004E002884FF6B3
:10444000FB731A400280704721B1828842F08002DB
:10445000828004E082884FF67F731A408280704722
:1044600002884FF6F7731A40028002880A430280DE
:10447000704782884FF68F731A40828082880A4381
:104480008280704702894FF6F8731A4002810289D0
:104490000A430281704702894FF67F731A400281F6
:1044A00002890A4302817047818470478185704781
:1044B000818670470187704781877047A0F8401058
:1044C000704702884FF6FF431A40028002880A4371
:1044D000028070470146888E70470146088F7047FA
:1044E0000146888F70470146B1F840007047014689
:1044F000888C70470146088D704702460020138A59
:104500000B400BB1012000E000207047CA4302823B
:10451000704730B50246002000230024158A05EAC2
:104520000103958905EA010413B10CB1012000E0F3
:10453000002030BDCA43028270470000002109E01C
:10454000002201E0531C9AB242F234139A42F9DB82
:104550004B1C99B28142F3DB704708B500214FF440
:104560008000FEF75AFD4FF48060ADF80000032094
:104570008DF8020010208DF803006946FD48FEF713
:1045800083FA0520FFF7DAFF4FF48061F948FEF760
:1045900028FB4FF48061F748FEF725FB4FF480615C
:1045A000F448FEF71EFB4FF48061F248FEF71BFB58
:1045B0004FF48061EF48FEF714FB4FF48061ED4843
:1045C000FEF711FB4FF48061EA48FEF70AFB4FF457
:1045D0008061E848FEF707FB4FF48061E548FEF78D
:1045E00000FB4FF48061E348FEF7FDFA4FF4806171
:1045F000E048FEF7F6FA4FF48061DE48FEF7F3FA82
:104600004FF48061DB48FEF7ECFA4FF48061D94843
:10461000FEF7E9FA4FF48061D648FEF7E2FA4FF46C
:104620008061D448FEF7DFFA4FF48061D148FEF78D
:10463000D8FA4FF48061CF48FEF7D5FA4FF4806185
:10464000CC48FEF7CEFA4FF48061CA48FEF7CBFAA9
:104650004FF48060ADF8000003208DF802001C20AC
:104660008DF803006946C348FEF70EFA012188055C
:10467000FEF7D3FC08BD2DE9F04387B004460D4694
:1046800017461E46DDE90E8901210820FEF7B8FC19
:10469000FFF763FF01218805FEF7BFFC4FF4406080
:1046A000ADF8180003208DF81A001C208DF81B00AF
:1046B00006A9B048FEF7E8F9AF48FEF72FFE002143
:1046C000AD48FEF7C2FE0020ADF80C004BF6FF70BF
:1046D000ADF80E00ADF810404FF48060ADF8120058
:1046E0000001ADF81400029502A9A348FEF72FFEC1
:1046F0000121A148FEF7A9FE01219F48FEF7E1FE36
:104700004FF4A060FEF7F2F822208DF804008DF837
:1047100005708DF8066001208DF8070001A8FEF7EE
:10472000EAF821208DF804008DF805808DF80690B8
:1047300001208DF8070001A8FEF7DDF807B0BDE8FD
:10474000F0834FF480608B49143108608948001D64
:10475000006840F480608749091D086070478548FB
:10476000001D006840F440608249091D08607047E0
:1047700030B504468148007808B1002030BD80483B
:104780000470804801708048027080480270804840
:10479000036001207F4D287000207F4D28707F4DE1
:1047A00028707548001D008840F48070724D2D1DE2
:1047B00028802846008840F4007028802846008819
:1047C0004FF6FF3528406C4D2D1D2880281F00888E
:1047D00040F480602D1F28800120684D28706648B5
:1047E000008840F48070644D28800120C6E730B511
:1047F00004466248007808B1002030BD604804706B
:104800006048017060480270604802706048036050
:104810000120604D287000205F4D28705F4D28708A
:104820005548001D008840F48070534D2D1D288090
:104830002846008840F400702880284600884FF6FB
:10484000FF3528404C4D2D1D2880281F008840F43E
:1048500080602D1F28800120484D28704648008820
:1048600040F48070444D288000BF44480078002800
:10487000FBD10120C1E730B504464048007808B1BB
:10488000002030BD3E4804703E4801703E48027032
:104890003E4802703E48036000203E4D28703E4D69
:1048A00028703E4D28700120344D28703248001D7C
:1048B000008840F48070304D2D1D288028460088E7
:1048C00040F400702880284600884FF6FF352840C5
:1048D000294D2D1D2880281F008840F480602D1F41
:1048E00028802846008840F4807028800120C8E78E
:1048F00030B504462148007808B1002030BD20487A
:10490000047020480170204802702048027020483E
:10491000036000201F4D28701F4D28701F4D287008
:104920000120164D28701448001D008840F4807046
:10493000114D2D1D28802846008840F400702880E5
:10494000284600884FF6FF3528400B4D2D1D288046
:10495000281F008840F480602D1F2880284600888A
:1049600040F48070288000BF044800780028FBD104
:104970000120C3E7000C014000580040B3000020B4
:10498000A8000020A9000020AB000020AA00002001
:10499000AC000020B0000020B1000020B2000020D8
:1049A00000B5F348007800287ED0F248007801284E
:1049B0007BD1F148008810F0010F06D0EF48007855
:1049C000401CED49091F088000BDED480078012812
:1049D00043D1E948008810F0020F1FD0E648103894
:1049E000008840F48060E44910390880081F00887E
:1049F0004FF6FF310840E04914390880FFF7A1FE67
:104A0000DD48001D0088DC481438008840F4007040
:104A1000D94914390880FFF7A2FED5E7D6480088A7
:104A200010F0400F7AD0D448103800884FF6FF318C
:104A30000840D14910390880CF48001F0088D1496B
:104A400009680870002000E0401CCF4909688842CE
:104A5000FAD30020CD490870B6E7C948007802288B
:104A600066D1C548008810F0020F23D0C248143820
:104A7000008840F40060C049143908800846008866
:104A800040F480600880FFF75CFEBB48001D008892
:104A9000B948143800884FF6FF310840B649143938
:104AA0000880FFF75CFE01E0F3E0C8E00120B849B0
:104AB000087089E7B048008810F0040FB2D0B448FD
:104AC00000780028AED0FFF73CFEAB4814380088D1
:104AD00040F40070A84914390880084600884FF255
:104AE000FF710840A449143908800846008840F442
:104AF00080600880A048001F0088A24909680870EB
:104B0000FFF72DFE9F480068401C9E4908609A48A8
:104B1000001F008809680870002001E0F5E0401CD3
:104B2000994909688842FAD30020984908704BE7F0
:104B30009148008810F0020F0ED08F48143800887A
:104B400040F480608C49143908808B48001D00882F
:104B500001208F49087037E78748008810F0040F5C
:104B6000ACD08B4800780028A8D08A480078032869
:104B700010DD8148001F008882490968087081485B
:104B80000068401C7F49086082480078401E8149C7
:104B9000087019E77F480078032819D1764814383F
:104BA00000884FF6FF310840734914390880724875
:104BB000001F008873490968087072480068401C2B
:104BC0007049086073480078401E72490870FBE61F
:104BD000FFF7B7FD68481438008840F40070664954
:104BE000143908806448001F008866490968087005
:104BF00064480068401C6349086066480078401EAD
:104C000064490870FFF7ABFD5B48001F00885D49F1
:104C1000096808705B480068401C5A4908605D4894
:104C20000078401E5B490870002000E0401C564997
:104C300009688842FAD3002054490870C4E64E48F7
:104C4000008810F0010F05D04C4800784A49091F30
:104C50000880B9E64848008810F0020F08D046489E
:104C6000001D00884C4800784349091F0880ABE6C6
:104C70004148008810F0040F67D001203D490870BA
:104C80003D481438008840F480703B49143908804E
:104C90009AE63948008810F0010F05D037480078AF
:104CA0003549091F08808FE63348008810F0020F4D
:104CB0000DD03148008810F0800F08D02E48001D1C
:104CC0000088354800782C49091F08807CE62A486E
:104CD000008810F0040F19D02748008810F0800FCA
:104CE00014D02C480078002810DD26480068007891
:104CF0002149091F088027480078401E254908706F
:104D000020480068401C1F4908601EE01A480088BF
:104D100010F0040F19D01848008810F0800F14D03C
:104D20001C48007888B914481438008840F4007092
:104D3000114914390880002000E0401C124909681C
:104D40008842FAD300201149087000BF3CE61CB528
:104D5000FFF703FC01200090034602460F49019033
:104D60000020FFF788FC0020084908701CBD0000E7
:104D7000B0000020B100002014580040A80000201E
:104D8000AA000020AC000020A4000020B3000020F6
:104D9000B2000020AB000020A9000020801A06000D
:104DA00070B5064600F07CF8056806F10B0020F0AF
:104DB0000704B4429CBF002070BD2B466A68BAB19C
:104DC0001068A04210D304F1080188423CBF50682B
:104DD000586007D35168101941601168091B0160C0
:104DE00058601460101D70BD13465268002AE7D148
:104DF0002146284600F05CF80028DED170BD70B571
:104E00000446051F00F04CF80068002C14BF4468ED
:104E100070BD002C18BFAC423CBF20466468F8D37C
:104E200001680A18AA4218BF456003D12A680546DE
:104E30001144016028684119A1421CBF6C6070BD1B
:104E40006168696021680844286070BD4FF0000205
:104E500000B5134694469646203922BFA0E80C5070
:104E6000A0E80C50B1F12001BFF4F7AF090728BF4B
:104E7000A0E80C5048BF0CC05DF804EB890028BFC7
:104E800040F8042B08BF704748BF20F8022B11F0F0
:104E9000804F18BF00F8012B70477047704770476C
:104EA000004870477C0A0020704770477047704781
:104EB00038B504460A4600206946AFF30080002852
:104EC00008BF38BD02460099204600F04FF8012087
:104ED00038BD012000F064B8F8B5AFF30080054696
:104EE00000200C46102000BF0646A819A0420DD98C
:104EF000324669460020AFF30080070008BF00F08B
:104F00004FF80098A04218BF0546C419FFF7C8FF24
:104F100005600746F01D20F007004619284600F0FE
:104F20000AF8B44208BFF8BDA21B31463868BDE894
:104F3000F84000F01BB800210160C0E90110704783
:104F40001020704710B500F00DF8006810BD10B5C6
:104F5000044600F007F8046010BD000000487047E8
:104F6000740A002000487047740A00200346406815
:104F70008C46002818BF88423CBF03464068F8D3DF
:104F800018681844884207D00CF1030020F007008D
:104F9000001D411A521A0146081D0A60FFF72FBF73
:104FA00010B500F039F8BDE8104000F02FB8704798
:104FB0007546FFF7D3FFAE4605006946534620F01D
:104FC0000700854618B020B5FDF77AFABDE8204005
:104FD0004FF000064FF000074FF000084FF0000BB5
:104FE00021F00701AC46ACE8C009ACE8C009ACE868
:104FF000C009ACE8C0098D46704710B50446AFF350
:1050000000802046BDE81040FBF7DDB8002801D045
:1050100000F02AB87047000010B5012805D0002123
:1050200003A000F027F8012010BD09A1F8E7000057
:1050300053494752544D454D3A204F7574206F6681
:105040002068656170206D656D6F727900000000E9
:105050003A2048656170206D656D6F727920636FCD
:10506000727275707465640001491820ABBEFEE76A
:105070002600020070B505460C460A2000E06D1CB3
:1050800000F011F835B128780028F8D102E0641C4E
:1050900000F009F814B120780028F8D1BDE870407C
:1050A0000A20AFF3008008B569468DF800000320A0
:1050B000ABBE08BD490050EAC12018BF04204A0D0C
:1050C00018BF40F0010040F2FF72B2EB515F08BF21
:1050D00040F00200012808BF052070472DE9F74F76
:1050E000144694B00021C4E902111599079121F0EA
:1050F0000045C9498D4206DC1599C4E9000117B085
:105100000020BDE8F08FC549DFF814A3A9423CDDBB
:105110000799C44E0029C44FC44A1599534619DD56
:1051200002F026FA554506D0C14AC24B02F020FAD9
:10513000C4E900010AE04FF0D352BE4B02F018FA66
:1051400032463B4602F014FAC4E9000117B00120D0
:10515000BDE8F08F01F0D2FC554506D0B44AB54BFE
:1051600001F0CCFCC4E900010AE04FF0D352B14B8E
:1051700001F0C4FC32463B4601F0C0FCC4E900012A
:1051800017B04FF0FF30BDE8F08FAB49A942159939
:1051900078DB21F0004183468846A84AA84B01F0FD
:1051A000C1FF0022A74B01F0A9FC01F0F7FE099016
:1051B00001F051FF06460F469C4A534601F0B2FFEC
:1051C00043465A4602F0E2F880468A46984A994B8E
:1051D0003046394601F0A6FF2A0D01250B924246C2
:1051E000534602F0D3F8032DC4E9000139D00B98DF
:1051F000C1F30A51401A05EB45111139814230DAE9
:105200009148C346784400EB0510CDF80CA00C90F3
:10521000D0E900233046394601F084FF02460B46B0
:10522000049106905846039902F0A2F980468A46F6
:1052300002460B465846039902F09AF9049B069AD7
:1052400002F096F983460C9803913946D0E902237F
:10525000304601F067FF5A46039B02F089F96D1C46
:10526000BDE707980028A2BF099817B0BDE8F08FE6
:10527000616881F000416160099817B04042BDE863
:10528000F08FFFE784461598C1F31301C0F30A506D
:10529000A0F2F5304FEA601800F01F06C6F12000BA
:1052A000139000200690079041F4801E05206D4663
:1052B00076B1664A08EB00017A4452F8213002EBDD
:1052C0008101B3404A68139922FA01F1194305E0BC
:1052D0005F4908EB0002794451F82210A1FB0E2728
:1052E000A1FB0C131A449A4234BF0123002303EBA1
:1052F000070A05EB8003D3E901B70F448F4234BF9F
:105300000121002193448B4411B1934502D903E05C
:10531000934501D2012100E00021C3E901B75144C6
:1053200045F82010011EA0F10100C1DC0298059F84
:1053300000F10050800F12900298DDE903568000C2
:1053400001F089FE834628460D9101F09BFE6FF027
:105350001D0202F094FDCDE90E01304601F092FEEF
:105360006FF03D0202F08BFD80468A46384601F020
:1053700089FE6FF05D0202F082FD07464246534609
:10538000119101F0BBFBDDE90E2301F0B7FB5A469A
:105390000D9B01F0B3FB00250E465A4628460D9B97
:1053A00002F0E6F8DDE90E2302F0E2F84246534649
:1053B00002F0DEF83A46119B01F0E8FFDFF898A012
:1053C000244A534601F0AEFE07468846234A244B42
:1053D0003146284601F0A6FE3A46434601F08EFBD0
:1053E000074688464FF0A84253463146284601F00A
:1053F00099FE3A46434601F081FB159A12F0004FA0
:1054000004D0129A81F0004152421292C4E9000184
:10541000129817B0BDE8F08FFB21E93F7CD902401C
:10542000FB21F93F7370032E8A19A33B00004054FF
:105430003163621A61B4D03DFB21394183C8C96D23
:10544000305FE43F0000E03F103C00008C3B000078
:105450006E3B0000182D4454FB21F93D3326A61164
:10546000460B113C2DE9FF4D21F0004807460C4644
:10547000B8F1795F08DA01F091FD002801BF002042
:10548000324904B0BDE8F08D3A462346104619462D
:1054900001F048FE054602462D480E460B46062101
:1054A000784400F05DF82A46334601F03BFEDDE922
:1054B000022382468B463846214601F033FE0446DD
:1054C0000F4652465B462846314601F02BFE2246E7
:1054D0003B4602F04DF807468A464FF0FF32284619
:1054E000314602F0CCFC1B4A90450ADA3A46534654
:1054F00002F03EF804B00022BDE8F04D134B01F07D
:1055000045BF154A4245A8BFA8F500154FF0000455
:10551000B8BF124D22462B4602F02AF806468846AE
:1055200022462B460020094902F022F804460D4687
:105530003A4653463046414602F01AF804B0224635
:105540002B46BDE8F04D01F021BF00000000F03F08
:10555000043900003333D33F0000E93F0000D23F5D
:105560002DE9F0414F1E00EBC7010446D1E90001CF
:1055700015461E4637F006020DD02A46334601F086
:10558000D1FD7F1E04EBC703D3E9002301F0B6FA77
:1055900037F00602F1D1022F25D0042F13D0062FA9
:1055A00018BFBDE8F0812A46334601F0BBFDD4E9BF
:1055B0000A2301F0A3FA2A46334601F0B3FDD4E9E9
:1055C000082301F09BFA2A46334601F0ABFDD4E9EB
:1055D000062301F093FA2A46334601F0A3FDD4E9ED
:1055E000042301F08BFA2A46334601F09BFDD4E9EF
:1055F000022301F083FA2A46334601F093FDD4E9F1
:105600000023BDE8F04101F079BA00002DE9FF4D1B
:10561000054621F0004084B00C46B0F1795F0BDA0A
:105620002846FFF747FD042808BF00F0BDF92846CB
:1056300008B02146BDE8F08D2A460B46104601F021
:1056400071FD06460F462A46234601F06BFD804653
:1056500026488A4632463B4605217844FFF780FFBC
:1056600083461098029160B3214A224B404651462E
:1056700001F058FDCDE900015A4640465146029BD3
:1056800001F050FD82468846DDE906014FF0FF3209
:1056900002F0F5FB5246434601F06AFF32463B46B4
:1056A00001F040FDDDE9062301F062FFDDE90023A2
:1056B00001F05EFF08B02A462346BDE8F04D01F038
:1056C00065BE0B465A463046394601F02BFD084A66
:1056D000084B01F013FA4246534601F023FD08B08F
:1056E0002A462346BDE8F04D01F008BA8238000092
:1056F000495555555555C5BF2DE9F04D04468CB05B
:10570000904821F00047164698460D460991874279
:1057100006DA2046294601F041FC002800F0AE8060
:105720008948B8421CDC09980028BCBF85F00045B8
:1057300088F00048854A864B2046294601F026FE1F
:1057400004460D46324643468248834901F010FF25
:1057500022462B4601F0D2F9002604460D46B046FB
:1057600022462B461046194601F0DCFC8B46824649
:1057700002460B4601F0D6FC0246089077480B46DD
:10578000009106217844FFF7EBFECDE90310744841
:1057900006217844009B089AFFF7E2FE52465B46DA
:1057A00001F0C0FCCDE9051052465B462046294673
:1057B00001F0B8FC07910090DDE90310DDE9053246
:1057C00001F09CF9079B009A01F0ACFC324643467D
:1057D00001F094F952465B4601F0A4FC3246434680
:1057E00001F08CF980460E465E4A5F4B079900989F
:1057F00001F098FC4246334601F080F982468B4620
:1058000022462B4601F07AF980464F480E46B842B0
:1058100014985BDC01F01FFC0746424633460591B5
:1058200001F06CF9CDE901104246334610461946A5
:1058300001F078FCDDE9013201F01CFA52465B46CA
:1058400001F096FE22462B4601F0A0FD012202F057
:1058500016FB3A46059B01F099FD04460D46099852
:10586000022101EAA070C0F1010001F0F4FB0CB0CC
:1058700022462B46BDE8F04D01F054BC1498401C64
:10588000384320430BD01498012812D00CB0224684
:105890002B46BDE8F04D0020344901F0EBB90CB0C7
:1058A00025F000432246BDE8F04D0020304901F0CC
:1058B000E1B920462946FFF7FDFB042808BF00F0A8
:1058C00073F820460CB02946BDE8F08D012802BFD0
:1058D00040460CB0BDE8F08D00270B463A46204606
:1058E000294601F053FD52465B4601F04FFD044648
:1058F0000D464246334600201C4901F0BBF9834661
:105900003A4688463346104601F00CFC0022184BFC
:1059100001F0F4F806468A4622462B4638464146B0
:1059200001F000FC3246534601F0E8F85A4643467F
:1059300001F0F8FB0CB03A464346BDE8F04D01F0EB
:10594000DDB800000000303E2894E53F182D445497
:10595000FB21E93F075C143326A6813C8037000019
:10596000A2370000635555555555D53F0000F0BF8F
:105970000000F03F002213461046014901F07AB9B9
:105980000000F03F012202F07ABA01F0B7B800221D
:1059900013461046114601F06DB940F20132002065
:1059A0004FF0E04102F06BBA024A0020110702F00A
:1059B00066BA000001FDFFFF2DE9F041C1F30A5274
:1059C000A2F2FF362F4A304B0D460446142E2FDA32
:1059D000002E12DA01F092F80022134601F0A0FC2A
:1059E0004CD2002DBCBF4FF00045002446DB55EAE9
:1059F000040018BF254D19D140E0DFF894C02CFAFF
:105A000006F705EA070C5CEA040C08BFBDE8F08164
:105A100001F074F80022134601F082FC2ED2002D12
:105A200003DD4FF48010F0400544BD43002425E021
:105A3000332EC8BFBDE8F081A6F1140C4FF0FF373C
:105A400027FA0CF73C4208BFBDE8F08101F09EFC4C
:105A50000022134601F064FC10D2002D0DDD142E3F
:105A600008BF6D1C09D0C6F13400012101FA00F015
:105A70002044A04238BF6D1C0446BC432946204642
:105A8000BDE8F0819C7500883CE4377E0000F03F63
:105A9000FFFF0F0000B5244B21F0004287B09A426F
:105AA000DCBF0022134629DD204B9A4208D140B9C1
:105AB0004FF00100FFF74BFAFFF769FF07B000BD99
:105AC00003DBFFF75FFF07B000BD02AAFFF706FB8D
:105AD00010F0030104BF0DF1080C9CE80F000DD07D
:105AE000012001290ED0022914D00DF1080C0090DC
:105AF0009CE80F00FFF78AFD07B000BDFFF7B2FC7E
:105B000007B000BD0DF1080C00909CE80F00FFF7F6
:105B10007DFD05E00DF1080C9CE80F00FFF7A2FCED
:105B200007B081F0004100BDFB21E93F0000F07F9C
:105B30002DE9F04DC84A002490B0914205DA21F0D9
:105B40000043934201D805D120B110B0BDE8F04D1B
:105B5000FFF718BFB1F5801F1BDA53EA000209D026
:105B6000002911DA0120FFF7F2F910B0BDE8F04D7D
:105B7000FFF70DBF0220FFF7EAF9FFF7FBFE10B0B9
:105B800081F00041BDE8F08D6FF03504362202F05F
:105B900076F904EB2152C1F31308B049A2F2FF33A6
:105BA000414401F4801282F07F6103EB225281F0C4
:105BB0004051009241EA08010022A94B01F0D8FCB3
:105BC000044608F10200A74EC0F313000D467E44C0
:105BD000032867D2D6E90023204601F0A3F91ED19D
:105BE0000098002802BFD6E9000110B0BDE8F08D92
:105BF00001F031FA07460C469B4A9C4B01F092FAA1
:105C000006460D469A4A9B4B3846214601F08AFAD1
:105C100010B032462B46BDE8F04D00F06FBF4FF09C
:105C20005532954B2046294601F07CFA0022934BD1
:105C300001F0ACFB06460F4622462B46104619469D
:105C400001F070FA32463B4601F06CFA06460098C5
:105C50000F46F0B101F0FFF980468A46824A834B35
:105C600001F060FA32463B4601F090FB22462B469B
:105C700001F07EFC05460C467D4A7E4B404651466F
:105C800001F050FA10B02A462346BDE8F04D01F06D
:105C90006FBC0B4610B0324620462946BDE8F04D99
:105CA00001F066BC00224FF08043204600F026FF42
:105CB00002460B462046294600F0DCFF06460F460A
:105CC000009801F0C8F9CDE9040132463B46104680
:105CD000394601F027FA0C9069480C9A404401902B
:105CE00009910B46104601F01DFA824602466548AE
:105CF0008B46C8F151080B4608F5D7280321784494
:105D0000FFF72EFC52465B4601F00CFA0A905E4803
:105D10000D9152465B4604217844FFF721FC099B14
:105D20000C9A01F0FFF9844601980D9B40EA08089F
:105D300060460A9A00F0E2FE83460891B8F1000F2F
:105D40004EDD4FF0FF322046294602F098F82246F9
:105D50002B4601F0E7F9804600988A4660B3DDE9FA
:105D60000401414A414B01F0DDF9099100905A4686
:105D700040465146089B00F0C1FE32463B4601F0CA
:105D8000D1F9099B009A00F0B9FE4246534601F052
:105D9000FDFA22462B4601F0EBFB04460D46DDE9F9
:105DA0000401334A334B01F0BDF910B022462B46B3
:105DB000BDE8F04D01F0DCBB5A464046089B00F0C0
:105DC0009DFE32463B4601F0ADF94246534601F096
:105DD000DDFA10B022462B46BDE8F04D01F0D6BAF0
:105DE000009840B3DDE904011F4A204B01F09AF905
:105DF00080468A465A4620462946089B01F0B8FB51
:105E000032463B4601F08EF94246534601F0B0FB64
:105E100022462B4601F0ACFB04460D46DDE90401A9
:105E2000134A144B01F07EF910B022462B46BDE810
:105E3000F04D01F09DBB0B465A462046294601F025
:105E400097FB32463B4601F06DF910B022462B46D7
:105E5000BDE8F04D01F09ABA0000F07F645F0900E0
:105E60000000F03F3E320000763C7935EF39EA3DE4
:105E70000000E0FE422EE63F5555D53F0000E03FD2
:105E800086EBF9FFD6300000D43000002DE9F04158
:105E9000044630480025814205DA21F00042824262
:105EA00001D805D124B12046BDE8F041FFF76ABD15
:105EB000B1F5801F1BDA52EA040008D000290FDA7E
:105EC0000120FFF744F8BDE8F041FFF760BD022074
:105ED000FFF73DF8FFF74EFD81F00041BDE8F0818E
:105EE0006FF035053622204601F0C9FF044605EB68
:105EF0002150A0F2FF32D00F40F2FF331B1A0D46A3
:105F000063F31F55104401F0A6F806460F462946D4
:105F10002046FFF70DFE104A104B01F003F904462E
:105F20000D460F4A0F4B3046394601F0FBF822462A
:105F30002B4600F0E3FD05460C460B4A0B4B304662
:105F4000394601F0EFF82A462346BDE8F04100F05B
:105F5000D5BD00000000F07F0EE526157BCBDB3FB2
:105F6000362BF111F3FE593D00609F501344D33F8F
:105F70002DE9F04D1D460C4698B0174621F0004122
:105F800023F00043002814BF4FF0010C4FF0000C29
:105F90000CEB440CFE4A0CEB02064FEA620C664521
:105FA0002BD33E0018BF012606EB45061644F94ADE
:105FB000964222D3F84A53EA070C02D0944205D104
:105FC00048B918B000201146BDE8F08D002808BF80
:105FD0004FF0000C01D04FF0010C0CEB440212F515
:105FE000001F0AD8002F14BF4FF0010C4FF0000C17
:105FF0000CEB450212F5001F07D918B03A462B46A4
:106000002146BDE8F04DFFF7C0BC0022DFF88CA3AD
:10601000002CB8BF534526DADFF884C36345A8BF18
:10602000022220DADFF870C39C451CDCDFF874C361
:106030000CEB235CBCF1140F08DDCCF1340627FA1D
:1060400006FC0CFA06F6BE420DD108E05FB9CCF1B1
:10605000140623FA06FC0CFA06F69E4203D10CF055
:106060000102C2F1020251EA000C19D1002D17DA27
:10607000002C18BF022A01D0012A07D00220FEF707
:1060800066FF18B0BDE8F04DFFF774BC0220FEF7C4
:106090005EFFFFF76FFC18B081F00041BDE8F08DA6
:1060A000B7F1000C6CD1534525D104F1804212F5B3
:1060B000801201BF00280020B74918B008BFBDE812
:1060C000F08DB548884207DC002DA1BF6046294607
:1060D00018B0BDE8F08D07E0281E05DA80F0004119
:1060E00018B06046BDE8F08DAF497944D1E90001B0
:1060F00018B0BDE8F08DDFF8A0C2634525D1002DB2
:106100001FDA19B1514512D1D8B909E0002840F081
:10611000EC82A24A214618B062F31E01BDE8F08D60
:106120000020214618B060F31E01BDE8F08D08DAAA
:1061300018B02346BDE8F04D02460020614600F04D
:1061400099BD18B02146BDE8F08D514518DAB5F17A
:10615000804F0DD0A5F1005CBCF1FF5C10D1B4F113
:10616000000C0DDB18B06146BDE8F04D00F03CBC02
:10617000234618B00246BDE8F04D194600F0D2BFE4
:10618000060024F0004C3BD1D9B1514533D1002C4D
:1061900006DD002DA1BF0020514618B0BDE8F08DEE
:1061A000002C01DD002D1BDB002C13DA002D11DB90
:1061B000012A4FF0000014BF78497C4918B0BDE8AF
:1061C000F08D022A18BF002C0AD0012A08D1002C19
:1061D00006DA0AE0002CB8BF002D11DA012A04D03B
:1061E000002018B00146BDE8F08D18B000204FF037
:1061F0000041BDE8F08DA1F14050B0F17F601AD0B0
:10620000012000EBE47050EA020421D0624C521EDF
:106210004FF0000B104304BF4FF0000B644C654877
:1062200083427CDD644A654893421FDD884217DB68
:10623000002D25DB37E0002C00DA4AB1022A0CBF22
:1062400001204FF0FF3018B0BDE8F04D00F003BF63
:106250000120FEF77CFE18B0BDE8F04DFFF797BBBC
:106260004D4A8A4202DC002D0ADC1CE0814202DA3F
:10627000002D18DA04E0484B994220DD002D12DD94
:106280000220FEF764FEFFF788FB05460E4600225B
:1062900053465846214600F045FF18B066F31E01EC
:1062A0002846BDE8F08D0220FEF751FEFFF77CFB8B
:1062B0000A46214618B062F31E01BDE8F08D0022A7
:1062C0003046614601F054F980460E466FF00102F7
:1062D00001F0D5FD4FF05532394B01F057F84246E9
:1062E000334600F01FFF0022364B01F04FF8824684
:1062F0004246334604911046194600F013FF5246B9
:10630000049B00F00FFF8A4600904FF0C0422E4BD6
:106310004046314600F006FF2C4A2B4B00E027E0B8
:10632000CDE906015146009800F0FCFE824601913D
:10633000274A284B4046314600F0F4FE5246019B66
:1063400001F016F982460B4602460591DDE9060189
:1063500000F0D4FBDDE9062300268846304601F034
:1063600007F95246059B01F011F8024600F07EB98C
:106370000020B1F5801F07DA35223046614601F072
:106380007EFD06466FF0340000EB215024E0000053
:10639000FFFF1F00FFFF0F000000F03F0000F07F35
:1063A0000000404301FCFFFF222D00000000F0FF31
:1063B0000000F0BF0000E0410000F043FFFFEF3FAE
:1063C0005555D53F0000E03F4715F73FFE822B654E
:1063D00044DF5DF80BAE543EA0F2FF300190C1F3F4
:1063E000130040F07F6141F040510291FE49884224
:1063F000D8BF002004DDFD498142C8BF012001DD76
:106400000D9008E000200D900198401C019002982A
:10641000A0F5801002900299F54878440B910D99EF
:1064200000EBC100D0E900230F9330460A920B998C
:1064300001F09EF8CDE90601DDE90A2130460F9B07
:1064400000F05CFB02460B460020EA4900F012FC1B
:10645000059102460B460090DDE9060100F062FE60
:106460001490E5488A464FF0000878440299006885
:1064700012904FF0005040EA61010D980F9B01EB24
:10648000804000F5002109910A9A129801F070F8F5
:1064900032460B9B00F07AFF4246534600F042FE24
:1064A0000646029140465146099B129A00F03AFE78
:1064B000DDE9062300F06AFF3246029B01F058F83E
:1064C000059B009A00F02EFE0091149A049053460A
:1064D0001046194600F026FE06460246C7480B46FF
:1064E000029106217844FFF73BF8CDE90510029BA5
:1064F00032461046194600F015FEDDE9053200F07F
:1065000011FE05910646534640461946149A00F07E
:10651000F5FA009B049A00F005FE3246059B00F058
:10652000EDFACDE90510424653461046194600F0F3
:10653000F9FD0022B24B02910A9000F0DFFADDE98A
:10654000053200F0DBFA0E464246AD4B404601F004
:106550000FF8029B0A9A01F00BF8DDE9053200F012
:1065600015FF424602910A9033461046514600F00C
:10657000D9FDCDE906015346149A02990A9800F014
:10658000D1FD8A460290334642460099049800F0B5
:10659000C9FD5346029A00F0B1FA82460B46024604
:1065A0000591DDE9060100F0A9FADDE906230020E6
:1065B0008846064600F0DCFF5246059B00F0E6FEEA
:1065C000824609914FF060428E4B3046414600F0C2
:1065D000A9FD049006918C4A8A4B5046099900F017
:1065E000A1FD82460291894A894B3046414600F01E
:1065F00099FD5246029B00F081FA864B7B440D9A2E
:1066000003EBC203D3E9002300F078FA0E90079160
:10661000019800F020FD0591DDE9061382460E9AEF
:10662000049800F06BFA7C4A7A440D9B02EBC3039A
:10663000D3E900230093029200F060FA5246059BD2
:1066400000F05CFA0026884652463046059B00F072
:106650008FFF009B029A00F08BFF069B049A00F0CC
:1066600087FF079B0E9A00F091FE024600200B4622
:1066700002903846294600F055FD824601912B468E
:1066800038461946029A00F073FF3246434600F03E
:1066900049FD5246019B00F031FA07468A463246D0
:1066A00043462946029800F03DFD05460E463A460F
:1066B000534600F023FA594A8846914221DBA8EB61
:1066C000020353EA000210D12A46334600F050FF7D
:1066D000CDE90401524A534B3846514600F00EFAB8
:1066E000DDE9042300F01CFE21D20220FEF72FFC7E
:1066F000FFF753F90A46214618B062F31E01BDE8C0
:10670000F08D494B28F000429A4210D3474A08EBDB
:10671000020353EA00027FF4C6AD2A46334600F076
:1067200027FF3A46534600F0FBFD7FF6BCAD002242
:10673000019228F000403E493E4A01EB205182423E
:1067400023DA481C4FF4801121FA00F040443A4A01
:10675000C0F30A517A44394BA1F2FF31CB4020EA11
:106760000303C0F3130040F48010C1F11401C840CA
:1067700012680190B8F1000FBCBF4042019028465A
:10678000314600F0F5FE05460E462A4633463846A9
:10679000514600F0B3F94FF000084246284B4046FE
:1067A000059100F0BFFCCDE90601264A264B404684
:1067B000059900F0B7FC009102902A463346404606
:1067C000059900F0D5FE3A46534600F0DFFD1F4A1A
:1067D0001F4B00F0A7FC009B029A00F08FF90746C0
:1067E000884602460B4635E08E9803007AB60B00C9
:1067F000022900000000F03FA229000068280000E4
:106800000000084009C7EE3FFD033ADCF5015B14C8
:10681000E02F3EBE4027000004270000000090400B
:10682000FE822B654715973C00CC904000346F3FAB
:1068300001FCFFFF0000E03FB8260000FFFF0F0053
:10684000432EE63F396CA80C615C20BEEF39FAFE9E
:10685000422EE63FDDE9060100F050F9DDE90623AE
:1068600005460E4600F084FE3A46434600F08EFD93
:106870000F462A46334600901046194600F052FC57
:10688000824602462E4888460B4605217844FEF78C
:1068900067FE5246434600F045FC2A46334600F068
:1068A00075FD80468A463B4628463146009A00F0F0
:1068B00039FC3B46009A00F021F906910090002235
:1068C0004FF080434046514600F052FE0F460C9078
:1068D000424653462846314600F024FC3B460C9A7B
:1068E00000F0C8F9069B009A00F042FE2A463346A3
:1068F00000F03EFE0022134B00F048FD05460198D3
:106900000E4601EB00510815002810DC28463146E0
:10691000019A01F0B4FAFEF7CDFB042808BFFFF797
:1069200043F828463146019A01F0A9FA05460B467C
:1069300018B02A4658462146BDE8F04D00F0F2BB9B
:10694000F02400000000F03F00B5254B21F000428C
:1069500087B09A4203DC0022134600922BE0214BC1
:106960009A4208D140B94FF00100FEF7F0FAFFF764
:106970000EF807B000BD03DBFFF704F807B000BD59
:1069800002AAFEF7ABFB10F003014FF001000DD09F
:10699000012914D002291AD00DF1080C9CE80F002F
:1069A000FEF760FD07B081F0004100BD0DF1080C5D
:1069B00000909CE80F00FEF729FE07B000BD0DF126
:1069C000080C9CE80F00FEF74DFD07B000BD0DF16F
:1069D000080C00909CE80F00FEF718FEE2E70000AC
:1069E000FB21E93F0000F07F2DE9F04106460F460C
:1069F00000F0D8FC041E0D4618BF0120284320F0EB
:106A00000040C0F17F6000F1E040C00F0ED0301CAC
:106A100018BF0120384320F00040C0F17F6000F132
:106A2000E040C00F04BF0120FEF791FA204629463E
:106A3000BDE8F08110B5164B21F00042012486B06C
:106A40009A4203DC0022134600941CE0114B9A4248
:106A500008D140B94FF00100FEF779FAFEF797FF31
:106A600006B010BD03DBFEF78DFF06B010BD02AA15
:106A7000FEF734FB00F00100A4EB40000DF1080C20
:106A800000909CE80F00FEF737FE06B010BD000036
:106A9000FB21E93F0000F07F21F00042A2F16052AB
:106AA000B2F5801F01F0004328BFD2F17F6C0BD9F3
:106AB0005FEA001C43EAC20242EB507018BF704705
:106AC00028BF20F001007047B2F5801FBCBF1846F8
:106AD00070474FEA410C1CF5001F02D2084601F036
:106AE000F0B870B500F0C8FB00000089FFF7F6BFF2
:106AF0004FF00040A0F580007047000010B591EA0B
:106B0000030F48BF83F0004300F13A85841A71EB0C
:106B1000030C05D2121943EB0C03001B61EB0C01B3
:106B2000DFF824E14FEA1154A4EB135C1EEA430F93
:106B300018BF9EEA445F73D023EA0E03DCF1200EF7
:106B400021EA045143F4801332D322FA0CFE10EBF5
:106B50000E0023FA0CFE41EB0E01CCF1200E03FADD
:106B60000EFE10EB0E0051F10001B1F5801FCCF1CB
:106B7000200E32D201EB045112FA0EF2BDE81040A1
:106B800058BF7047401C38BF5FEA420218BF7047C9
:106B9000002814BF20F0010041F100014FEA410339
:106BA00013F5001F38BF7047A1F1C04100F0B2BB20
:106BB000012A43EB0302ACF1200CDCF11F0E32BFC3
:106BC0004FF0000E23FA0CF310EB030041EB0451DD
:106BD000B4EB115FD0D0A1EB045101F5801149084D
:106BE0005FEA300001EB04510ED350F1000038BFD2
:106BF00012FA0EFE08D1BDE81040C9E7401C38BFAC
:106C00005FEA4202CAD1C3E7BDE810404FEA410340
:106C100013F5001F38BF7047A1F1C04100F07ABBE7
:106C20009EEA445F08D011EA5E0FBDE8104004BF41
:106C300001F0004100207047BDE8104070B500F041
:106C40001BFB00BF64FBBE3E0000E0FF02494FF0AB
:106C5000000001F0E2B800BF0000F87F491058BF03
:106C6000C1F140415B1058BFC3F140438B42EFF389
:106C7000008070472DE9C04130B4DFF8A0C23CEA83
:106C8000111418BF3CEA131400F0EC8081EA0305EC
:106C90001CEA111444EAD57418BF1CEA131500F05D
:106CA000C780A4EB05044FF0004545EAC12145EA41
:106CB000C32341EA505143EA525304F17F7499428D
:106CC00004F500344FEAC0204FEAC22208BF9042C8
:106CD00000F09C804FEA13650FF24016765D4FEA94
:106CE000134506FB05F7C7F1807706FB07F74FEA68
:106CF000D737A7FB03687642C8F58038A7FB06CED6
:106D000038BFA8F1010807FB08E64FF0000EA6FB0C
:106D1000028CE6FB03CEDCF1000CCEF1004E38BF56
:106D2000AEF1010EA6FB0C584FF000074FF0000526
:106D3000E6FB0E87A1FB08C6A0FB07CE16EB0E06EE
:106D400045F10005E1FB076515F1E04E7EBFA4F5B6
:106D500080345FEA46066D4116F1800745F1000573
:106D60004FEA17274FEA066647EA0567A6F1DE46AF
:106D7000B6F1805F4FEA15251FD9384624F0010C83
:106D800005EBC471BCF1FE6F01EB0C1102D8F0BC35
:106D9000BDE8008124425CBF01F5801E9EEAC47FED
:106DA00002D4F0BCBDE80081244238D4F0BCA1F18B
:106DB000C041BDE8004100F0ADBA4FEAD22242EA3C
:106DC00043524FEAD323A7FB02864FEAD02040EA82
:106DD000415007FB03661EEA0E0F4FEAD12105FB67
:106DE000026658BFA6EB0056B6EB00564FEA520EAD
:106DF0004EEAC37E18EB0E0E56EB530EBDD518EBC4
:106E000002085E417F1C55F10005B6E74FF480157E
:106E10004FF000074FF000064FF00008ADE7F0BC60
:106E20004FF0000001F1C04101F00041BDE80081D8
:106E300011EA0C1F0CEA131500D00CE013EA0C1F2A
:106E400000F025804FF00000F0BC81EA030101F062
:106E50000041BDE80081F0BCBDE8004181EA0301CA
:106E600000F058BAF0BCBDE8004170B500F004FA7B
:106E7000097EFC3E00F007B881EA03014FF00000F4
:106E800001F00041704781EA030100F043BAF0BC11
:106E9000BDE800414FF0000021497047FFFDFBF9BC
:106EA000F7F5F4F2F0EEEDEBE9E8E6E4E3E1E0DE3D
:106EB000DDDBDAD8D7D5D4D3D1D0CFCDCCCBCAC8AF
:106EC000C7C6C5C4C2C1C0BFBEBDBCBBBAB9B8B7D6
:106ED000B6B5B4B3B2B1B0AFAEADACABAAA9A8A8C9
:106EE000A7A6A5A4A3A3A2A1A09F9F9E9D9C9C9B97
:106EF0009A99999897979695959493939291919042
:106F00008F8F8E8E8D8C8C8B8B8A898988888787D2
:106F10008685858484838382828181800000FF0747
:106F20000000F87F51EA030C17D41CF5801F58BFEE
:106F3000BCF5801F00F10680994218BF704708BF5A
:106F40009042704707D711F5801F58BF13F5801F77
:106F500019D499427047894270471CF5801F08D5A3
:106F6000BCF5801FF7D58B4218BF704708BF82421F
:106F700070474FF4001C1CEB410F38BF1CEB430F54
:106F800001D28B42704770B500F076F99224490027
:106F90004FF000514FF08053FFF760BE4FEA4103BE
:106FA0004FEA5353A3F58063D3F11E03C8BFD3F157
:106FB000210C0CDD4FF0004242EAC12242EA50525D
:106FC00032FA03FC8CEAE17CACEBE1707047102BE9
:106FD000C4BF0020704703F5787CBCF1FF3F04D0AC
:106FE0006FF0004282EA2100704770B500F044F96A
:106FF0004992248000207047F2E700004FEA1153C5
:10700000A3F58063D3F11E03A8BFD3F1200C08DBE6
:107010004FF0004242EAC12252EA505232FA03F0E3
:10702000704709420BD4102BC4BF0020704703F5F2
:10703000787CBCF1FF3F05D04FF0FF3070474FF038
:107040000000704770B500F017F900BF4992248026
:1070500000207047F0E710F0004248BF4042B0FA0D
:1070600080F310FA03F10AD0C3F11D0303F5806326
:107070004FEA415002EB035202EBD12170474FF02F
:1070800000007047B0FA80F310FA03F10AD0C3F1A0
:107090001D0303F580634FEA41504FEA035202EBB0
:1070A000D12170474FF000007047000051EA030CF7
:1070B00017D41CF5801F58BFBCF5801F00F1068057
:1070C000994218BF704708BF9042704707D711F523
:1070D000801F58BF13F5801F19D499427047894209
:1070E00070471CF5801F08D5BCF5801FF7D58B4273
:1070F00018BF704708BF824270474FF4001C1CEB5A
:10710000410F38BF1CEB430F01D28B42704770B563
:1071100000F0B2F8922449004FF000514FF0805334
:10712000FFF79CBDDFF848C170B51CEA111E1EBFF9
:107130001CEA13159EEA0C0F95EA0C0F00F06F8005
:1071400081EA030423EA4C134EEAD47E21EA4C116F
:1071500041F4801143F48013AE44A1FB024CA0FB28
:107160000365AEF17F7E361955EB0C05A1FB034C90
:107170004CF10003A0FB021C16EB0C06654153F119
:107180000003094218BF46F0010613F4007F0BD13B
:107190004FEA03314FEA0530340341EA155140EA22
:1071A00016506FF003020AE04FEAC3214FEAC520F0
:1071B000F40241EA555140EA56506FF0020202EBE8
:1071C0002E4201EB025585EACE710AD05FEA440CEB
:1071D00018BF24F0004450F1000041F1000120EA02
:1071E000D47040F2FE7C624500D270BDA84214BF4C
:1071F0004FF080444FF04044002E08BF0024BEF101
:10720000806FA8BFA1F1C041BDE8704080F28280CC
:107210004FF0000001F1C04101F0004170479EEACB
:107220000C0F0CEA131518BF95EA0C0F06D04FF09F
:10723000000081EA030E0EF0004170BD00F01CF862
:107240008900013E00F007B800F009B84FEA430C8E
:107250005FEA5C5C08D081EA030100F05BB84FEAAA
:10726000410C5FEA5C5CF6D14FF0000001497047C9
:107270000000FF070000F87F0EF1020E2EF0030E53
:107280005EF8046B364205D4012A43EB030515F57D
:10729000001F12D8012841EB010C1CF5001F0CD86F
:1072A0000ED14FEAD17C15F5001F0CEB4C0C0CF104
:1072B000020C08BF4CEBD37C04E04FF0080C01E05B
:1072C0004FEAD37C0CEB4C0526FA05F606F00706D0
:1072D000B6F1040C06D20EEB860CBDE870404CF003
:1072E000010C6047DFE80CF0090B02024FF000418F
:1072F0004FF00000A1F5002170BD1946104601288D
:1073000051EB010418BFD4F5001484BF002001F034
:10731000004170BD0808A0F500114FEA3101704727
:1073200053EA010C17D41CF5801F58BFBCF5801F11
:1073300000F106808B4218BF704708BF8242704739
:1073400007D713F5801F58BF11F5801F19D48B4242
:1073500070479B4270471CF5801F08D5BCF5801F05
:10736000F7D5994218BF704708BF904270474FF455
:10737000001C1CEB430F38BF1CEB410F01D299429C
:1073800070470FB40CBC03BCFFF7C1BE91EA030FFA
:1073900010B581F000413FF5B9AB83F0004300F038
:1073A000EFB800002DE9F04101F5801CBCF5001F8D
:1073B000C0F2C3804FEA115C21EA0C510CF1FD0CC4
:1073C00041F480115FEA5C0C0CF5C07C01D34000F5
:1073D00049413DA4890241EA905187028E0E0A0C70
:1073E000A45D04FB04F602FB06F6C6F14046A4FBCE
:1073F0000662F60D46EA422606FB06F4A4FB0123CC
:107400005242C3F1404338BF5B1EA6FB0242002438
:10741000E6FB0324D20B42EA4446A6FB0623A1FB6B
:1074200002E2A3FB07E4A4184FF0000252F10002AD
:10743000E3FB01426442C2F1404E38BFAEF1010E9F
:10744000A6FB04234FF00002E6FB0E32A2FB03462C
:107450004FF00004B61954F10004E2FB0264A1FBF2
:1074600006E6A4FB07E816EB08064FF0000858F103
:107470000008E4FB01687642C8F1405838BFA8F123
:107480000108A2FB06E4A3FB08E52D194FF0000458
:1074900054F10004E2FB0854A1FB05E6A7FB04E855
:1074A00018EB06084FF0000656F10006E1FB0486D3
:1074B00018F1200556F10006A809A8F11B08B1092A
:1074C00008F03F08B8F10A0F40EA86601CD901EBCA
:1074D0000C51BDE8F08100BFFCF5EEE8E2DDD8D349
:1074E000CFCBC7C3C0BDB9B6B4B1AEACA9A7A5A335
:1074F000A19F9D9B9A9896959392908F8D8C8B8946
:107500008887868584838281A0FB006800FB01F266
:1075100008EB4208B8EB872807D5341858EB01046C
:10752000D5D5401C51F10001D1E7341A78EB0104A4
:10753000CDD4401E71F10001C9E75FEA4C0C5FEA4F
:107540009C5C0DD105D34FF0000001F00041BDE877
:10755000F081BDE8F04170B5FFF78EFE6DDBFFBE38
:10756000BDE8F0414FF00000004970470000F87F8F
:1075700010B591EA030F48BF83F000433FF5C6AA58
:10758000841A71EB030C07D212198CF0004C43EBF8
:107590000C03001B61EB0C01DFF8A4E14FEA11546E
:1075A000A4EB135C1EEA430F18BF9EEA445F00F091
:1075B000B08023EA6E03524221EA0451C3EB6E030A
:1075C00038BF5B1EDCF1200E25D322FA0CFE10EB37
:1075D0000E0043FA0CFE41EB0E01CCF1200E03FA33
:1075E0000EFE10EB0E0051F10001CCF1200E29D45B
:1075F00012FA0EF201EB0451BDE8104058BF70477B
:10760000401C1CBFB2F1004F704700280CBF491C42
:1076100020F00100704712EB020E43EB030218BF8B
:107620004FF0010E4EEA4202ACF1200CDCF11E0ECE
:1076300054D943FA0CFE10EB0E0051F1FF31CCF19E
:107640001E0ED5D50EF1010E12FA0EFE404141EB91
:10765000010101EB445C5FEA5C5C10D910EBDE7069
:1076600001EB045138BFBEF1004FBDE8104018BF18
:10767000704700280CBF491C20F00100704730D231
:107680004FEAD42C11F5001124F400641BD0B1FA98
:1076900081F20B3AA41AA41ED2F12003914030FAD1
:1076A00003F31943904001EBCC71002C01EB045122
:1076B000BDE81040A8BF704701F1C0414FF0000085
:1076C00001F000417047B0FA80F310FA03F100D1E5
:1076D00010BDE41A173C4805C90AE4E701EB045160
:1076E00010BD491001EB0451BDE810404FEA3000D5
:1076F00002E04FF0000170474A0008BF0042F8D096
:10770000B2F5001F28BF704701F000414FF00000A4
:1077100070479EEA445F07D011EA5E0FBDE8104053
:1077200004BF002100207047BDE8104070B5FFF78E
:10773000A3FD00BF40DFF63E83F0004110467047D6
:107740000000E0FF43004FEAD30C4FEA3C0C4340FB
:107750001FBF40070CF1605113F0FE4F70471CF043
:10776000006F03D100200CF0004170470CF0004383
:1077700043EA507010B540EACC0000F05CFA00BF5C
:10778000000000924FEA0001FFF7C4BD4FF0004136
:107790004FF00000A1F500217047000090EA010FB2
:1077A00048BF81F0004100F1CA82421A3CBF801AF2
:1077B00089184FEAD0524FF07F4C1CEA410FA2EBE0
:1077C000D15318BF9CEA026F00F03B804FF0004C91
:1077D0004CEA00204CEA012121FA03FC10EB0C0CCE
:1077E0001ED202F1FF325FEA1C2040EBC25038BFCC
:1077F00070471CF07F0F4FEA400C18BFBCF17F4F61
:1078000038BF7047C3F12003994008BF20F0010042
:10781000BCF17F4F38BF7047A0F1C04000F051BAB3
:107820004FEA3C00000A40EBC25028BF1CF0FF0F9B
:107830004FEA400CE6D018BFBCF17F4F38BF70470D
:10784000EAE79CEA026F05D010EA5C0F08BF00F07F
:107850000040704710B500F0EEF900BF64FBBE3E7B
:10786000401058BFC0F14040491058BFC1F14041DD
:107870008142EFF3008070474FF47F0C1CEAD01276
:107880001EBF1CEAD11392EA0C0F93EA0C0F00F012
:10789000858090EA010F48BF42F4807240F4000CEA
:1078A00041F400002CF07F4120F07F4000B5814280
:1078B000A2EB03020FF2081CACEB504EC0F100002B
:1078C0009EF800E04FEA4E0E00FB0EFC38BF490068
:1078D0004FEA2C1C02F5FA020CFB0EF34FEACE1E07
:1078E0004FEA112C4FEAC1210EEB635E42EB2242BC
:1078F0000EFB0CFC4FEA1C5300FB03114FEA112C4A
:107900004FEA01310EFB0CFC4FEADC4C00FB0C1182
:10791000C14228BF09184CEB03335DF804EB10EBB0
:10792000410143EBC250B2F57C0F38BF704729D5F7
:1079300012F0F00F1CBF00F1C04000F00040704793
:10794000008182838485868788898B8C8D8E8F9138
:107950009293959697999A9C9D9FA0A2A3A5A7A85C
:10796000AAACAEB0B2B3B5B7B9BCBEC0C2C5C7C988
:10797000CCCED1D4D7D9DCDFE2E6E9ECF0F3F7FAEC
:10798000FE0000004FEA400C0CF1807CBCF17E4F01
:1079900028BF7047B0F1C04000F093B990EA010FE2
:1079A0000CEAD11348BF42F48072624538BF634588
:1079B00007D213F47F0F16D080EA010000F00040D8
:1079C000704710B500F037F9097EFC3E00F005B8AD
:1079D00080EA010000F00040704780EA010000F0FA
:1079E000004000F06EB912F47F0F04BF02487047E8
:1079F00080EA010000F065B90000C07F41000B0E75
:107A0000D3F19E0208D950F400034FEA032323FA6E
:107A100002F048BF4042704710B500F00CF900BFBB
:107A200049922480002070476FF0004282EA2000D3
:107A300070470000C10DD1F19E0206DB4FEA002322
:107A400043F0004323FA02F07047004207D54FEAA3
:107A50004001B1F1FE4F02D24FF00000704710B567
:107A600000F0E9F849922480002070476FEA200076
:107A70007047000010F0004148BF4042B0FA80F368
:107A800010FA03F2C3F19D030BD051EAC35101EB8D
:107A90001220530638BF704700F1010008BF20F0E4
:107AA00001007047B0FA80F310FA03F2C3F19D03AE
:107AB0000AD0D90501EB1220530638BF704700F1F8
:107AC000010008BF20F001007047000050EA010CDF
:107AD00000F113801CF5000F58BFBCF5000F01D456
:107AE0008842704707D710F5000F58BF11F5000FF7
:107AF00015D488427047894270471CF5000F04D5A1
:107B0000BCF5000FF7D5814270474FF0807C1CEB2D
:107B1000400F38BF1CEB410F01D28142704710B5B6
:107B200000F089F8922449004FF000504FF0805146
:107B3000FFF796BE4FF47F0C1CEAD0121EBF1CEA62
:107B4000D11392EA0C0F93EA0C0F00F0478090EAF1
:107B5000010F48BF42F480724FF0004C4CEA002005
:107B60004CEA012102EB0302A0FB0113A2F5000283
:107B7000002918BF43F001035B0028BF4FEA33031D
:107B800042EB22425FEA132C4CEBC2502EBFBCEBFF
:107B9000436FB2F57C0F70474FEA036CBCF1004FA6
:107BA00008BF20F00100B2F57C0F38BF70470BD53D
:107BB00082F0FF0212F5803FC8BF704700F1C0405D
:107BC000D8BF00F00040704700F5000C5FEA4C0C95
:107BD00048BF7047B0F1C04000F073B890EA010FA1
:107BE0000CEAD11348BF42F48072624538BF634546
:107BF00004D280EA010000F00040704710B500F0A8
:107C00001AF800BF8900013E00F007B800F009B87B
:107C10005FEA410C5FEA1C6C08D080EA010000F0CA
:107C200050B85FEA400C5FEA1C6CF6D14FF00040A0
:107C3000A0F5800070470EF1020E2EF0030E5EF8E4
:107C4000044B244204D44FEA4102B2F17F4F11D8D1
:107C50004FEA4003B3F17F4F0CD80ED14FEAD07CEE
:107C6000B2F17F4F0CEB4C0C0CF1020C08BF4CEB4B
:107C7000D17C04E04FF0080C01E04FEAD17C0CEB22
:107C80004C0324FA03F404F00704B4F1040C06D204
:107C90000EEB840CBDE810404CF0010C6047DFE8AF
:107CA0000CF0070802024FF00040A0F5800010BD64
:107CB0000846420018BFD2F1807288BF00F0004031
:107CC00010BDFF2141EAD050C005704751EA000CB9
:107CD00000F113801CF5000F58BFBCF5000F01D454
:107CE0008142704707D711F5000F58BF10F5000FFC
:107CF00015D481427047894270471CF5000F04D5A6
:107D0000BCF5000FF7D5884270474FF0807C1CEB24
:107D1000410F38BF1CEB400F01D28842704780EA08
:107D2000010081EA000180EA0100FFF7F8BE0000CF
:107D300090EA010F48BF81F000413FF536AD421A8D
:107D400004D882F00042A0EB020011444FEAD05266
:107D50004FF07F4C1CEA410FA2EBD15318BF9CEAB5
:107D6000026F4AD04FF0004C4CEA00204CEA01214F
:107D700021FA03FCB0EB0C0C0FD412F0FE0F36D03E
:107D80005FEA4C001DD5001240EBC25038BF70476F
:107D90001CF03F0F18BF70470BE0A2F101025FEA31
:107DA0001C2040EBC25038BF70471CF07F0F18BF3B
:107DB0007047C3F12003994014BF401E20F001001A
:107DC000704780084FEA122308BF7047B0FA80FC62
:107DD000A2EB0C02CCF1280C60FA0CF093EA122F03
:107DE00004BF00EBC25070474FEAC3707047130ADC
:107DF0005FEADC1008BF7047F6E79CEA026F04D028
:107E000010EA5C0F08BF0020704710B5FFF713FFA2
:107E100040DFF63E81F0004070470CF00F03092B65
:107E200008BF082000F059800A2B0BD0082B18BF80
:107E3000704708BF1CF0400F0AD04FF000004FF011
:107E4000000170471CF0400F18BF4FF00040704712
:107E50001CF0100F08D020F0704300F07F4242EA7F
:107E6000D3014FEA4370704700F0604021F07F4239
:107E700042EA000201F07F4040EA727070474FF022
:107E8000FF0C4CF4E06C1CEA11531CBF9CEA030C81
:107E90009445C2BFDA4201EB02517047002B0DD06E
:107EA000BCF1000F0FD0002A01F00041A4BF41F047
:107EB000E04141F07F614FF00000704701F0004168
:107EC0004FF00000704750EA01334FF09B0C18BF91
:107ED0004CF0806C7EF4BAAE70471CF4801F11D059
:107EE0001CF4E02F03D06FEACC31490070474FF00B
:107EF0004050EFF3008222F0704242EA000282F327
:107F0000008870474FF0000070470000000000003C
:107F100089D2DE3A4260653BC364AA3B4260E53BDE
:107F2000728A0E3C31082C3C82E2473C4260653C40
:107F3000499D803C295C8F3C52499D3C7A36AB3C44
:107F40005AF5B93C82E2C73C62A1D63C8A8EE43C39
:107F50006A4DF33C499D003DB9FC073D4DF30E3D94
:107F6000E2E9153D52491D3DE63F243D569F2B3D1C
:107F7000EA95323D5AF5393DEEEB403D82E2473D10
:107F8000F2414F3D8638563DF6975D3D8A8E643D01
:107F9000FAED6B3D8FE4723D23DB793D499D803DD9
:107FA0009318843D4BC8873D96438B3D4DF38E3DE2
:107FB000986E923DE2E9953D9A99993DE4149D3D74
:107FC0009CC4A03DE63FA43D30BBA73DE86AAB3D65
:107FD00032E6AE3DEA95B23D3411B63D7E8CB93DF8
:107FE000363CBD3D80B7C03DCA32C43D82E2C73D8C
:107FF000CC5DCB3D840DCF3DCE88D23D1904D63D1E
:10800000D0B3D93D1B2FDD3D65AAE03D1D5AE43DAF
:1080100067D5E73DB150EB3D6900EF3DB37BF23DE5
:10802000FDF6F53DB5A6F93DFF21FD3DA54E003E0F
:108030008126023E26E4033ECBA1053EA779073EFA
:108040004C37093EF1F40A3E96B20C3E728A0E3E5F
:108050001748103EBC05123E98DD133E3D9B153E71
:10806000E258173E8716193E63EE1A3E08AC1C3ED6
:10807000AD691E3E5227203E2EFF213ED3BC233E3B
:10808000787A253E1D38273EC3F5283E9FCD2A3EEF
:10809000448B2C3EE9482E3E8E06303E33C4313EA2
:1080A0000F9C333EB459353E5917373EFED4383E07
:1080B000A3923A3E7F6A3C3E24283E3EC9E53F3EBD
:1080C0006EA3413E1361433EB81E453E5DDC463E15
:1080D000029A483EDE714A3E832F4C3E29ED4D3ECA
:1080E000CEAA4F3E7368513E1826533EBDE3543E20
:1080F00062A1563E075F583EAC1C5A3E51DA5B3EC9
:10810000F6975D3E9B555F3E4013613EE5D0623E73
:10811000C1A8643E6666663E0B24683EB1E1693ED6
:108120001F856B3EC4426D3E69006F3E0EBE703EC1
:10813000B37B723E5839743EFDF6753EA2B4773E6D
:108140004772793EEC2F7B3E91ED7C3E36AB7E3E16
:108150006E34803E4013813E13F2813ECAC3823E9C
:108160009CA2833E6F81843E4260853E143F863EE2
:10817000E71D873EB9FC873E70CE883E43AD893E01
:10818000158C8A3EE86A8B3EBA498C3E711B8D3E47
:1081900044FA8D3E17D98E3EE9B78F3EA089903EB6
:1081A0007368913E4547923E1826933ECFF7933E23
:1081B000A1D6943E74B5953E2B87963EFE65973EBC
:1081C000D044983E8716993E5AF5993E2CD49A3E53
:1081D000E3A59B3EB6849C3E88639D3E3F359E3E14
:1081E00012149F3EC9E59F3E9CC4A03E5396A13EFB
:1081F0002575A23EF853A33EAF25A43E8104A53EBB
:1082000039D6A53E0BB5A63EC286A73E9565A83ECB
:108210004C37A93E1E16AA3ED5E7AA3EA8C6AB3EDD
:108220005F98AC3E166AAD3EE948AE3EA01AAF3E3E
:1082300072F9AF3E29CBB03EE09CB13EB37BB23E7B
:108240006A4DB33E211FB43EF4FDB43EABCFB53E04
:1082500062A1B63E3480B73EEC51B83EA323B93E8E
:108260007502BA3E2CD4BA3EE3A5BB3E9A77BC3E1B
:108270005249BD3E2428BE3EDBF9BE3E92CBBF3EF6
:10828000499DC03E006FC13ED34DC23E8A1FC33ED2
:1082900041F1C33EF8C2C43EAF94C53E6666C63ED9
:1082A0001D38C73ED509C83E8CDBC83E43ADC93E2C
:1082B000FA7ECA3EB150CB3E6822CC3E1FF4CC3E83
:1082C000D6C5CD3E8D97CE3E4469CF3EFB3AD03EDB
:1082D000B30CD13E6ADED13E21B0D23ED881D33E2E
:1082E0008F53D43E4625D53EFDF6D53EB4C8D63E86
:1082F000508DD73E075FD83EBE30D93E7502DA3E7C
:108300002CD4DA3EC898DB3E7F6ADC3E363CDD3E4C
:10831000ED0DDE3E89D2DE3E40A4DF3EF775E03E45
:10832000933AE13E4A0CE23E01DEE23E9CA2E33E8D
:108330005474E43E0B46E53EA60AE63E5DDCE63EAE
:10834000F9A0E73EB072E83E4C37E93E0309EA3E49
:108350009FCDEA3E569FEB3EF163EC3EA835ED3EE5
:1083600044FAED3EFBCBEE3E9790EF3E4E62F03E80
:10837000E926F13EA1F8F13E3CBDF23ED881F33E44
:108380008F53F43E2B18F53EC6DCF53E7DAEF63E2F
:108390001973F73EB537F83E50FCF83E07CEF93E6C
:1083A000A392FA3E3F57FB3EDA1BFC3E76E0FC3ED2
:1083B0002DB2FD3EC976FE3E643BFF3E0000003F0D
:1083C0004E62003F9CC4003FE926013F3789013FD0
:1083D00085EB013FD34D023F21B0023F6F12033FB7
:1083E000BC74033F0AD7033F5839043FA69B043FA0
:1083F000F4FD043F4260053F8FC2053FDD24063F88
:108400002B87063F79E9063F3945073F87A7073F96
:10841000D509083F226C083F70CE083F302A093F3B
:108420007E8C093FCCEE093F8C4A0A3FDAAC0A3F0A
:10843000280F0B3FE86A0B3F36CD0B3F832F0C3FD5
:10844000448B0C3F91ED0C3F52490D3F9FAB0D3FCC
:108450005F070E3FAD690E3F6DC50E3FBB270F3F57
:108460007B830F3FC9E50F3F8941103FD7A3103FE2
:1084700097FF103F575B113FA5BD113F6519123F94
:108480002575123F73D7123F3333133FF38E133FDB
:1084900041F1133F014D143FC1A8143F8104153F22
:1084A0004260153F8FC2153F4F1E163F107A163F90
:1084B000D0D5163F9031173F508D173F10E9173F29
:1084C000D044183F90A0183F50FC183F1058193F57
:1084D000D0B3193F910F1A3F516B1A3F11C71A3F82
:1084E000D1221B3F917E1B3F51DA1B3F832F1C3F44
:1084F000448B1C3F04E71C3FC4421D3F849E1D3F2C
:10850000B6F31D3F764F1E3F36AB1E3F69001F3F3F
:10851000295C1F3FE9B71F3F1B0D203FDC68203F50
:108520009CC4203FCE19213F8E75213FC1CA213FF7
:108530008126223FB37B223F73D7223FA52C233FC6
:108540006688233F98DD233FCA32243F8A8E243F2A
:10855000BDE3243F7D3F253FAF94253FE2E9253F22
:10856000143F263FD49A263F07F0263F3945273F40
:108570006B9A273F2BF6273F5E4B283F90A0283F62
:10858000C3F5283FF54A293F27A0293F5AF5293F3F
:108590008C4A2A3FBE9F2A3FF1F42A3F234A2B3FB1
:1085A000569F2B3F88F42B3FBA492C3FED9E2C3F22
:1085B0001FF42C3F52492D3F849E2D3F29ED2D3F26
:1085C0005B422E3F8D972E3FC0EC2E3F643B2F3FEA
:1085D00097902F3FC9E52F3FFB3A303FA089303FAE
:1085E000D3DE303F772D313FAA82313FDCD7313F98
:1085F0008126323FB37B323F58CA323F8A1F333F16
:108600002F6E333F61C3333F0612343FAA60343FBD
:10861000DDB5343F8104353F2653353F58A8353FFB
:10862000FDF6353FA245363FD49A363F79E9363FCD
:108630001D38373FC286373F67D5373F0B24383F59
:108640003E79383FE3C7383F8716393F2C65393FBD
:10865000D0B3393F75023A3F1A513A3FBE9F3A3F75
:1086600063EE3A3F083D3B3F1F853B3FC3D33B3F53
:1086700068223C3F0D713C3FB1BF3C3F560E3D3F31
:108680006D563D3F12A53D3FB6F33D3FCD3B3E3FCE
:10869000728A3E3F17D93E3F2D213F3FD26F3F3F69
:1086A00077BE3F3F8E06403F3255403F499D403F99
:1086B000EEEB403F0534413FAA82413FC1CA413FF2
:1086C000D712423F7C61423F93A9423FAAF1423F09
:1086D0004F40433F6688433F7DD0433F9318443F1C
:1086E0003867443F4FAF443F66F7443F7D3F453FC7
:1086F0009487453FABCF453FC217463FD95F463FC2
:10870000F0A7463F07F0463F1D38473F3480473FBC
:108710004BC8473F6210483F7958483F90A0483FB8
:10872000A7E8483FBE30493F4772493F5EBA493FDC
:1087300075024A3F8C4A4A3F158C4A3F2CD44A3F27
:10874000431C4B3FCC5D4B3FE3A54B3F6DE74B3F9D
:10875000832F4C3F0D714C3F24B94C3FADFA4C3F39
:10876000C4424D3F4D844D3F64CC4D3FED0D4E3FD7
:10877000764F4E3F8D974E3F17D94E3FA01A4F3F31
:10878000295C4F3F40A44F3FC9E54F3F5227503F20
:10879000DC68503F65AA503FEEEB503F772D513FCC
:1087A000006F513F17B7513FA1F8513F9C33523FE3
:1087B0002575523FAEB6523F38F8523FC139533F4C
:1087C0004A7B533FD3BC533F5DFE533F5839543F20
:1087D000E17A543F6ABC543FF4FD543FEF38553FB3
:1087E000787A553F74B5553FFDF6553F8638563F6C
:1087F0008273563F0BB5563F07F0563F9031573FB7
:108800008B6C573F14AE573F10E9573F0B24583F2E
:108810009565583F90A0583F8CDB583F8716593FCD
:108820001058593F0C93593F07CE593F03095A3FFF
:10883000FE435A3F88855A3F83C05A3F7FFB5A3FC9
:108840007A365B3F76715B3F71AC5B3F6DE75B3FB8
:1088500068225C3FD6565C3FD1915C3FCDCC5C3FFB
:10886000C8075D3FC4425D3FBF7D5D3F2DB25D3FA8
:1088700029ED5D3F24285E3F925C5E3F8D975E3F11
:1088800089D25E3FF7065F3FF2415F3F60765F3F10
:108890005BB15F3FC9E55F3FC520603F3255603F38
:1088A000A089603F9CC4603F09F9603F772D613F1C
:1088B0007368613FE09C613F4ED1613FBC05623F00
:1088C000B840623F2575623F93A9623F01DE623F77
:1088D0006F12633FDC46633F4A7B633FB8AF633F41
:1088E00026E4633F9318643F014D643F6F81643F0A
:1088F000DDB5643F4BEA643F2B18653F984C653FFC
:108900000681653F74B5653F54E3653FC217663F16
:10891000304C663F107A663F7DAE663F5DDC663F59
:10892000CB10673FAB3E673F1973673FF9A0673FC6
:1089300067D5673F4703683F2731683F9565683FC4
:108940007593683F55C1683FC3F5683FA323693FEE
:108950008351693F637F693F43AD693F23DB693FD3
:10896000910F6A3F713D6A3F516B6A3F31996A3F8F
:1089700011C76A3FF1F46A3F431C6B3F234A6B3FC8
:1089800003786B3FE3A56B3FC3D36B3FA3016C3F01
:10899000F6286C3FD6566C3FB6846C3F08AC6C3FF3
:1089A000E8D96C3FC8076D3F1B2F6D3FFB5C6D3FE7
:1089B0004D846D3F2DB26D3F7FD96D3F5F076E3F98
:1089C000B22E6E3F925C6E3FE4836E3F36AB6E3FDD
:1089D00017D96E3F69006F3FBB276F3F0E4F6F3F48
:1089E00060766F3F40A46F3F92CB6F3FE5F26F3FE1
:1089F000371A703F8941703FDC68703F2E90703F9E
:108A000080B7703FD3DE703F2506713F772D713FF1
:108A10003C4E713F8E75713FE09C713F33C4713F96
:108A2000F7E4713F4A0C723F9C33723F6154723FCE
:108A3000B37B723F05A3723FCAC3723F1CEB723F08
:108A4000E10B733F3333733FF853733F4A7B733FFC
:108A50000F9C733FD3BC733F26E4733FEA04743F1B
:108A6000AF25743F7446743FC66D743F8A8E743F61
:108A70004FAF743F14D0743FD8F0743F9D11753FD1
:108A80006132753F2653753FEB73753FAF94753F69
:108A900074B5753F39D6753FFDF6753FC217763F01
:108AA000F931763FBD52763F8273763F4694763FEA
:108AB0007DAE763F42CF763F07F0763F3D0A773F67
:108AC000022B773F3945773FFE65773F3480773F0C
:108AD000F9A0773F30BB773F67D5773F2BF6773FDD
:108AE0006210783F992A783F5E4B783F9565783FD2
:108AF000CC7F783F029A783F39B4783FFED4783FF4
:108B000035EF783F6C09793FA323793FD93D793F11
:108B10001058793F4772793F7E8C793F27A0793F83
:108B20005EBA793F95D4793FCCEE793F03097A3F1D
:108B3000AC1C7A3FE3367A3F1A517A3FC3647A3FDE
:108B4000FA7E7A3F31997A3FDAAC7A3F11C77A3FA1
:108B5000BADA7A3FF1F47A3F9A087B3FD1227B3F21
:108B60007A367B3F234A7B3F5A647B3F03787B3FC7
:108B7000AC8B7B3F569F7B3F8CB97B3F36CD7B3F99
:108B8000DFE07B3F88F47B3F31087C3FDA1B7C3F92
:108B9000832F7C3F2D437C3FD6567C3F7F6A7C3FB2
:108BA000287E7C3FD1917C3F7AA57C3F96B27C3F6A
:108BB0003FC67C3FE8D97C3F91ED7C3FADFA7C3FDE
:108BC000560E7D3FFF217D3F1B2F7D3FC4427D3FE1
:108BD000DF4F7D3F88637D3FA4707D3F4D847D3FA7
:108BE00068917D3F849E7D3F2DB27D3F48BF7D3F94
:108BF00064CC7D3F0DE07D3F29ED7D3F44FA7D3F14
:108C00005F077E3F7B147E3F24287E3F3F357E3FBB
:108C10005B427E3F764F7E3F925C7E3FAD697E3FFA
:108C2000C9767E3FE4837E3F728A7E3F8D977E3F8A
:108C3000A9A47E3FC4B17E3FE0BE7E3F6DC57E3FAE
:108C400089D27E3FA4DF7E3F32E67E3F4DF37E3FFA
:108C5000DBF97E3FF7067F3F840D7F3FA01A7F3F01
:108C60002D217F3F492E7F3FD7347F3FF2417F3F09
:108C700080487F3F0E4F7F3F9B557F3FB7627F3FCE
:108C800044697F3FD26F7F3F60767F3FEE7C7F3FBE
:108C90007B837F3F098A7F3F97907F3F24977F3F69
:108CA000B29D7F3F40A47F3FCEAA7F3F5BB17F3F15
:108CB000E9B77F3F77BE7F3F77BE7F3F05C57F3FE8
:108CC00092CB7F3F20D27F3F20D27F3FAED87F3FE5
:108CD0003BDF7F3F3BDF7F3FC9E57F3FC9E57F3F0C
:108CE00057EC7F3F57EC7F3F57EC7F3FE5F27F3FEC
:108CF000E5F27F3FE5F27F3F72F97F3F72F97F3FF8
:108D000072F97F3F72F97F3F0000803F0000803F93
:108D10000000803F0000803F0000803F0000803F57
:108D2000000000000000F03F000000000000F83FDD
:108D300000000000000000000000004003B8E23F17
:108D4000000000000000000006D0CF43EBFD4C3EC9
:108D5000033333333333E33FFFAB6FDBB66DDB3FBE
:108D60004D268F515555D53F01411DA96074D13F06
:108D700065DBC9934A86CD3FEF4E454A287ECA3F00
:108D80003E5555555555C53F93BDBE166CC166BF82
:108D90002CDE25AF6A56113FF16BD2C541BDBBBE7B
:108DA000D0A4BE726937663E4C5555555555A53F02
:108DB0007751C1166CC156BF9015CB19A001FA3E70
:108DC000AD529C804F7E92BEC4B1B4BD9EEE213E9A
:108DD000D43888BEE9FAA8BD04FA97999999D93F81
:108DE000AF788E1DC571CC3F9FC678D0099AC33F1E
:108DF000935555555555E53F599322942449D23FF3
:108E0000DE03CB966446C73F44523EDF12F1C23FB9
:108E1000000000000000000000004054FB21F93F6A
:108E20003163621A61B4D03D0000601A61B4D03D74
:108E30007370032E8A19A33B0000002E8A19A33BEE
:108E4000C14920259A837B39000000000000000002
:108E50006E83F9A22915444ED15727FCC0DD34F5A5
:108E6000999562DB4190433CAB6351FE61C5BBDE2B
:108E70003A6E24B7E0D24D42EA2E49061C92D1093F
:108E80001CEB1DFE3EA729B1F53582E88444BB2EBC
:108E900026709CE9417E5FB439D69139F439538309
:108EA0008B5F849C3B28F9BDFF97F81F0F9805DE68
:108EB0008B112FEF1F6D0A5ACF7E366DB709CB2766
:108EC000663F464F2DEA5F9EC7BA27757BF1E5EBFB
:108ED000F739073DEA92528AB15FFB6B085D8D1F3F
:108EE000A6F810111111813FD561C119A0012ABF47
:108EF0007DFEB157E31DC73EEB9C2B8AE6E55ABECB
:108F00007CD5CF5A3AD9E53D7AFE10111111C13FF7
:108F100037D60684F464963F280356C9226D6D3F08
:108F20000165F2F2D844433FA69237A0887E143FF1
:108F3000735360DBCB75F3BEFE41B31BBAA1AB3FED
:108F400093846EE9E326823F1583E0FEC8DB573F3A
:108F500068108D1AF726303FE9A7F0320FB8123F9C
:108F6000D47ABF74702AFB3E888F0008000000206E
:108F7000B80000006C01000840900008B800002014
:108F80002010000088010008000000000000000020
:108F900000000000000000000000000000A24A04E1
:108FA0000000000000000000010203040607080999
:108FB0000000204100000000000000000000000050
:108FC0000000803F000000000000000000000000E2
:108FD0000000000000000000000000000000000091
:108FE0000000000000000000000000000000000081
:108FF0000000000000000000000000000000000071
:10900000000000000000000001000000000000005F
:109010000000010100000000000000000102030444
:1090200001020304060708090204060832000000D2
:109030000000000000000000000000000000000030
:0400000508000131BD
:00000001FF
