Component: ARM Compiler 5.06 update 4 (build 422) Tool: armlink [4d35d2]

==============================================================================

Section Cross References

    main.o(.text) refers to delay.o(.text) for delay_init
    main.o(.text) refers to sys.o(.text) for NVIC_Configuration
    main.o(.text) refers to led.o(.text) for LED_Init
    main.o(.text) refers to usart.o(.text) for uart1_init
    main.o(.text) refers to timer.o(.text) for TIM4_Int_Init
    main.o(.text) refers to tan.o(i.tan) for tan
    main.o(.text) refers to dmul.o(x$fpl$dmul) for __aeabi_dmul
    main.o(.text) refers to ddiv.o(x$fpl$ddiv) for __aeabi_ddiv
    main.o(.text) refers to log10.o(i.log10) for log10
    main.o(.text) refers to pow.o(i.pow) for pow
    main.o(.text) refers to daddsub_clz.o(x$fpl$dsub) for __aeabi_dsub
    main.o(.text) refers to ceil.o(i.ceil) for ceil
    main.o(.text) refers to dfix.o(x$fpl$dfix) for __aeabi_d2iz
    main.o(.text) refers to h1_alloc.o(.text) for malloc
    main.o(.text) refers to iir.o(.text) for Direct
    main.o(.text) refers to rt_memclr_w.o(.text) for __aeabi_memclr4
    main.o(.text) refers to dflt_clz.o(x$fpl$dfltu) for __aeabi_ui2d
    main.o(.text) refers to sin.o(i.sin) for sin
==============================================================================

Removing Unused input sections from the image.

    Removing pid.o(.text), (298 bytes).
    Removing pid.o(.bss), (112 bytes).
    Removing imu.o(.text), (1576 bytes).
    Removing stmflash.o(.text), (360 bytes).
    Removing stmflash.o(.bss), (2128 bytes).
    Removing mpu6050.o(.text), (904 bytes).
    Removing mpu6050.o(.data), (6 bytes).
    Removing 24cxx.o(.text), (44 bytes).
    Removing motor.o(.bss), (60 bytes).
    Removing core_cm3.o(.emb_text), (32 bytes).
    Removing stm32f10x_adc.o(.text), (1102 bytes).
    Removing stm32f10x_bkp.o(.text), (196 bytes).
    Removing stm32f10x_can.o(.text), (2544 bytes).
    Removing stm32f10x_cec.o(.text), (288 bytes).
    Removing stm32f10x_crc.o(.text), (72 bytes).
    Removing stm32f10x_dac.o(.text), (396 bytes).
    Removing stm32f10x_dbgmcu.o(.text), (48 bytes).
    Removing stm32f10x_exti.o(.text), (284 bytes).
==============================================================================

Image Symbol Table

    Local Symbols

    Symbol Name                              Value     Ov Type        Size  Object(Section)

    ../clib/angel/boardlib.s                 0x00000000   Number         0  boardinit1.o ABSOLUTE
    ../clib/angel/boardlib.s                 0x00000000   Number         0  boardinit2.o ABSOLUTE
    ../clib/angel/boardlib.s                 0x00000000   Number         0  boardinit3.o ABSOLUTE
    ../clib/angel/boardlib.s                 0x00000000   Number         0  boardshut.o ABSOLUTE
    ../clib/angel/handlers.s                 0x00000000   Number         0  __scatter_zi.o ABSOLUTE
    ../clib/angel/handlers.s                 0x00000000   Number         0  __scatter_copy.o ABSOLUTE
    ../clib/angel/kernel.s                   0x00000000   Number         0  rtexit2.o ABSOLUTE
    ../clib/angel/kernel.s                   0x00000000   Number         0  __rtentry2.o ABSOLUTE
    ../clib/angel/kernel.s                   0x00000000   Number         0  __rtentry4.o ABSOLUTE
    ../clib/angel/kernel.s                   0x00000000   Number         0  __rtentry.o ABSOLUTE
    ../clib/angel/kernel.s                   0x00000000   Number         0  rtexit.o ABSOLUTE
    ../clib/angel/rt.s                       0x00000000   Number         0  rt_errno_addr.o ABSOLUTE
    ../clib/angel/rt.s                       0x00000000   Number         0  rt_errno_addr_intlibspace.o ABSOLUTE
    ../clib/angel/rt.s                       0x00000000   Number         0  rt_raise.o ABSOLUTE
    ../clib/angel/rt.s                       0x00000000   Number         0  rt_heap_descriptor_intlibspace.o ABSOLUTE
    ../clib/angel/rt.s                       0x00000000   Number         0  rt_heap_descriptor.o ABSOLUTE
    ../clib/angel/scatter.s                  0x00000000   Number         0  __scatter.o ABSOLUTE
    ../clib/angel/startup.s                  0x00000000   Number         0  __main.o ABSOLUTE
    ../clib/angel/sys.s                      0x00000000   Number         0  use_no_semi.o ABSOLUTE
    ../clib/angel/sys.s                      0x00000000   Number         0  indicate_semi.o ABSOLUTE
    ../clib/angel/sys.s                      0x00000000   Number         0  mutex_dummy.o ABSOLUTE
    ../clib/angel/sys.s                      0x00000000   Number         0  libspace.o ABSOLUTE
    ../clib/angel/sys.s                      0x00000000   Number         0  sys_stackheap_outer.o ABSOLUTE
    ../clib/angel/sysapp.c                   0x00000000   Number         0  sys_command.o ABSOLUTE
    ../clib/angel/sysapp.c                   0x00000000   Number         0  sys_wrch.o ABSOLUTE
    ../clib/angel/sysapp.c                   0x00000000   Number         0  sys_exit.o ABSOLUTE
    ../clib/armsys.c                         0x00000000   Number         0  argv_veneer.o ABSOLUTE
    ../clib/armsys.c                         0x00000000   Number         0  _get_argv_nomalloc.o ABSOLUTE
    ../clib/armsys.c                         0x00000000   Number         0  _get_argv.o ABSOLUTE
    ../clib/armsys.c                         0x00000000   Number         0  no_argv.o ABSOLUTE
    ../clib/armsys.c                         0x00000000   Number         0  argv_veneer.o ABSOLUTE
    ../clib/fenv.c                           0x00000000   Number         0  _rserrno.o ABSOLUTE
    ../clib/heap1.c                          0x00000000   Number         0  h1_free.o ABSOLUTE
    ../clib/heap1.c                          0x00000000   Number         0  h1_final_mt.o ABSOLUTE
    ../clib/heap1.c                          0x00000000   Number         0  h1_alloc_mt.o ABSOLUTE
    ../clib/heap1.c                          0x00000000   Number         0  h1_init_mt.o ABSOLUTE
    ../clib/heap1.c                          0x00000000   Number         0  h1_free_mt.o ABSOLUTE
    ../clib/heap1.c                          0x00000000   Number         0  h1_extend_mt.o ABSOLUTE
    ../clib/heap1.c                          0x00000000   Number         0  h1_final.o ABSOLUTE
    ../clib/heap1.c                          0x00000000   Number         0  h1_extend.o ABSOLUTE
    ../clib/heap1.c                          0x00000000   Number         0  h1_alloc.o ABSOLUTE
    ../clib/heap1.c                          0x00000000   Number         0  h1_init.o ABSOLUTE
    ../clib/heap2.c                          0x00000000   Number         0  heap2.o ABSOLUTE
    ../clib/heap2.c                          0x00000000   Number         0  heap2mt.o ABSOLUTE
    ../clib/heap2.c                          0x00000000   Number         0  fdtree.o ABSOLUTE
    ../clib/heapalloc.c                      0x00000000   Number         0  maybetermalloc1.o ABSOLUTE
    ../clib/heapalloc.c                      0x00000000   Number         0  maybetermalloc1.o ABSOLUTE
    ../clib/heapalloc.c                      0x00000000   Number         0  hrguard.o ABSOLUTE
    ../clib/heapalloc.c                      0x00000000   Number         0  hguard.o ABSOLUTE
    ../clib/heapalloc.c                      0x00000000   Number         0  heapstubs.o ABSOLUTE
    ../clib/heapalloc.c                      0x00000000   Number         0  malloc.o ABSOLUTE
    ../clib/heapalloc.c                      0x00000000   Number         0  term_alloc.o ABSOLUTE
    ../clib/heapalloc.c                      0x00000000   Number         0  init_alloc.o ABSOLUTE
    ../clib/heapalloc.c                      0x00000000   Number         0  free.o ABSOLUTE
    ../clib/heapalloc.c                      0x00000000   Number         0  maybetermalloc2.o ABSOLUTE
    ../clib/heapalloc.c                      0x00000000   Number         0  maybetermalloc2.o ABSOLUTE
    ../clib/heapaux.c                        0x00000000   Number         0  heapauxi.o ABSOLUTE
    ../clib/heapaux.c                        0x00000000   Number         0  heapauxa.o ABSOLUTE
    ../clib/libinit.s                        0x00000000   Number         0  libshutdown2.o ABSOLUTE
    ../clib/libinit.s                        0x00000000   Number         0  libshutdown.o ABSOLUTE
    ../clib/libinit.s                        0x00000000   Number         0  libinit.o ABSOLUTE
    ../clib/libinit.s                        0x00000000   Number         0  libinit2.o ABSOLUTE
    ../clib/memcpset.s                       0x00000000   Number         0  rt_memcpy_w.o ABSOLUTE
    ../clib/memcpset.s                       0x00000000   Number         0  rt_memclr_w.o ABSOLUTE
    ../clib/signal.c                         0x00000000   Number         0  defsig_stak_inner.o ABSOLUTE
    ../clib/signal.c                         0x00000000   Number         0  defsig_rtred_inner.o ABSOLUTE
    ../clib/signal.c                         0x00000000   Number         0  defsig_fpe_inner.o ABSOLUTE
    ../clib/signal.c                         0x00000000   Number         0  defsig_pvfn_inner.o ABSOLUTE
    ../clib/signal.c                         0x00000000   Number         0  defsig_abrt_inner.o ABSOLUTE
    ../clib/signal.c                         0x00000000   Number         0  defsig_general.o ABSOLUTE
    ../clib/signal.c                         0x00000000   Number         0  __raise.o ABSOLUTE
    ../clib/signal.c                         0x00000000   Number         0  defsig_segv_inner.o ABSOLUTE
    ../clib/signal.c                         0x00000000   Number         0  defsig_other.o ABSOLUTE
    ../clib/signal.c                         0x00000000   Number         0  defsig_rtmem_outer.o ABSOLUTE
    ../clib/signal.c                         0x00000000   Number         0  defsig_cppl_inner.o ABSOLUTE
    ../clib/signal.c                         0x00000000   Number         0  defsig_rtmem_formal.o ABSOLUTE
    ../clib/signal.c                         0x00000000   Number         0  defsig_rtmem_inner.o ABSOLUTE
    ../clib/signal.c                         0x00000000   Number         0  defsig_exit.o ABSOLUTE
    ../clib/signal.s                         0x00000000   Number         0  defsig.o ABSOLUTE
    ../clib/stdlib.c                         0x00000000   Number         0  exit.o ABSOLUTE
    ../fplib/d2f.s                           0x00000000   Number         0  d2f.o ABSOLUTE
    ../fplib/daddsub.s                       0x00000000   Number         0  daddsub_clz.o ABSOLUTE
    ../fplib/dcheck1.s                       0x00000000   Number         0  dcheck1.o ABSOLUTE
    ../fplib/dcmpi.s                         0x00000000   Number         0  dcmpi.o ABSOLUTE
    ../fplib/ddiv.s                          0x00000000   Number         0  ddiv.o ABSOLUTE
    ../fplib/deqf.s                          0x00000000   Number         0  deqf.o ABSOLUTE
    ../fplib/dfix.s                          0x00000000   Number         0  dfix.o ABSOLUTE
    ../fplib/dfixu.s                         0x00000000   Number         0  dfixu.o ABSOLUTE
    ../fplib/dflt.s                          0x00000000   Number         0  dflt_clz.o ABSOLUTE
    ../fplib/dleqf.s                         0x00000000   Number         0  dleqf.o ABSOLUTE
    ../fplib/dmul.s                          0x00000000   Number         0  dmul.o ABSOLUTE
    ../fplib/dnaninf.s                       0x00000000   Number         0  dnaninf.o ABSOLUTE
    ../fplib/dretinf.s                       0x00000000   Number         0  dretinf.o ABSOLUTE
    ../fplib/drleqf.s                        0x00000000   Number         0  drleqf.o ABSOLUTE
    ../fplib/dsqrt.s                         0x00000000   Number         0  dsqrt_noumaal.o ABSOLUTE
    ../fplib/f2d.s                           0x00000000   Number         0  f2d.o ABSOLUTE
    ../fplib/faddsub.s                       0x00000000   Number         0  faddsub_clz.o ABSOLUTE
    ../fplib/fcmpi.s                         0x00000000   Number         0  fcmpi.o ABSOLUTE
    ../fplib/fdiv.s                          0x00000000   Number         0  fdiv.o ABSOLUTE
    ../fplib/feqf.s                          0x00000000   Number         0  feqf.o ABSOLUTE
    ../fplib/ffix.s                          0x00000000   Number         0  ffix.o ABSOLUTE
    ../fplib/ffixu.s                         0x00000000   Number         0  ffixu.o ABSOLUTE
    ../fplib/fflt.s                          0x00000000   Number         0  fflt_clz.o ABSOLUTE
    ../fplib/fleqf.s                         0x00000000   Number         0  fleqf.o ABSOLUTE
    ../fplib/fmul.s                          0x00000000   Number         0  fmul.o ABSOLUTE
    ../fplib/fnaninf.s                       0x00000000   Number         0  fnaninf.o ABSOLUTE
    ../fplib/fpinit.s                        0x00000000   Number         0  fpinit.o ABSOLUTE
    ../fplib/fretinf.s                       0x00000000   Number         0  fretinf.o ABSOLUTE
    ../fplib/frleqf.s                        0x00000000   Number         0  frleqf.o ABSOLUTE
    ../fplib/retnan.s                        0x00000000   Number         0  retnan.o ABSOLUTE
    ../fplib/scalbn.s                        0x00000000   Number         0  scalbn.o ABSOLUTE
    ../fplib/trapv.s                         0x00000000   Number         0  trapv.o ABSOLUTE
    ../fplib/usenofp.s                       0x00000000   Number         0  usenofp.o ABSOLUTE
    ../mathlib/asin.c                        0x00000000   Number         0  asin_x.o ABSOLUTE
    ../mathlib/asin.c                        0x00000000   Number         0  asin.o ABSOLUTE
    ../mathlib/atan.c                        0x00000000   Number         0  atan.o ABSOLUTE
    ../mathlib/atan.c                        0x00000000   Number         0  atan_x.o ABSOLUTE
    ../mathlib/atan2.c                       0x00000000   Number         0  atan2.o ABSOLUTE
    ../mathlib/atan2.c                       0x00000000   Number         0  atan2_x.o ABSOLUTE
    ../mathlib/ceil.c                        0x00000000   Number         0  ceil.o ABSOLUTE
    ../mathlib/cos.c                         0x00000000   Number         0  cos.o ABSOLUTE
    ../mathlib/cos.c                         0x00000000   Number         0  cos_x.o ABSOLUTE
    ../mathlib/cos_i.c                       0x00000000   Number         0  cos_i.o ABSOLUTE
    ../mathlib/dunder.c                      0x00000000   Number         0  dunder.o ABSOLUTE
    ../mathlib/fpclassify.c                  0x00000000   Number         0  fpclassify.o ABSOLUTE
    ../mathlib/log.c                         0x00000000   Number         0  log_x.o ABSOLUTE
    ../mathlib/log.c                         0x00000000   Number         0  log.o ABSOLUTE
    ../mathlib/log10.c                       0x00000000   Number         0  log10.o ABSOLUTE
    ../mathlib/log10.c                       0x00000000   Number         0  log10_x.o ABSOLUTE
    ../mathlib/poly.c                        0x00000000   Number         0  poly.o ABSOLUTE
    ../mathlib/pow.c                         0x00000000   Number         0  pow_x.o ABSOLUTE
    ../mathlib/pow.c                         0x00000000   Number         0  pow.o ABSOLUTE
    ../mathlib/qnan.c                        0x00000000   Number         0  qnan.o ABSOLUTE
    ../mathlib/rred.c                        0x00000000   Number         0  rred.o ABSOLUTE
    ../mathlib/sin.c                         0x00000000   Number         0  sin.o ABSOLUTE
    ../mathlib/sin.c                         0x00000000   Number         0  sin_x.o ABSOLUTE
    ../mathlib/sin_i.c                       0x00000000   Number         0  sin_i_x.o ABSOLUTE
    ../mathlib/sin_i.c                       0x00000000   Number         0  sin_i.o ABSOLUTE
    ../mathlib/sqrt.c                        0x00000000   Number         0  sqrt.o ABSOLUTE
    ../mathlib/sqrt.c                        0x00000000   Number         0  sqrt_x.o ABSOLUTE
    ../mathlib/tan.c                         0x00000000   Number         0  tan_x.o ABSOLUTE
    ../mathlib/tan.c                         0x00000000   Number         0  tan.o ABSOLUTE
    ../mathlib/tan_i.c                       0x00000000   Number         0  tan_i_x.o ABSOLUTE
    ../mathlib/tan_i.c                       0x00000000   Number         0  tan_i.o ABSOLUTE
    ..\CORE\core_cm3.c                       0x00000000   Number         0  core_cm3.o ABSOLUTE
    ..\CORE\startup_stm32f10x_hd.s           0x00000000   Number         0  startup_stm32f10x_hd.o ABSOLUTE
    ..\HARDWARE\24CXX\24cxx.c                0x00000000   Number         0  24cxx.o ABSOLUTE
    ..\HARDWARE\LED\led.c                    0x00000000   Number         0  led.o ABSOLUTE
    ..\HARDWARE\MPU6050\mpu6050.c            0x00000000   Number         0  mpu6050.o ABSOLUTE
    ..\HARDWARE\Motor\motor.c                0x00000000   Number         0  motor.o ABSOLUTE
    ..\HARDWARE\STMFLASH\stmflash.c          0x00000000   Number         0  stmflash.o ABSOLUTE
    ..\HARDWARE\TIMER\timer.c                0x00000000   Number         0  timer.o ABSOLUTE
    ..\SOFTWARE\IIR\IIR.c                    0x00000000   Number         0  iir.o ABSOLUTE
    ..\SOFTWARE\IMU\IMU.c                    0x00000000   Number         0  imu.o ABSOLUTE
    ..\SOFTWARE\PID\PID.c                    0x00000000   Number         0  pid.o ABSOLUTE
    ..\SOFTWARE\UProtocol\UProtocol.c        0x00000000   Number         0  uprotocol.o ABSOLUTE
    ..\SOFTWARE\UserMath\UserMath.c          0x00000000   Number         0  usermath.o ABSOLUTE
    ..\STM32F10x_FWLib\src\misc.c            0x00000000   Number         0  misc.o ABSOLUTE
    ..\STM32F10x_FWLib\src\stm32f10x_adc.c   0x00000000   Number         0  stm32f10x_adc.o ABSOLUTE
    ..\STM32F10x_FWLib\src\stm32f10x_bkp.c   0x00000000   Number         0  stm32f10x_bkp.o ABSOLUTE
    ..\STM32F10x_FWLib\src\stm32f10x_can.c   0x00000000   Number         0  stm32f10x_can.o ABSOLUTE
    ..\STM32F10x_FWLib\src\stm32f10x_cec.c   0x00000000   Number         0  stm32f10x_cec.o ABSOLUTE
    ..\STM32F10x_FWLib\src\stm32f10x_crc.c   0x00000000   Number         0  stm32f10x_crc.o ABSOLUTE
    ..\STM32F10x_FWLib\src\stm32f10x_dac.c   0x00000000   Number         0  stm32f10x_dac.o ABSOLUTE
    ..\STM32F10x_FWLib\src\stm32f10x_dbgmcu.c 0x00000000   Number         0  stm32f10x_dbgmcu.o ABSOLUTE
    ..\STM32F10x_FWLib\src\stm32f10x_dma.c   0x00000000   Number         0  stm32f10x_dma.o ABSOLUTE
    ..\STM32F10x_FWLib\src\stm32f10x_exti.c  0x00000000   Number         0  stm32f10x_exti.o ABSOLUTE
    ..\STM32F10x_FWLib\src\stm32f10x_flash.c 0x00000000   Number         0  stm32f10x_flash.o ABSOLUTE
    ..\STM32F10x_FWLib\src\stm32f10x_fsmc.c  0x00000000   Number         0  stm32f10x_fsmc.o ABSOLUTE
    ..\STM32F10x_FWLib\src\stm32f10x_gpio.c  0x00000000   Number         0  stm32f10x_gpio.o ABSOLUTE
    ..\STM32F10x_FWLib\src\stm32f10x_i2c.c   0x00000000   Number         0  stm32f10x_i2c.o ABSOLUTE
    ..\STM32F10x_FWLib\src\stm32f10x_iwdg.c  0x00000000   Number         0  stm32f10x_iwdg.o ABSOLUTE
    ..\STM32F10x_FWLib\src\stm32f10x_pwr.c   0x00000000   Number         0  stm32f10x_pwr.o ABSOLUTE
    ..\STM32F10x_FWLib\src\stm32f10x_rcc.c   0x00000000   Number         0  stm32f10x_rcc.o ABSOLUTE
    ..\STM32F10x_FWLib\src\stm32f10x_rtc.c   0x00000000   Number         0  stm32f10x_rtc.o ABSOLUTE
    ..\STM32F10x_FWLib\src\stm32f10x_sdio.c  0x00000000   Number         0  stm32f10x_sdio.o ABSOLUTE
    ..\STM32F10x_FWLib\src\stm32f10x_spi.c   0x00000000   Number         0  stm32f10x_spi.o ABSOLUTE
    ..\STM32F10x_FWLib\src\stm32f10x_tim.c   0x00000000   Number         0  stm32f10x_tim.o ABSOLUTE
    ..\STM32F10x_FWLib\src\stm32f10x_usart.c 0x00000000   Number         0  stm32f10x_usart.o ABSOLUTE
    ..\STM32F10x_FWLib\src\stm32f10x_wwdg.c  0x00000000   Number         0  stm32f10x_wwdg.o ABSOLUTE
    ..\SYSTEM\delay\delay.c                  0x00000000   Number         0  delay.o ABSOLUTE
    ..\SYSTEM\sys\sys.c                      0x00000000   Number         0  sys.o ABSOLUTE
    ..\SYSTEM\usart\usart.c                  0x00000000   Number         0  usart.o ABSOLUTE
    ..\\CORE\\core_cm3.c                     0x00000000   Number         0  core_cm3.o ABSOLUTE
    BSP\ANO_TC_STM32F1_I2C.c                 0x00000000   Number         0  ano_tc_stm32f1_i2c.o ABSOLUTE
    dc.s                                     0x00000000   Number         0  dc.o ABSOLUTE
    main.c                                   0x00000000   Number         0  main.o ABSOLUTE
    stm32f10x_it.c                           0x00000000   Number         0  stm32f10x_it.o ABSOLUTE
    system_stm32f10x.c                       0x00000000   Number         0  system_stm32f10x.o ABSOLUTE
    RESET                                    0x08000000   Section      304  startup_stm32f10x_hd.o(RESET)
    !!!main                                  0x08000130   Section        8  __main.o(!!!main)
    !!!scatter                               0x08000138   Section       52  __scatter.o(!!!scatter)
    !!handler_copy                           0x0800016c   Section       26  __scatter_copy.o(!!handler_copy)
    !!handler_zi                             0x08000188   Section       28  __scatter_zi.o(!!handler_zi)
    .ARM.Collect$$libinit$$00000000          0x080001a4   Section        2  libinit.o(.ARM.Collect$$libinit$$00000000)
    .ARM.Collect$$libinit$$00000002          0x080001a6   Section        0  libinit2.o(.ARM.Collect$$libinit$$00000002)
    .ARM.Collect$$libinit$$00000004          0x080001a6   Section        0  libinit2.o(.ARM.Collect$$libinit$$00000004)
    .ARM.Collect$$libinit$$00000005          0x080001a6   Section        8  libinit2.o(.ARM.Collect$$libinit$$00000005)
    .ARM.Collect$$libinit$$0000000A          0x080001ae   Section        0  libinit2.o(.ARM.Collect$$libinit$$0000000A)
    .ARM.Collect$$libinit$$0000000C          0x080001ae   Section        0  libinit2.o(.ARM.Collect$$libinit$$0000000C)
    .ARM.Collect$$libinit$$0000000E          0x080001ae   Section        0  libinit2.o(.ARM.Collect$$libinit$$0000000E)
    .ARM.Collect$$libinit$$00000011          0x080001ae   Section        0  libinit2.o(.ARM.Collect$$libinit$$00000011)
    .ARM.Collect$$libinit$$00000013          0x080001ae   Section        0  libinit2.o(.ARM.Collect$$libinit$$00000013)
    .ARM.Collect$$libinit$$00000015          0x080001ae   Section        0  libinit2.o(.ARM.Collect$$libinit$$00000015)
    .ARM.Collect$$libinit$$00000017          0x080001ae   Section        0  libinit2.o(.ARM.Collect$$libinit$$00000017)
    .ARM.Collect$$libinit$$00000019          0x080001ae   Section        0  libinit2.o(.ARM.Collect$$libinit$$00000019)
    .ARM.Collect$$libinit$$0000001B          0x080001ae   Section        0  libinit2.o(.ARM.Collect$$libinit$$0000001B)
    .ARM.Collect$$libinit$$0000001D          0x080001ae   Section        0  libinit2.o(.ARM.Collect$$libinit$$0000001D)
    .ARM.Collect$$libinit$$0000001F          0x080001ae   Section        0  libinit2.o(.ARM.Collect$$libinit$$0000001F)
    .ARM.Collect$$libinit$$00000021          0x080001ae   Section        0  libinit2.o(.ARM.Collect$$libinit$$00000021)
    .ARM.Collect$$libinit$$00000023          0x080001ae   Section        0  libinit2.o(.ARM.Collect$$libinit$$00000023)
    .ARM.Collect$$libinit$$00000025          0x080001ae   Section        0  libinit2.o(.ARM.Collect$$libinit$$00000025)
    .ARM.Collect$$libinit$$0000002C          0x080001ae   Section        0  libinit2.o(.ARM.Collect$$libinit$$0000002C)
    .ARM.Collect$$libinit$$0000002E          0x080001ae   Section        0  libinit2.o(.ARM.Collect$$libinit$$0000002E)
    .ARM.Collect$$libinit$$00000030          0x080001ae   Section        0  libinit2.o(.ARM.Collect$$libinit$$00000030)
    .ARM.Collect$$libinit$$00000032          0x080001ae   Section        0  libinit2.o(.ARM.Collect$$libinit$$00000032)
    .ARM.Collect$$libinit$$00000033          0x080001ae   Section        2  libinit2.o(.ARM.Collect$$libinit$$00000033)
    .ARM.Collect$$libshutdown$$00000000      0x080001b0   Section        2  libshutdown.o(.ARM.Collect$$libshutdown$$00000000)
    .ARM.Collect$$libshutdown$$00000002      0x080001b2   Section        0  libshutdown2.o(.ARM.Collect$$libshutdown$$00000002)
    .ARM.Collect$$libshutdown$$00000004      0x080001b2   Section        0  libshutdown2.o(.ARM.Collect$$libshutdown$$00000004)
    .ARM.Collect$$libshutdown$$00000007      0x080001b2   Section        0  libshutdown2.o(.ARM.Collect$$libshutdown$$00000007)
    .ARM.Collect$$libshutdown$$0000000A      0x080001b2   Section        0  libshutdown2.o(.ARM.Collect$$libshutdown$$0000000A)
    .ARM.Collect$$libshutdown$$0000000C      0x080001b2   Section        0  libshutdown2.o(.ARM.Collect$$libshutdown$$0000000C)
    .ARM.Collect$$libshutdown$$0000000F      0x080001b2   Section        0  libshutdown2.o(.ARM.Collect$$libshutdown$$0000000F)
    .ARM.Collect$$libshutdown$$00000010      0x080001b2   Section        2  libshutdown2.o(.ARM.Collect$$libshutdown$$00000010)
    .ARM.Collect$$rtentry$$00000000          0x080001b4   Section        0  __rtentry.o(.ARM.Collect$$rtentry$$00000000)
    .ARM.Collect$$rtentry$$00000002          0x080001b4   Section        0  __rtentry2.o(.ARM.Collect$$rtentry$$00000002)
    .ARM.Collect$$rtentry$$00000004          0x080001b4   Section        6  __rtentry4.o(.ARM.Collect$$rtentry$$00000004)
    .ARM.Collect$$rtentry$$00000009          0x080001ba   Section        0  __rtentry2.o(.ARM.Collect$$rtentry$$00000009)
    .ARM.Collect$$rtentry$$0000000A          0x080001ba   Section        4  __rtentry2.o(.ARM.Collect$$rtentry$$0000000A)
    .ARM.Collect$$rtentry$$0000000C          0x080001be   Section        0  __rtentry2.o(.ARM.Collect$$rtentry$$0000000C)
    .ARM.Collect$$rtentry$$0000000D          0x080001be   Section        8  __rtentry2.o(.ARM.Collect$$rtentry$$0000000D)
    .ARM.Collect$$rtexit$$00000000           0x080001c6   Section        2  rtexit.o(.ARM.Collect$$rtexit$$00000000)
    .ARM.Collect$$rtexit$$00000002           0x080001c8   Section        0  rtexit2.o(.ARM.Collect$$rtexit$$00000002)
    .ARM.Collect$$rtexit$$00000003           0x080001c8   Section        4  rtexit2.o(.ARM.Collect$$rtexit$$00000003)
    .ARM.Collect$$rtexit$$00000004           0x080001cc   Section        6  rtexit2.o(.ARM.Collect$$rtexit$$00000004)
    .emb_text                                0x080001d4   Section        0  maybetermalloc1.o(.emb_text)
    .text                                    0x080001d4   Section        0  main.o(.text)
    .text                                    0x0800091c   Section        0  stm32f10x_it.o(.text)
    .text                                    0x08000948   Section        0  system_stm32f10x.o(.text)
    SetSysClockTo72                          0x08000949   Thumb Code   214  system_stm32f10x.o(.text)
    SetSysClock                              0x08000a1f   Thumb Code     8  system_stm32f10x.o(.text)
    .text                                    0x08000b28   Section        0  usermath.o(.text)
    .text                                    0x08000cb0   Section        0  uprotocol.o(.text)
    .text                                    0x08000f54   Section        0  iir.o(.text)
    .text                                    0x080017ac   Section        0  led.o(.text)
    .text                                    0x080017dc   Section        0  timer.o(.text)
    .text                                    0x080018e8   Section        0  motor.o(.text)
    .text                                    0x08001e9c   Section        0  sys.o(.text)
    .text                                    0x08001ea8   Section        0  delay.o(.text)
    .text                                    0x08001f7c   Section        0  usart.o(.text)
    .text                                    0x080024a4   Section       64  startup_stm32f10x_hd.o(.text)
    .text                                    0x080024e4   Section        0  stm32f10x_usart.o(.text)
    .text                                    0x080028ec   Section        0  misc.o(.text)
    .text                                    0x080029c8   Section        0  stm32f10x_gpio.o(.text)
    .text                                    0x08002d24   Section        0  stm32f10x_rcc.o(.text)
    .text                                    0x080030c8   Section        0  stm32f10x_dma.o(.text)
    .text                                    0x0800331c   Section        0  stm32f10x_i2c.o(.text)
    .text                                    0x08003720   Section        0  stm32f10x_tim.o(.text)
    TI4_Config                               0x08003bc7   Thumb Code   130  stm32f10x_tim.o(.text)
    TI3_Config                               0x08003c5b   Thumb Code   122  stm32f10x_tim.o(.text)
    TI2_Config                               0x08003cef   Thumb Code   130  stm32f10x_tim.o(.text)
    TI1_Config                               0x08003d83   Thumb Code   108  stm32f10x_tim.o(.text)
    .text                                    0x0800453c   Section        0  ano_tc_stm32f1_i2c.o(.text)
    .text                                    0x08004da0   Section        0  h1_alloc.o(.text)
    .text                                    0x08004dfe   Section        0  h1_free.o(.text)
    .text                                    0x08004e4c   Section       78  rt_memclr_w.o(.text)
    .text                                    0x08004e9a   Section        0  heapauxi.o(.text)
    .text                                    0x08004ea0   Section        8  rt_heap_descriptor_intlibspace.o(.text)
    .text                                    0x08004ea8   Section        0  hguard.o(.text)
    .text                                    0x08004eac   Section        0  init_alloc.o(.text)
    .text                                    0x08004f36   Section        0  h1_init.o(.text)
    .text                                    0x08004f44   Section        0  _rserrno.o(.text)
    .text                                    0x08004f5c   Section        8  libspace.o(.text)
    .text                                    0x08004f64   Section        8  rt_errno_addr_intlibspace.o(.text)
    .text                                    0x08004f6c   Section        0  h1_extend.o(.text)
    .text                                    0x08004fa0   Section        0  defsig_rtmem_outer.o(.text)
    .text                                    0x08004fae   Section        2  use_no_semi.o(.text)
    .text                                    0x08004fb0   Section        0  indicate_semi.o(.text)
    .text                                    0x08004fb0   Section       74  sys_stackheap_outer.o(.text)
    .text                                    0x08004ffa   Section        0  exit.o(.text)
    .text                                    0x0800500c   Section        0  defsig_exit.o(.text)
    .text                                    0x08005018   Section        0  defsig_rtmem_inner.o(.text)
    .text                                    0x08005068   Section        0  sys_exit.o(.text)
    .text                                    0x08005074   Section        0  defsig_general.o(.text)
    .text                                    0x080050a6   Section        0  sys_wrch.o(.text)
    i.__ARM_fpclassify                       0x080050b4   Section        0  fpclassify.o(i.__ARM_fpclassify)
    i.__ieee754_rem_pio2                     0x080050dc   Section        0  rred.o(i.__ieee754_rem_pio2)
    i.__kernel_cos                           0x08005464   Section        0  cos_i.o(i.__kernel_cos)
    i.__kernel_poly                          0x08005560   Section        0  poly.o(i.__kernel_poly)
    i.__kernel_sin                           0x0800560c   Section        0  sin_i.o(i.__kernel_sin)
    i.__kernel_tan                           0x080056f8   Section        0  tan_i.o(i.__kernel_tan)
    i.__mathlib_dbl_divzero                  0x08005974   Section        0  dunder.o(i.__mathlib_dbl_divzero)
    i.__mathlib_dbl_infnan                   0x08005984   Section        0  dunder.o(i.__mathlib_dbl_infnan)
    i.__mathlib_dbl_infnan2                  0x0800598a   Section        0  dunder.o(i.__mathlib_dbl_infnan2)
    i.__mathlib_dbl_invalid                  0x0800598e   Section        0  dunder.o(i.__mathlib_dbl_invalid)
    i.__mathlib_dbl_overflow                 0x0800599a   Section        0  dunder.o(i.__mathlib_dbl_overflow)
    i.__mathlib_dbl_underflow                0x080059a8   Section        0  dunder.o(i.__mathlib_dbl_underflow)
    i.ceil                                   0x080059b8   Section        0  ceil.o(i.ceil)
    i.cos                                    0x08005a94   Section        0  cos.o(i.cos)
    i.log                                    0x08005b30   Section        0  log.o(i.log)
    i.log10                                  0x08005e8c   Section        0  log10.o(i.log10)
    i.pow                                    0x08005f70   Section        0  pow.o(i.pow)
    i.sin                                    0x08006948   Section        0  sin.o(i.sin)
    i.sqrt                                   0x080069e8   Section        0  sqrt.o(i.sqrt)
    i.tan                                    0x08006a34   Section        0  tan.o(i.tan)
    x$fpl$d2f                                0x08006a98   Section       98  d2f.o(x$fpl$d2f)
    x$fpl$dadd                               0x08006afc   Section      336  daddsub_clz.o(x$fpl$dadd)
    _dadd1                                   0x08006b0d   Thumb Code     0  daddsub_clz.o(x$fpl$dadd)
    x$fpl$dcheck1                            0x08006c4c   Section       16  dcheck1.o(x$fpl$dcheck1)
    x$fpl$dcmpinf                            0x08006c5c   Section       24  dcmpi.o(x$fpl$dcmpinf)
    x$fpl$ddiv                               0x08006c74   Section      688  ddiv.o(x$fpl$ddiv)
    ddiv_entry                               0x08006c7b   Thumb Code     0  ddiv.o(x$fpl$ddiv)
    x$fpl$deqf                               0x08006f24   Section      120  deqf.o(x$fpl$deqf)
    x$fpl$dfix                               0x08006f9c   Section       94  dfix.o(x$fpl$dfix)
    x$fpl$dfixu                              0x08006ffc   Section       90  dfixu.o(x$fpl$dfixu)
    x$fpl$dflt                               0x08007056   Section       46  dflt_clz.o(x$fpl$dflt)
    x$fpl$dfltu                              0x08007084   Section       38  dflt_clz.o(x$fpl$dfltu)
    x$fpl$dleqf                              0x080070ac   Section      120  dleqf.o(x$fpl$dleqf)
    x$fpl$dmul                               0x08007124   Section      340  dmul.o(x$fpl$dmul)
    x$fpl$dnaninf                            0x08007278   Section      156  dnaninf.o(x$fpl$dnaninf)
    x$fpl$dretinf                            0x08007314   Section       12  dretinf.o(x$fpl$dretinf)
    x$fpl$drleqf                             0x08007320   Section      108  drleqf.o(x$fpl$drleqf)
    x$fpl$drsb                               0x0800738c   Section       22  daddsub_clz.o(x$fpl$drsb)
    x$fpl$dsqrt                              0x080073a4   Section      460  dsqrt_noumaal.o(x$fpl$dsqrt)
    x$fpl$dsub                               0x08007570   Section      468  daddsub_clz.o(x$fpl$dsub)
    _dsub1                                   0x08007581   Thumb Code     0  daddsub_clz.o(x$fpl$dsub)
    x$fpl$f2d                                0x08007744   Section       86  f2d.o(x$fpl$f2d)
    x$fpl$fadd                               0x0800779c   Section      196  faddsub_clz.o(x$fpl$fadd)
    _fadd1                                   0x080077ab   Thumb Code     0  faddsub_clz.o(x$fpl$fadd)
    x$fpl$fcmpinf                            0x08007860   Section       24  fcmpi.o(x$fpl$fcmpinf)
    x$fpl$fdiv                               0x08007878   Section      388  fdiv.o(x$fpl$fdiv)
    _fdiv1                                   0x08007879   Thumb Code     0  fdiv.o(x$fpl$fdiv)
    x$fpl$ffix                               0x080079fc   Section       54  ffix.o(x$fpl$ffix)
    x$fpl$ffixu                              0x08007a34   Section       62  ffixu.o(x$fpl$ffixu)
    x$fpl$fflt                               0x08007a74   Section       48  fflt_clz.o(x$fpl$fflt)
    x$fpl$ffltu                              0x08007aa4   Section       38  fflt_clz.o(x$fpl$ffltu)
    x$fpl$fleqf                              0x08007acc   Section      104  fleqf.o(x$fpl$fleqf)
    x$fpl$fmul                               0x08007b34   Section      258  fmul.o(x$fpl$fmul)
    x$fpl$fnaninf                            0x08007c36   Section      140  fnaninf.o(x$fpl$fnaninf)
    x$fpl$fretinf                            0x08007cc2   Section       10  fretinf.o(x$fpl$fretinf)
    x$fpl$frleqf                             0x08007ccc   Section       98  frleqf.o(x$fpl$frleqf)
    x$fpl$fsub                               0x08007d30   Section      234  faddsub_clz.o(x$fpl$fsub)
    _fsub1                                   0x08007d3f   Thumb Code     0  faddsub_clz.o(x$fpl$fsub)
    x$fpl$retnan                             0x08007e1a   Section      100  retnan.o(x$fpl$retnan)
    x$fpl$scalbn                             0x08007e7e   Section       92  scalbn.o(x$fpl$scalbn)
    x$fpl$trapveneer                         0x08007eda   Section       48  trapv.o(x$fpl$trapveneer)
    x$fpl$usenofp                            0x08007f0a   Section        0  usenofp.o(x$fpl$usenofp)
    .constdata                               0x08007f0c   Section     3604  usermath.o(.constdata)
    .constdata                               0x08008d20   Section      136  pow.o(.constdata)
    bp                                       0x08008d20   Data          16  pow.o(.constdata)
    dp_h                                     0x08008d30   Data          16  pow.o(.constdata)
    dp_l                                     0x08008d40   Data          16  pow.o(.constdata)
    L                                        0x08008d50   Data          48  pow.o(.constdata)
    P                                        0x08008d80   Data          40  pow.o(.constdata)
    .constdata                               0x08008da8   Section       48  cos_i.o(.constdata)
    C                                        0x08008da8   Data          48  cos_i.o(.constdata)
    .constdata                               0x08008dd8   Section       56  log.o(.constdata)
    Lg2                                      0x08008dd8   Data          24  log.o(.constdata)
    Lg                                       0x08008df0   Data          32  log.o(.constdata)
    .constdata                               0x08008e10   Section        8  qnan.o(.constdata)
    .constdata                               0x08008e18   Section      200  rred.o(.constdata)
    pio2s                                    0x08008e18   Data          48  rred.o(.constdata)
    twooverpi                                0x08008e48   Data         152  rred.o(.constdata)
    .constdata                               0x08008ee0   Section       40  sin_i.o(.constdata)
    S                                        0x08008ee0   Data          40  sin_i.o(.constdata)
    .constdata                               0x08008f08   Section       96  tan_i.o(.constdata)
    Todd                                     0x08008f08   Data          48  tan_i.o(.constdata)
    Teven                                    0x08008f38   Data          48  tan_i.o(.constdata)
    .data                                    0x20000000   Section       20  main.o(.data)
    tt                                       0x20000010   Data           4  main.o(.data)
    .data                                    0x20000014   Section       20  system_stm32f10x.o(.data)
    .data                                    0x20000028   Section       44  imu.o(.data)
    .data                                    0x20000054   Section        4  timer.o(.data)
    .data                                    0x20000058   Section       45  motor.o(.data)
    .data                                    0x20000086   Section        4  delay.o(.data)
    fac_us                                   0x20000086   Data           1  delay.o(.data)
    fac_ms                                   0x20000088   Data           2  delay.o(.data)
    .data                                    0x2000008a   Section        6  usart.o(.data)
    .data                                    0x20000090   Section       20  stm32f10x_rcc.o(.data)
    APBAHBPrescTable                         0x20000090   Data          16  stm32f10x_rcc.o(.data)
    ADCPrescTable                            0x200000a0   Data           4  stm32f10x_rcc.o(.data)
    .data                                    0x200000a4   Section       17  ano_tc_stm32f1_i2c.o(.data)
    .bss                                     0x200000b8   Section      444  mpu6050.o(.bss)
    .bss                                     0x20000274   Section     2048  usart.o(.bss)
    .bss                                     0x20000a74   Section       96  libspace.o(.bss)
    HEAP                                     0x20000ad8   Section      512  startup_stm32f10x_hd.o(HEAP)
    Heap_Mem                                 0x20000ad8   Data         512  startup_stm32f10x_hd.o(HEAP)
    STACK                                    0x20000cd8   Section     1024  startup_stm32f10x_hd.o(STACK)
    Stack_Mem                                0x20000cd8   Data        1024  startup_stm32f10x_hd.o(STACK)
    __initial_sp                             0x200010d8   Data           0  startup_stm32f10x_hd.o(STACK)

    Global Symbols

    Symbol Name                              Value     Ov Type        Size  Object(Section)

    BuildAttributes$$THM_ISAv4$P$D$K$B$S$PE$A:L22UL41UL21$X:L11$S22US41US21$IEEE1$IW$USESV6$~STKCKD$USESV7$~SHL$OTIME$ROPI$IEEEX$EBA8$UX$STANDARDLIB$REQ8$PRES8$EABIv2 0x00000000   Number         0  anon$$obj.o ABSOLUTE
    __ARM_use_no_argv                        0x00000000   Number         0  main.o ABSOLUTE
    __ARM_exceptions_init                     - Undefined Weak Reference
    __alloca_initialize                       - Undefined Weak Reference
    __arm_preinit_                            - Undefined Weak Reference
    __cpp_initialize__aeabi_                  - Undefined Weak Reference
    __cxa_finalize                            - Undefined Weak Reference
    __rt_locale                               - Undefined Weak Reference
    __sigvec_lookup                           - Undefined Weak Reference
    __user_heap_extent                        - Undefined Weak Reference
    _atexit_init                              - Undefined Weak Reference
    _call_atexit_fns                          - Undefined Weak Reference
    _clock_init                               - Undefined Weak Reference
    _fp_trap_init                             - Undefined Weak Reference
    _fp_trap_shutdown                         - Undefined Weak Reference
    _get_lc_collate                           - Undefined Weak Reference
    _get_lc_ctype                             - Undefined Weak Reference
    _get_lc_monetary                          - Undefined Weak Reference
    _get_lc_numeric                           - Undefined Weak Reference
    _get_lc_time                              - Undefined Weak Reference
    _getenv_init                              - Undefined Weak Reference
    _handle_redirection                       - Undefined Weak Reference
    _initio                                   - Undefined Weak Reference
    _mutex_acquire                            - Undefined Weak Reference
    _mutex_free                               - Undefined Weak Reference
    _mutex_release                            - Undefined Weak Reference
    _rand_init                                - Undefined Weak Reference
    _signal_finish                            - Undefined Weak Reference
    _signal_init                              - Undefined Weak Reference
    _terminateio                              - Undefined Weak Reference
    __Vectors_Size                           0x00000130   Number         0  startup_stm32f10x_hd.o ABSOLUTE
    __Vectors                                0x08000000   Data           4  startup_stm32f10x_hd.o(RESET)
    __Vectors_End                            0x08000130   Data           0  startup_stm32f10x_hd.o(RESET)
    __main                                   0x08000131   Thumb Code     8  __main.o(!!!main)
    __scatterload                            0x08000139   Thumb Code     0  __scatter.o(!!!scatter)
    __scatterload_rt2                        0x08000139   Thumb Code    44  __scatter.o(!!!scatter)
    __scatterload_rt2_thumb_only             0x08000139   Thumb Code     0  __scatter.o(!!!scatter)
    __scatterload_null                       0x08000147   Thumb Code     0  __scatter.o(!!!scatter)
    __scatterload_copy                       0x0800016d   Thumb Code    26  __scatter_copy.o(!!handler_copy)
    __scatterload_zeroinit                   0x08000189   Thumb Code    28  __scatter_zi.o(!!handler_zi)
    __rt_lib_init                            0x080001a5   Thumb Code     0  libinit.o(.ARM.Collect$$libinit$$00000000)
    __rt_lib_init_fp_1                       0x080001a7   Thumb Code     0  libinit2.o(.ARM.Collect$$libinit$$00000002)
    __rt_lib_init_heap_2                     0x080001a7   Thumb Code     0  libinit2.o(.ARM.Collect$$libinit$$00000005)
    __rt_lib_init_preinit_1                  0x080001a7   Thumb Code     0  libinit2.o(.ARM.Collect$$libinit$$00000004)
    __rt_lib_init_alloca_1                   0x080001af   Thumb Code     0  libinit2.o(.ARM.Collect$$libinit$$0000002E)
    __rt_lib_init_argv_1                     0x080001af   Thumb Code     0  libinit2.o(.ARM.Collect$$libinit$$0000002C)
    __rt_lib_init_atexit_1                   0x080001af   Thumb Code     0  libinit2.o(.ARM.Collect$$libinit$$0000001B)
    __rt_lib_init_clock_1                    0x080001af   Thumb Code     0  libinit2.o(.ARM.Collect$$libinit$$00000021)
    __rt_lib_init_cpp_1                      0x080001af   Thumb Code     0  libinit2.o(.ARM.Collect$$libinit$$00000032)
    __rt_lib_init_exceptions_1               0x080001af   Thumb Code     0  libinit2.o(.ARM.Collect$$libinit$$00000030)
    __rt_lib_init_fp_trap_1                  0x080001af   Thumb Code     0  libinit2.o(.ARM.Collect$$libinit$$0000001F)
    __rt_lib_init_getenv_1                   0x080001af   Thumb Code     0  libinit2.o(.ARM.Collect$$libinit$$00000023)
    __rt_lib_init_heap_1                     0x080001af   Thumb Code     0  libinit2.o(.ARM.Collect$$libinit$$0000000A)
    __rt_lib_init_lc_collate_1               0x080001af   Thumb Code     0  libinit2.o(.ARM.Collect$$libinit$$00000011)
    __rt_lib_init_lc_ctype_1                 0x080001af   Thumb Code     0  libinit2.o(.ARM.Collect$$libinit$$00000013)
    __rt_lib_init_lc_monetary_1              0x080001af   Thumb Code     0  libinit2.o(.ARM.Collect$$libinit$$00000015)
    __rt_lib_init_lc_numeric_1               0x080001af   Thumb Code     0  libinit2.o(.ARM.Collect$$libinit$$00000017)
    __rt_lib_init_lc_time_1                  0x080001af   Thumb Code     0  libinit2.o(.ARM.Collect$$libinit$$00000019)
    __rt_lib_init_rand_1                     0x080001af   Thumb Code     0  libinit2.o(.ARM.Collect$$libinit$$0000000E)
    __rt_lib_init_return                     0x080001af   Thumb Code     0  libinit2.o(.ARM.Collect$$libinit$$00000033)
    __rt_lib_init_signal_1                   0x080001af   Thumb Code     0  libinit2.o(.ARM.Collect$$libinit$$0000001D)
    __rt_lib_init_stdio_1                    0x080001af   Thumb Code     0  libinit2.o(.ARM.Collect$$libinit$$00000025)
    __rt_lib_init_user_alloc_1               0x080001af   Thumb Code     0  libinit2.o(.ARM.Collect$$libinit$$0000000C)
    __rt_lib_shutdown                        0x080001b1   Thumb Code     0  libshutdown.o(.ARM.Collect$$libshutdown$$00000000)
    __rt_lib_shutdown_cpp_1                  0x080001b3   Thumb Code     0  libshutdown2.o(.ARM.Collect$$libshutdown$$00000002)
    __rt_lib_shutdown_fp_trap_1              0x080001b3   Thumb Code     0  libshutdown2.o(.ARM.Collect$$libshutdown$$00000007)
    __rt_lib_shutdown_heap_1                 0x080001b3   Thumb Code     0  libshutdown2.o(.ARM.Collect$$libshutdown$$0000000F)
    __rt_lib_shutdown_return                 0x080001b3   Thumb Code     0  libshutdown2.o(.ARM.Collect$$libshutdown$$00000010)
    __rt_lib_shutdown_signal_1               0x080001b3   Thumb Code     0  libshutdown2.o(.ARM.Collect$$libshutdown$$0000000A)
    __rt_lib_shutdown_stdio_1                0x080001b3   Thumb Code     0  libshutdown2.o(.ARM.Collect$$libshutdown$$00000004)
    __rt_lib_shutdown_user_alloc_1           0x080001b3   Thumb Code     0  libshutdown2.o(.ARM.Collect$$libshutdown$$0000000C)
    __rt_entry                               0x080001b5   Thumb Code     0  __rtentry.o(.ARM.Collect$$rtentry$$00000000)
    __rt_entry_presh_1                       0x080001b5   Thumb Code     0  __rtentry2.o(.ARM.Collect$$rtentry$$00000002)
    __rt_entry_sh                            0x080001b5   Thumb Code     0  __rtentry4.o(.ARM.Collect$$rtentry$$00000004)
    __rt_entry_li                            0x080001bb   Thumb Code     0  __rtentry2.o(.ARM.Collect$$rtentry$$0000000A)
    __rt_entry_postsh_1                      0x080001bb   Thumb Code     0  __rtentry2.o(.ARM.Collect$$rtentry$$00000009)
    __rt_entry_main                          0x080001bf   Thumb Code     0  __rtentry2.o(.ARM.Collect$$rtentry$$0000000D)
    __rt_entry_postli_1                      0x080001bf   Thumb Code     0  __rtentry2.o(.ARM.Collect$$rtentry$$0000000C)
    __rt_exit                                0x080001c7   Thumb Code     0  rtexit.o(.ARM.Collect$$rtexit$$00000000)
    __rt_exit_ls                             0x080001c9   Thumb Code     0  rtexit2.o(.ARM.Collect$$rtexit$$00000003)
    __rt_exit_prels_1                        0x080001c9   Thumb Code     0  rtexit2.o(.ARM.Collect$$rtexit$$00000002)
    __rt_exit_exit                           0x080001cd   Thumb Code     0  rtexit2.o(.ARM.Collect$$rtexit$$00000004)
    Main_loop_200MS_First                    0x080001d5   Thumb Code     2  main.o(.text)
    _maybe_terminate_alloc                   0x080001d5   Thumb Code     0  maybetermalloc1.o(.emb_text)
    Main_loop_100MS_First                    0x080001d7   Thumb Code    18  main.o(.text)
    Main_loop_20MS_First                     0x080001e9   Thumb Code     2  main.o(.text)
    Main_loop_10MS_First                     0x080001eb   Thumb Code     2  main.o(.text)
    main                                     0x080001ed   Thumb Code  1740  main.o(.text)
    I2C2_EV_IRQHandler                       0x0800091d   Thumb Code     8  stm32f10x_it.o(.text)
    I2C2_ER_IRQHandler                       0x08000925   Thumb Code     8  stm32f10x_it.o(.text)
    NMI_Handler                              0x0800092d   Thumb Code     2  stm32f10x_it.o(.text)
    HardFault_Handler                        0x0800092f   Thumb Code     4  stm32f10x_it.o(.text)
    MemManage_Handler                        0x08000933   Thumb Code     4  stm32f10x_it.o(.text)
    BusFault_Handler                         0x08000937   Thumb Code     4  stm32f10x_it.o(.text)
    UsageFault_Handler                       0x0800093b   Thumb Code     4  stm32f10x_it.o(.text)
    SVC_Handler                              0x0800093f   Thumb Code     2  stm32f10x_it.o(.text)
    DebugMon_Handler                         0x08000941   Thumb Code     2  stm32f10x_it.o(.text)
    PendSV_Handler                           0x08000943   Thumb Code     2  stm32f10x_it.o(.text)
    SysTick_Handler                          0x08000945   Thumb Code     2  stm32f10x_it.o(.text)
    SystemInit                               0x08000a27   Thumb Code    78  system_stm32f10x.o(.text)
    SystemCoreClockUpdate                    0x08000a75   Thumb Code   142  system_stm32f10x.o(.text)
    Math_fConstrain                          0x08000b29   Thumb Code    38  usermath.o(.text)
    get_add_check                            0x08000b4f   Thumb Code    30  usermath.o(.text)
    BCC_Check                                0x08000b6d   Thumb Code    28  usermath.o(.text)
    move_average_filtaer                     0x08000b89   Thumb Code   114  usermath.o(.text)
    FastSin                                  0x08000bfb   Thumb Code   170  usermath.o(.text)
    Upload_data                              0x08000cb1   Thumb Code   376  uprotocol.o(.text)
    Upload_Gcs_data                          0x08000e29   Thumb Code   266  uprotocol.o(.text)
    Complex_Multiple                         0x08000f55   Thumb Code   112  iir.o(.text)
    Complex_Division                         0x08000fc5   Thumb Code   246  iir.o(.text)
    Complex_Abs                              0x080010bb   Thumb Code    70  iir.o(.text)
    IIRFilter                                0x08001101   Thumb Code   256  iir.o(.text)
    Direct                                   0x08001201   Thumb Code  1450  iir.o(.text)
    LED_Init                                 0x080017ad   Thumb Code    44  led.o(.text)
    TIM3_Int_Init                            0x080017dd   Thumb Code    50  timer.o(.text)
    Wait_processing                          0x0800180f   Thumb Code    28  timer.o(.text)
    TIM4_Int_Init                            0x0800182b   Thumb Code    88  timer.o(.text)
    micros                                   0x08001883   Thumb Code    24  timer.o(.text)
    millis                                   0x0800189b   Thumb Code    32  timer.o(.text)
    TIM4_IRQHandler                          0x080018bb   Thumb Code    32  timer.o(.text)
    TIM1_Cap_Init                            0x080018e9   Thumb Code   164  motor.o(.text)
    TIM2_Motor_Init                          0x0800198d   Thumb Code   156  motor.o(.text)
    TIM1_CC_IRQHandler                       0x08001a29   Thumb Code   212  motor.o(.text)
    MotorTest                                0x08001afd   Thumb Code   164  motor.o(.text)
    MotorDriver                              0x08001ba1   Thumb Code   584  motor.o(.text)
    GetMotorAnglePosition                    0x08001de9   Thumb Code   132  motor.o(.text)
    NVIC_Configuration                       0x08001e9d   Thumb Code    12  sys.o(.text)
    delay_init                               0x08001ea9   Thumb Code    50  delay.o(.text)
    delay_us                                 0x08001edb   Thumb Code    72  delay.o(.text)
    delay_ms                                 0x08001f23   Thumb Code    72  delay.o(.text)
    UART1_DMA_Configuration                  0x08001f7d   Thumb Code   220  usart.o(.text)
    UART3_DMA_Configuration                  0x08002059   Thumb Code   230  usart.o(.text)
    uart1_init                               0x0800213f   Thumb Code   200  usart.o(.text)
    uart3_init                               0x08002207   Thumb Code   208  usart.o(.text)
    Uart1Sends                               0x080022d7   Thumb Code    44  usart.o(.text)
    Uart3Sends                               0x08002303   Thumb Code    48  usart.o(.text)
    USART1_IRQHandler                        0x08002333   Thumb Code   170  usart.o(.text)
    USART3_IRQHandler                        0x080023dd   Thumb Code   112  usart.o(.text)
    DMA1_Channel4_IRQHandler                 0x0800244d   Thumb Code    36  usart.o(.text)
    DMA1_Channel2_IRQHandler                 0x08002471   Thumb Code    32  usart.o(.text)
    Reset_Handler                            0x080024a5   Thumb Code     8  startup_stm32f10x_hd.o(.text)
    ADC1_2_IRQHandler                        0x080024bf   Thumb Code     0  startup_stm32f10x_hd.o(.text)
    ADC3_IRQHandler                          0x080024bf   Thumb Code     0  startup_stm32f10x_hd.o(.text)
    CAN1_RX1_IRQHandler                      0x080024bf   Thumb Code     0  startup_stm32f10x_hd.o(.text)
    CAN1_SCE_IRQHandler                      0x080024bf   Thumb Code     0  startup_stm32f10x_hd.o(.text)
    DMA1_Channel1_IRQHandler                 0x080024bf   Thumb Code     0  startup_stm32f10x_hd.o(.text)
    DMA1_Channel3_IRQHandler                 0x080024bf   Thumb Code     0  startup_stm32f10x_hd.o(.text)
    DMA1_Channel5_IRQHandler                 0x080024bf   Thumb Code     0  startup_stm32f10x_hd.o(.text)
    DMA1_Channel6_IRQHandler                 0x080024bf   Thumb Code     0  startup_stm32f10x_hd.o(.text)
    DMA1_Channel7_IRQHandler                 0x080024bf   Thumb Code     0  startup_stm32f10x_hd.o(.text)
    DMA2_Channel1_IRQHandler                 0x080024bf   Thumb Code     0  startup_stm32f10x_hd.o(.text)
    DMA2_Channel2_IRQHandler                 0x080024bf   Thumb Code     0  startup_stm32f10x_hd.o(.text)
    DMA2_Channel3_IRQHandler                 0x080024bf   Thumb Code     0  startup_stm32f10x_hd.o(.text)
    DMA2_Channel4_5_IRQHandler               0x080024bf   Thumb Code     0  startup_stm32f10x_hd.o(.text)
    EXTI0_IRQHandler                         0x080024bf   Thumb Code     0  startup_stm32f10x_hd.o(.text)
    EXTI15_10_IRQHandler                     0x080024bf   Thumb Code     0  startup_stm32f10x_hd.o(.text)
    EXTI1_IRQHandler                         0x080024bf   Thumb Code     0  startup_stm32f10x_hd.o(.text)
    EXTI2_IRQHandler                         0x080024bf   Thumb Code     0  startup_stm32f10x_hd.o(.text)
    EXTI3_IRQHandler                         0x080024bf   Thumb Code     0  startup_stm32f10x_hd.o(.text)
    EXTI4_IRQHandler                         0x080024bf   Thumb Code     0  startup_stm32f10x_hd.o(.text)
    EXTI9_5_IRQHandler                       0x080024bf   Thumb Code     0  startup_stm32f10x_hd.o(.text)
    FLASH_IRQHandler                         0x080024bf   Thumb Code     0  startup_stm32f10x_hd.o(.text)
    FSMC_IRQHandler                          0x080024bf   Thumb Code     0  startup_stm32f10x_hd.o(.text)
    I2C1_ER_IRQHandler                       0x080024bf   Thumb Code     0  startup_stm32f10x_hd.o(.text)
    I2C1_EV_IRQHandler                       0x080024bf   Thumb Code     0  startup_stm32f10x_hd.o(.text)
    PVD_IRQHandler                           0x080024bf   Thumb Code     0  startup_stm32f10x_hd.o(.text)
    RCC_IRQHandler                           0x080024bf   Thumb Code     0  startup_stm32f10x_hd.o(.text)
    RTCAlarm_IRQHandler                      0x080024bf   Thumb Code     0  startup_stm32f10x_hd.o(.text)
    RTC_IRQHandler                           0x080024bf   Thumb Code     0  startup_stm32f10x_hd.o(.text)
    SDIO_IRQHandler                          0x080024bf   Thumb Code     0  startup_stm32f10x_hd.o(.text)
    SPI1_IRQHandler                          0x080024bf   Thumb Code     0  startup_stm32f10x_hd.o(.text)
    SPI2_IRQHandler                          0x080024bf   Thumb Code     0  startup_stm32f10x_hd.o(.text)
    SPI3_IRQHandler                          0x080024bf   Thumb Code     0  startup_stm32f10x_hd.o(.text)
    TAMPER_IRQHandler                        0x080024bf   Thumb Code     0  startup_stm32f10x_hd.o(.text)
    TIM1_BRK_IRQHandler                      0x080024bf   Thumb Code     0  startup_stm32f10x_hd.o(.text)
    TIM1_TRG_COM_IRQHandler                  0x080024bf   Thumb Code     0  startup_stm32f10x_hd.o(.text)
    TIM1_UP_IRQHandler                       0x080024bf   Thumb Code     0  startup_stm32f10x_hd.o(.text)
    TIM2_IRQHandler                          0x080024bf   Thumb Code     0  startup_stm32f10x_hd.o(.text)
    TIM3_IRQHandler                          0x080024bf   Thumb Code     0  startup_stm32f10x_hd.o(.text)
    TIM5_IRQHandler                          0x080024bf   Thumb Code     0  startup_stm32f10x_hd.o(.text)
    TIM6_IRQHandler                          0x080024bf   Thumb Code     0  startup_stm32f10x_hd.o(.text)
    TIM7_IRQHandler                          0x080024bf   Thumb Code     0  startup_stm32f10x_hd.o(.text)
    TIM8_BRK_IRQHandler                      0x080024bf   Thumb Code     0  startup_stm32f10x_hd.o(.text)
    TIM8_CC_IRQHandler                       0x080024bf   Thumb Code     0  startup_stm32f10x_hd.o(.text)
    TIM8_TRG_COM_IRQHandler                  0x080024bf   Thumb Code     0  startup_stm32f10x_hd.o(.text)
    TIM8_UP_IRQHandler                       0x080024bf   Thumb Code     0  startup_stm32f10x_hd.o(.text)
    UART4_IRQHandler                         0x080024bf   Thumb Code     0  startup_stm32f10x_hd.o(.text)
    UART5_IRQHandler                         0x080024bf   Thumb Code     0  startup_stm32f10x_hd.o(.text)
    USART2_IRQHandler                        0x080024bf   Thumb Code     0  startup_stm32f10x_hd.o(.text)
    USBWakeUp_IRQHandler                     0x080024bf   Thumb Code     0  startup_stm32f10x_hd.o(.text)
    USB_HP_CAN1_TX_IRQHandler                0x080024bf   Thumb Code     0  startup_stm32f10x_hd.o(.text)
    USB_LP_CAN1_RX0_IRQHandler               0x080024bf   Thumb Code     0  startup_stm32f10x_hd.o(.text)
    WWDG_IRQHandler                          0x080024bf   Thumb Code     0  startup_stm32f10x_hd.o(.text)
    __user_initial_stackheap                 0x080024c1   Thumb Code     0  startup_stm32f10x_hd.o(.text)
    USART_DeInit                             0x080024e5   Thumb Code   134  stm32f10x_usart.o(.text)
    USART_Init                               0x0800256b   Thumb Code   210  stm32f10x_usart.o(.text)
    USART_StructInit                         0x0800263d   Thumb Code    24  stm32f10x_usart.o(.text)
    USART_ClockInit                          0x08002655   Thumb Code    34  stm32f10x_usart.o(.text)
    USART_ClockStructInit                    0x08002677   Thumb Code    12  stm32f10x_usart.o(.text)
    USART_Cmd                                0x08002683   Thumb Code    24  stm32f10x_usart.o(.text)
    USART_ITConfig                           0x0800269b   Thumb Code    74  stm32f10x_usart.o(.text)
    USART_DMACmd                             0x080026e5   Thumb Code    18  stm32f10x_usart.o(.text)
    USART_SetAddress                         0x080026f7   Thumb Code    18  stm32f10x_usart.o(.text)
    USART_WakeUpConfig                       0x08002709   Thumb Code    18  stm32f10x_usart.o(.text)
    USART_ReceiverWakeUpCmd                  0x0800271b   Thumb Code    24  stm32f10x_usart.o(.text)
    USART_LINBreakDetectLengthConfig         0x08002733   Thumb Code    18  stm32f10x_usart.o(.text)
    USART_LINCmd                             0x08002745   Thumb Code    24  stm32f10x_usart.o(.text)
    USART_SendData                           0x0800275d   Thumb Code     8  stm32f10x_usart.o(.text)
    USART_ReceiveData                        0x08002765   Thumb Code    10  stm32f10x_usart.o(.text)
    USART_SendBreak                          0x0800276f   Thumb Code    10  stm32f10x_usart.o(.text)
    USART_SetGuardTime                       0x08002779   Thumb Code    16  stm32f10x_usart.o(.text)
    USART_SetPrescaler                       0x08002789   Thumb Code    16  stm32f10x_usart.o(.text)
    USART_SmartCardCmd                       0x08002799   Thumb Code    24  stm32f10x_usart.o(.text)
    USART_SmartCardNACKCmd                   0x080027b1   Thumb Code    24  stm32f10x_usart.o(.text)
    USART_HalfDuplexCmd                      0x080027c9   Thumb Code    24  stm32f10x_usart.o(.text)
    USART_OverSampling8Cmd                   0x080027e1   Thumb Code    22  stm32f10x_usart.o(.text)
    USART_OneBitMethodCmd                    0x080027f7   Thumb Code    24  stm32f10x_usart.o(.text)
    USART_IrDAConfig                         0x0800280f   Thumb Code    18  stm32f10x_usart.o(.text)
    USART_IrDACmd                            0x08002821   Thumb Code    24  stm32f10x_usart.o(.text)
    USART_GetFlagStatus                      0x08002839   Thumb Code    26  stm32f10x_usart.o(.text)
    USART_ClearFlag                          0x08002853   Thumb Code    18  stm32f10x_usart.o(.text)
    USART_GetITStatus                        0x08002865   Thumb Code    84  stm32f10x_usart.o(.text)
    USART_ClearITPendingBit                  0x080028b9   Thumb Code    52  stm32f10x_usart.o(.text)
    NVIC_PriorityGroupConfig                 0x080028ed   Thumb Code    10  misc.o(.text)
    NVIC_Init                                0x080028f7   Thumb Code   100  misc.o(.text)
    NVIC_SetVectorTable                      0x0800295b   Thumb Code    14  misc.o(.text)
    NVIC_SystemLPConfig                      0x08002969   Thumb Code    34  misc.o(.text)
    SysTick_CLKSourceConfig                  0x0800298b   Thumb Code    40  misc.o(.text)
    GPIO_DeInit                              0x080029c9   Thumb Code   172  stm32f10x_gpio.o(.text)
    GPIO_AFIODeInit                          0x08002a75   Thumb Code    20  stm32f10x_gpio.o(.text)
    GPIO_Init                                0x08002a89   Thumb Code   278  stm32f10x_gpio.o(.text)
    GPIO_StructInit                          0x08002b9f   Thumb Code    16  stm32f10x_gpio.o(.text)
    GPIO_ReadInputDataBit                    0x08002baf   Thumb Code    18  stm32f10x_gpio.o(.text)
    GPIO_ReadInputData                       0x08002bc1   Thumb Code     8  stm32f10x_gpio.o(.text)
    GPIO_ReadOutputDataBit                   0x08002bc9   Thumb Code    18  stm32f10x_gpio.o(.text)
    GPIO_ReadOutputData                      0x08002bdb   Thumb Code     8  stm32f10x_gpio.o(.text)
    GPIO_SetBits                             0x08002be3   Thumb Code     4  stm32f10x_gpio.o(.text)
    GPIO_ResetBits                           0x08002be7   Thumb Code     4  stm32f10x_gpio.o(.text)
    GPIO_WriteBit                            0x08002beb   Thumb Code    10  stm32f10x_gpio.o(.text)
    GPIO_Write                               0x08002bf5   Thumb Code     4  stm32f10x_gpio.o(.text)
    GPIO_PinLockConfig                       0x08002bf9   Thumb Code    18  stm32f10x_gpio.o(.text)
    GPIO_EventOutputConfig                   0x08002c0b   Thumb Code    26  stm32f10x_gpio.o(.text)
    GPIO_EventOutputCmd                      0x08002c25   Thumb Code     6  stm32f10x_gpio.o(.text)
    GPIO_PinRemapConfig                      0x08002c2b   Thumb Code   138  stm32f10x_gpio.o(.text)
    GPIO_EXTILineConfig                      0x08002cb5   Thumb Code    66  stm32f10x_gpio.o(.text)
    GPIO_ETH_MediaInterfaceConfig            0x08002cf7   Thumb Code     8  stm32f10x_gpio.o(.text)
    RCC_DeInit                               0x08002d25   Thumb Code    64  stm32f10x_rcc.o(.text)
    RCC_HSEConfig                            0x08002d65   Thumb Code    70  stm32f10x_rcc.o(.text)
    RCC_GetFlagStatus                        0x08002dab   Thumb Code    56  stm32f10x_rcc.o(.text)
    RCC_WaitForHSEStartUp                    0x08002de3   Thumb Code    56  stm32f10x_rcc.o(.text)
    RCC_AdjustHSICalibrationValue            0x08002e1b   Thumb Code    20  stm32f10x_rcc.o(.text)
    RCC_HSICmd                               0x08002e2f   Thumb Code     6  stm32f10x_rcc.o(.text)
    RCC_PLLConfig                            0x08002e35   Thumb Code    24  stm32f10x_rcc.o(.text)
    RCC_PLLCmd                               0x08002e4d   Thumb Code     6  stm32f10x_rcc.o(.text)
    RCC_SYSCLKConfig                         0x08002e53   Thumb Code    18  stm32f10x_rcc.o(.text)
    RCC_GetSYSCLKSource                      0x08002e65   Thumb Code    10  stm32f10x_rcc.o(.text)
    RCC_HCLKConfig                           0x08002e6f   Thumb Code    18  stm32f10x_rcc.o(.text)
    RCC_PCLK1Config                          0x08002e81   Thumb Code    18  stm32f10x_rcc.o(.text)
    RCC_PCLK2Config                          0x08002e93   Thumb Code    20  stm32f10x_rcc.o(.text)
    RCC_ITConfig                             0x08002ea7   Thumb Code    26  stm32f10x_rcc.o(.text)
    RCC_USBCLKConfig                         0x08002ec1   Thumb Code     8  stm32f10x_rcc.o(.text)
    RCC_ADCCLKConfig                         0x08002ec9   Thumb Code    18  stm32f10x_rcc.o(.text)
    RCC_LSEConfig                            0x08002edb   Thumb Code    50  stm32f10x_rcc.o(.text)
    RCC_LSICmd                               0x08002f0d   Thumb Code     6  stm32f10x_rcc.o(.text)
    RCC_RTCCLKConfig                         0x08002f13   Thumb Code    12  stm32f10x_rcc.o(.text)
    RCC_RTCCLKCmd                            0x08002f1f   Thumb Code     8  stm32f10x_rcc.o(.text)
    RCC_GetClocksFreq                        0x08002f27   Thumb Code   192  stm32f10x_rcc.o(.text)
    RCC_AHBPeriphClockCmd                    0x08002fe7   Thumb Code    26  stm32f10x_rcc.o(.text)
    RCC_APB2PeriphClockCmd                   0x08003001   Thumb Code    26  stm32f10x_rcc.o(.text)
    RCC_APB1PeriphClockCmd                   0x0800301b   Thumb Code    26  stm32f10x_rcc.o(.text)
    RCC_APB2PeriphResetCmd                   0x08003035   Thumb Code    26  stm32f10x_rcc.o(.text)
    RCC_APB1PeriphResetCmd                   0x0800304f   Thumb Code    26  stm32f10x_rcc.o(.text)
    RCC_BackupResetCmd                       0x08003069   Thumb Code     8  stm32f10x_rcc.o(.text)
    RCC_ClockSecuritySystemCmd               0x08003071   Thumb Code     6  stm32f10x_rcc.o(.text)
    RCC_MCOConfig                            0x08003077   Thumb Code     6  stm32f10x_rcc.o(.text)
    RCC_ClearFlag                            0x0800307d   Thumb Code    14  stm32f10x_rcc.o(.text)
    RCC_GetITStatus                          0x0800308b   Thumb Code    20  stm32f10x_rcc.o(.text)
    RCC_ClearITPendingBit                    0x0800309f   Thumb Code     6  stm32f10x_rcc.o(.text)
    DMA_DeInit                               0x080030c9   Thumb Code   324  stm32f10x_dma.o(.text)
    DMA_Init                                 0x0800320d   Thumb Code    60  stm32f10x_dma.o(.text)
    DMA_StructInit                           0x08003249   Thumb Code    26  stm32f10x_dma.o(.text)
    DMA_Cmd                                  0x08003263   Thumb Code    24  stm32f10x_dma.o(.text)
    DMA_ITConfig                             0x0800327b   Thumb Code    18  stm32f10x_dma.o(.text)
    DMA_SetCurrDataCounter                   0x0800328d   Thumb Code     4  stm32f10x_dma.o(.text)
    DMA_GetCurrDataCounter                   0x08003291   Thumb Code     8  stm32f10x_dma.o(.text)
    DMA_GetFlagStatus                        0x08003299   Thumb Code    40  stm32f10x_dma.o(.text)
    DMA_ClearFlag                            0x080032c1   Thumb Code    22  stm32f10x_dma.o(.text)
    DMA_GetITStatus                          0x080032d7   Thumb Code    40  stm32f10x_dma.o(.text)
    DMA_ClearITPendingBit                    0x080032ff   Thumb Code    22  stm32f10x_dma.o(.text)
    I2C_DeInit                               0x0800331d   Thumb Code    50  stm32f10x_i2c.o(.text)
    I2C_Init                                 0x0800334f   Thumb Code   222  stm32f10x_i2c.o(.text)
    I2C_StructInit                           0x0800342d   Thumb Code    30  stm32f10x_i2c.o(.text)
    I2C_Cmd                                  0x0800344b   Thumb Code    24  stm32f10x_i2c.o(.text)
    I2C_DMACmd                               0x08003463   Thumb Code    24  stm32f10x_i2c.o(.text)
    I2C_DMALastTransferCmd                   0x0800347b   Thumb Code    24  stm32f10x_i2c.o(.text)
    I2C_GenerateSTART                        0x08003493   Thumb Code    24  stm32f10x_i2c.o(.text)
    I2C_GenerateSTOP                         0x080034ab   Thumb Code    24  stm32f10x_i2c.o(.text)
    I2C_AcknowledgeConfig                    0x080034c3   Thumb Code    24  stm32f10x_i2c.o(.text)
    I2C_OwnAddress2Config                    0x080034db   Thumb Code    22  stm32f10x_i2c.o(.text)
    I2C_DualAddressCmd                       0x080034f1   Thumb Code    24  stm32f10x_i2c.o(.text)
    I2C_GeneralCallCmd                       0x08003509   Thumb Code    24  stm32f10x_i2c.o(.text)
    I2C_ITConfig                             0x08003521   Thumb Code    18  stm32f10x_i2c.o(.text)
    I2C_SendData                             0x08003533   Thumb Code     4  stm32f10x_i2c.o(.text)
    I2C_ReceiveData                          0x08003537   Thumb Code     8  stm32f10x_i2c.o(.text)
    I2C_Send7bitAddress                      0x0800353f   Thumb Code    18  stm32f10x_i2c.o(.text)
    I2C_ReadRegister                         0x08003551   Thumb Code    22  stm32f10x_i2c.o(.text)
    I2C_SoftwareResetCmd                     0x08003567   Thumb Code    22  stm32f10x_i2c.o(.text)
    I2C_NACKPositionConfig                   0x0800357d   Thumb Code    28  stm32f10x_i2c.o(.text)
    I2C_SMBusAlertConfig                     0x08003599   Thumb Code    28  stm32f10x_i2c.o(.text)
    I2C_TransmitPEC                          0x080035b5   Thumb Code    24  stm32f10x_i2c.o(.text)
    I2C_PECPositionConfig                    0x080035cd   Thumb Code    28  stm32f10x_i2c.o(.text)
    I2C_CalculatePEC                         0x080035e9   Thumb Code    24  stm32f10x_i2c.o(.text)
    I2C_GetPEC                               0x08003601   Thumb Code     8  stm32f10x_i2c.o(.text)
    I2C_ARPCmd                               0x08003609   Thumb Code    24  stm32f10x_i2c.o(.text)
    I2C_StretchClockCmd                      0x08003621   Thumb Code    24  stm32f10x_i2c.o(.text)
    I2C_FastModeDutyCycleConfig              0x08003639   Thumb Code    28  stm32f10x_i2c.o(.text)
    I2C_CheckEvent                           0x08003655   Thumb Code    42  stm32f10x_i2c.o(.text)
    I2C_GetLastEvent                         0x0800367f   Thumb Code    26  stm32f10x_i2c.o(.text)
    I2C_GetFlagStatus                        0x08003699   Thumb Code    58  stm32f10x_i2c.o(.text)
    I2C_ClearFlag                            0x080036d3   Thumb Code    12  stm32f10x_i2c.o(.text)
    I2C_GetITStatus                          0x080036df   Thumb Code    54  stm32f10x_i2c.o(.text)
    I2C_ClearITPendingBit                    0x08003715   Thumb Code    12  stm32f10x_i2c.o(.text)
    TIM_DeInit                               0x08003721   Thumb Code   424  stm32f10x_tim.o(.text)
    TIM_TimeBaseInit                         0x080038c9   Thumb Code   122  stm32f10x_tim.o(.text)
    TIM_OC1Init                              0x08003943   Thumb Code   132  stm32f10x_tim.o(.text)
    TIM_OC2Init                              0x080039c7   Thumb Code   154  stm32f10x_tim.o(.text)
    TIM_OC3Init                              0x08003a61   Thumb Code   150  stm32f10x_tim.o(.text)
    TIM_OC4Init                              0x08003af7   Thumb Code   182  stm32f10x_tim.o(.text)
    TIM_SetIC4Prescaler                      0x08003bad   Thumb Code    26  stm32f10x_tim.o(.text)
    TIM_SetIC3Prescaler                      0x08003c49   Thumb Code    18  stm32f10x_tim.o(.text)
    TIM_SetIC2Prescaler                      0x08003cd5   Thumb Code    26  stm32f10x_tim.o(.text)
    TIM_SetIC1Prescaler                      0x08003d71   Thumb Code    18  stm32f10x_tim.o(.text)
    TIM_ICInit                               0x08003def   Thumb Code   150  stm32f10x_tim.o(.text)
    TIM_PWMIConfig                           0x08003e85   Thumb Code   124  stm32f10x_tim.o(.text)
    TIM_BDTRConfig                           0x08003f01   Thumb Code    32  stm32f10x_tim.o(.text)
    TIM_TimeBaseStructInit                   0x08003f21   Thumb Code    18  stm32f10x_tim.o(.text)
    TIM_OCStructInit                         0x08003f33   Thumb Code    20  stm32f10x_tim.o(.text)
    TIM_ICStructInit                         0x08003f47   Thumb Code    18  stm32f10x_tim.o(.text)
    TIM_BDTRStructInit                       0x08003f59   Thumb Code    40  stm32f10x_tim.o(.text)
    TIM_Cmd                                  0x08003f81   Thumb Code    24  stm32f10x_tim.o(.text)
    TIM_CtrlPWMOutputs                       0x08003f99   Thumb Code    30  stm32f10x_tim.o(.text)
    TIM_ITConfig                             0x08003fb7   Thumb Code    18  stm32f10x_tim.o(.text)
    TIM_GenerateEvent                        0x08003fc9   Thumb Code     4  stm32f10x_tim.o(.text)
    TIM_DMAConfig                            0x08003fcd   Thumb Code    10  stm32f10x_tim.o(.text)
    TIM_DMACmd                               0x08003fd7   Thumb Code    18  stm32f10x_tim.o(.text)
    TIM_InternalClockConfig                  0x08003fe9   Thumb Code    12  stm32f10x_tim.o(.text)
    TIM_SelectInputTrigger                   0x08003ff5   Thumb Code    18  stm32f10x_tim.o(.text)
    TIM_ITRxExternalClockConfig              0x08004007   Thumb Code    24  stm32f10x_tim.o(.text)
    TIM_TIxExternalClockConfig               0x0800401f   Thumb Code    62  stm32f10x_tim.o(.text)
    TIM_ETRConfig                            0x0800405d   Thumb Code    28  stm32f10x_tim.o(.text)
    TIM_ETRClockMode1Config                  0x08004079   Thumb Code    54  stm32f10x_tim.o(.text)
    TIM_ETRClockMode2Config                  0x080040af   Thumb Code    32  stm32f10x_tim.o(.text)
    TIM_PrescalerConfig                      0x080040cf   Thumb Code     6  stm32f10x_tim.o(.text)
    TIM_CounterModeConfig                    0x080040d5   Thumb Code    18  stm32f10x_tim.o(.text)
    TIM_EncoderInterfaceConfig               0x080040e7   Thumb Code    66  stm32f10x_tim.o(.text)
    TIM_ForcedOC1Config                      0x08004129   Thumb Code    18  stm32f10x_tim.o(.text)
    TIM_ForcedOC2Config                      0x0800413b   Thumb Code    26  stm32f10x_tim.o(.text)
    TIM_ForcedOC3Config                      0x08004155   Thumb Code    18  stm32f10x_tim.o(.text)
    TIM_ForcedOC4Config                      0x08004167   Thumb Code    26  stm32f10x_tim.o(.text)
    TIM_ARRPreloadConfig                     0x08004181   Thumb Code    24  stm32f10x_tim.o(.text)
    TIM_SelectCOM                            0x08004199   Thumb Code    24  stm32f10x_tim.o(.text)
    TIM_SelectCCDMA                          0x080041b1   Thumb Code    24  stm32f10x_tim.o(.text)
    TIM_CCPreloadControl                     0x080041c9   Thumb Code    24  stm32f10x_tim.o(.text)
    TIM_OC1PreloadConfig                     0x080041e1   Thumb Code    18  stm32f10x_tim.o(.text)
    TIM_OC2PreloadConfig                     0x080041f3   Thumb Code    26  stm32f10x_tim.o(.text)
    TIM_OC3PreloadConfig                     0x0800420d   Thumb Code    18  stm32f10x_tim.o(.text)
    TIM_OC4PreloadConfig                     0x0800421f   Thumb Code    26  stm32f10x_tim.o(.text)
    TIM_OC1FastConfig                        0x08004239   Thumb Code    18  stm32f10x_tim.o(.text)
    TIM_OC2FastConfig                        0x0800424b   Thumb Code    26  stm32f10x_tim.o(.text)
    TIM_OC3FastConfig                        0x08004265   Thumb Code    18  stm32f10x_tim.o(.text)
    TIM_OC4FastConfig                        0x08004277   Thumb Code    26  stm32f10x_tim.o(.text)
    TIM_ClearOC1Ref                          0x08004291   Thumb Code    18  stm32f10x_tim.o(.text)
    TIM_ClearOC2Ref                          0x080042a3   Thumb Code    24  stm32f10x_tim.o(.text)
    TIM_ClearOC3Ref                          0x080042bb   Thumb Code    18  stm32f10x_tim.o(.text)
    TIM_ClearOC4Ref                          0x080042cd   Thumb Code    24  stm32f10x_tim.o(.text)
    TIM_OC1PolarityConfig                    0x080042e5   Thumb Code    18  stm32f10x_tim.o(.text)
    TIM_OC1NPolarityConfig                   0x080042f7   Thumb Code    18  stm32f10x_tim.o(.text)
    TIM_OC2PolarityConfig                    0x08004309   Thumb Code    26  stm32f10x_tim.o(.text)
    TIM_OC2NPolarityConfig                   0x08004323   Thumb Code    26  stm32f10x_tim.o(.text)
    TIM_OC3PolarityConfig                    0x0800433d   Thumb Code    26  stm32f10x_tim.o(.text)
    TIM_OC3NPolarityConfig                   0x08004357   Thumb Code    26  stm32f10x_tim.o(.text)
    TIM_OC4PolarityConfig                    0x08004371   Thumb Code    26  stm32f10x_tim.o(.text)
    TIM_CCxCmd                               0x0800438b   Thumb Code    30  stm32f10x_tim.o(.text)
    TIM_CCxNCmd                              0x080043a9   Thumb Code    30  stm32f10x_tim.o(.text)
    TIM_SelectOCxM                           0x080043c7   Thumb Code    82  stm32f10x_tim.o(.text)
    TIM_UpdateDisableConfig                  0x08004419   Thumb Code    24  stm32f10x_tim.o(.text)
    TIM_UpdateRequestConfig                  0x08004431   Thumb Code    24  stm32f10x_tim.o(.text)
    TIM_SelectHallSensor                     0x08004449   Thumb Code    24  stm32f10x_tim.o(.text)
    TIM_SelectOnePulseMode                   0x08004461   Thumb Code    18  stm32f10x_tim.o(.text)
    TIM_SelectOutputTrigger                  0x08004473   Thumb Code    18  stm32f10x_tim.o(.text)
    TIM_SelectSlaveMode                      0x08004485   Thumb Code    18  stm32f10x_tim.o(.text)
    TIM_SelectMasterSlaveMode                0x08004497   Thumb Code    18  stm32f10x_tim.o(.text)
    TIM_SetCounter                           0x080044a9   Thumb Code     4  stm32f10x_tim.o(.text)
    TIM_SetAutoreload                        0x080044ad   Thumb Code     4  stm32f10x_tim.o(.text)
    TIM_SetCompare1                          0x080044b1   Thumb Code     4  stm32f10x_tim.o(.text)
    TIM_SetCompare2                          0x080044b5   Thumb Code     4  stm32f10x_tim.o(.text)
    TIM_SetCompare3                          0x080044b9   Thumb Code     4  stm32f10x_tim.o(.text)
    TIM_SetCompare4                          0x080044bd   Thumb Code     6  stm32f10x_tim.o(.text)
    TIM_SetClockDivision                     0x080044c3   Thumb Code    18  stm32f10x_tim.o(.text)
    TIM_GetCapture1                          0x080044d5   Thumb Code     6  stm32f10x_tim.o(.text)
    TIM_GetCapture2                          0x080044db   Thumb Code     6  stm32f10x_tim.o(.text)
    TIM_GetCapture3                          0x080044e1   Thumb Code     6  stm32f10x_tim.o(.text)
    TIM_GetCapture4                          0x080044e7   Thumb Code     8  stm32f10x_tim.o(.text)
    TIM_GetCounter                           0x080044ef   Thumb Code     6  stm32f10x_tim.o(.text)
    TIM_GetPrescaler                         0x080044f5   Thumb Code     6  stm32f10x_tim.o(.text)
    TIM_GetFlagStatus                        0x080044fb   Thumb Code    18  stm32f10x_tim.o(.text)
    TIM_ClearFlag                            0x0800450d   Thumb Code     6  stm32f10x_tim.o(.text)
    TIM_GetITStatus                          0x08004513   Thumb Code    34  stm32f10x_tim.o(.text)
    TIM_ClearITPendingBit                    0x08004535   Thumb Code     6  stm32f10x_tim.o(.text)
    DELAY_MS_I2C2                            0x0800453d   Thumb Code    30  ano_tc_stm32f1_i2c.o(.text)
    ANO_TC_I2C2_RESET                        0x0800455b   Thumb Code   284  ano_tc_stm32f1_i2c.o(.text)
    ANO_TC_I2C2_INIT                         0x08004677   Thumb Code   204  ano_tc_stm32f1_i2c.o(.text)
    I2C2_PullDownSCL                         0x08004743   Thumb Code    28  ano_tc_stm32f1_i2c.o(.text)
    I2C2_ReleaseSCL                          0x0800475f   Thumb Code    18  ano_tc_stm32f1_i2c.o(.text)
    ANO_TC_I2C2_Read_Int                     0x08004771   Thumb Code   126  ano_tc_stm32f1_i2c.o(.text)
    ANO_TC_I2C2_Read_Buf                     0x080047ef   Thumb Code   136  ano_tc_stm32f1_i2c.o(.text)
    ANO_TC_I2C2_Write_Int                    0x08004877   Thumb Code   122  ano_tc_stm32f1_i2c.o(.text)
    ANO_TC_I2C2_Write_Buf                    0x080048f1   Thumb Code   176  ano_tc_stm32f1_i2c.o(.text)
    ANO_TC_I2C2_EV_IRQ                       0x080049a1   Thumb Code   942  ano_tc_stm32f1_i2c.o(.text)
    ANO_TC_I2C2_ER_IRQ                       0x08004d4f   Thumb Code    32  ano_tc_stm32f1_i2c.o(.text)
    malloc                                   0x08004da1   Thumb Code    94  h1_alloc.o(.text)
    free                                     0x08004dff   Thumb Code    78  h1_free.o(.text)
    __aeabi_memclr4                          0x08004e4d   Thumb Code     0  rt_memclr_w.o(.text)
    __aeabi_memclr8                          0x08004e4d   Thumb Code     0  rt_memclr_w.o(.text)
    __rt_memclr_w                            0x08004e4d   Thumb Code    78  rt_memclr_w.o(.text)
    _memset_w                                0x08004e51   Thumb Code     0  rt_memclr_w.o(.text)
    __use_two_region_memory                  0x08004e9b   Thumb Code     2  heapauxi.o(.text)
    __rt_heap_escrow                         0x08004e9d   Thumb Code     2  heapauxi.o(.text)
    __rt_heap_expand                         0x08004e9f   Thumb Code     2  heapauxi.o(.text)
    __rt_heap_descriptor                     0x08004ea1   Thumb Code     8  rt_heap_descriptor_intlibspace.o(.text)
    __use_no_heap                            0x08004ea9   Thumb Code     2  hguard.o(.text)
    __heap$guard                             0x08004eab   Thumb Code     2  hguard.o(.text)
    _terminate_user_alloc                    0x08004ead   Thumb Code     2  init_alloc.o(.text)
    _init_user_alloc                         0x08004eaf   Thumb Code     2  init_alloc.o(.text)
    __Heap_Full                              0x08004eb1   Thumb Code    34  init_alloc.o(.text)
    __Heap_Broken                            0x08004ed3   Thumb Code     6  init_alloc.o(.text)
    _init_alloc                              0x08004ed9   Thumb Code    94  init_alloc.o(.text)
    __Heap_Initialize                        0x08004f37   Thumb Code    10  h1_init.o(.text)
    __Heap_DescSize                          0x08004f41   Thumb Code     4  h1_init.o(.text)
    __read_errno                             0x08004f45   Thumb Code    10  _rserrno.o(.text)
    __set_errno                              0x08004f4f   Thumb Code    12  _rserrno.o(.text)
    __user_libspace                          0x08004f5d   Thumb Code     8  libspace.o(.text)
    __user_perproc_libspace                  0x08004f5d   Thumb Code     0  libspace.o(.text)
    __user_perthread_libspace                0x08004f5d   Thumb Code     0  libspace.o(.text)
    __aeabi_errno_addr                       0x08004f65   Thumb Code     8  rt_errno_addr_intlibspace.o(.text)
    __errno$intlibspace                      0x08004f65   Thumb Code     0  rt_errno_addr_intlibspace.o(.text)
    __rt_errno_addr$intlibspace              0x08004f65   Thumb Code     0  rt_errno_addr_intlibspace.o(.text)
    __Heap_ProvideMemory                     0x08004f6d   Thumb Code    52  h1_extend.o(.text)
    __rt_SIGRTMEM                            0x08004fa1   Thumb Code    14  defsig_rtmem_outer.o(.text)
    __I$use$semihosting                      0x08004faf   Thumb Code     0  use_no_semi.o(.text)
    __use_no_semihosting_swi                 0x08004faf   Thumb Code     2  use_no_semi.o(.text)
    __semihosting_library_function           0x08004fb1   Thumb Code     0  indicate_semi.o(.text)
    __user_setup_stackheap                   0x08004fb1   Thumb Code    74  sys_stackheap_outer.o(.text)
    exit                                     0x08004ffb   Thumb Code    18  exit.o(.text)
    __sig_exit                               0x0800500d   Thumb Code    10  defsig_exit.o(.text)
    __rt_SIGRTMEM_inner                      0x08005019   Thumb Code    22  defsig_rtmem_inner.o(.text)
    _sys_exit                                0x08005069   Thumb Code     8  sys_exit.o(.text)
    __default_signal_display                 0x08005075   Thumb Code    50  defsig_general.o(.text)
    _ttywrch                                 0x080050a7   Thumb Code    14  sys_wrch.o(.text)
    __ARM_fpclassify                         0x080050b5   Thumb Code    40  fpclassify.o(i.__ARM_fpclassify)
    __ieee754_rem_pio2                       0x080050dd   Thumb Code   828  rred.o(i.__ieee754_rem_pio2)
    __kernel_cos                             0x08005465   Thumb Code   230  cos_i.o(i.__kernel_cos)
    __kernel_poly                            0x08005561   Thumb Code   170  poly.o(i.__kernel_poly)
    __kernel_sin                             0x0800560d   Thumb Code   224  sin_i.o(i.__kernel_sin)
    __kernel_tan                             0x080056f9   Thumb Code   586  tan_i.o(i.__kernel_tan)
    __mathlib_dbl_divzero                    0x08005975   Thumb Code    12  dunder.o(i.__mathlib_dbl_divzero)
    __mathlib_dbl_infnan                     0x08005985   Thumb Code     6  dunder.o(i.__mathlib_dbl_infnan)
    __mathlib_dbl_infnan2                    0x0800598b   Thumb Code     4  dunder.o(i.__mathlib_dbl_infnan2)
    __mathlib_dbl_invalid                    0x0800598f   Thumb Code    12  dunder.o(i.__mathlib_dbl_invalid)
    __mathlib_dbl_overflow                   0x0800599b   Thumb Code    14  dunder.o(i.__mathlib_dbl_overflow)
    __mathlib_dbl_underflow                  0x080059a9   Thumb Code    10  dunder.o(i.__mathlib_dbl_underflow)
    ceil                                     0x080059b9   Thumb Code   204  ceil.o(i.ceil)
    cos                                      0x08005a95   Thumb Code   148  cos.o(i.cos)
    log                                      0x08005b31   Thumb Code   808  log.o(i.log)
    log10                                    0x08005e8d   Thumb Code   198  log10.o(i.log10)
    pow                                      0x08005f71   Thumb Code  2512  pow.o(i.pow)
    sin                                      0x08006949   Thumb Code   150  sin.o(i.sin)
    sqrt                                     0x080069e9   Thumb Code    76  sqrt.o(i.sqrt)
    tan                                      0x08006a35   Thumb Code    90  tan.o(i.tan)
    __aeabi_d2f                              0x08006a99   Thumb Code     0  d2f.o(x$fpl$d2f)
    _d2f                                     0x08006a99   Thumb Code    98  d2f.o(x$fpl$d2f)
    __aeabi_dadd                             0x08006afd   Thumb Code     0  daddsub_clz.o(x$fpl$dadd)
    _dadd                                    0x08006afd   Thumb Code   332  daddsub_clz.o(x$fpl$dadd)
    __fpl_dcheck_NaN1                        0x08006c4d   Thumb Code    10  dcheck1.o(x$fpl$dcheck1)
    __fpl_dcmp_Inf                           0x08006c5d   Thumb Code    24  dcmpi.o(x$fpl$dcmpinf)
    __aeabi_ddiv                             0x08006c75   Thumb Code     0  ddiv.o(x$fpl$ddiv)
    _ddiv                                    0x08006c75   Thumb Code   552  ddiv.o(x$fpl$ddiv)
    __aeabi_cdcmpeq                          0x08006f25   Thumb Code     0  deqf.o(x$fpl$deqf)
    _dcmpeq                                  0x08006f25   Thumb Code   120  deqf.o(x$fpl$deqf)
    __aeabi_d2iz                             0x08006f9d   Thumb Code     0  dfix.o(x$fpl$dfix)
    _dfix                                    0x08006f9d   Thumb Code    94  dfix.o(x$fpl$dfix)
    __aeabi_d2uiz                            0x08006ffd   Thumb Code     0  dfixu.o(x$fpl$dfixu)
    _dfixu                                   0x08006ffd   Thumb Code    90  dfixu.o(x$fpl$dfixu)
    __aeabi_i2d                              0x08007057   Thumb Code     0  dflt_clz.o(x$fpl$dflt)
    _dflt                                    0x08007057   Thumb Code    46  dflt_clz.o(x$fpl$dflt)
    __aeabi_ui2d                             0x08007085   Thumb Code     0  dflt_clz.o(x$fpl$dfltu)
    _dfltu                                   0x08007085   Thumb Code    38  dflt_clz.o(x$fpl$dfltu)
    __aeabi_cdcmple                          0x080070ad   Thumb Code     0  dleqf.o(x$fpl$dleqf)
    _dcmple                                  0x080070ad   Thumb Code   120  dleqf.o(x$fpl$dleqf)
    __fpl_dcmple_InfNaN                      0x0800710f   Thumb Code     0  dleqf.o(x$fpl$dleqf)
    __aeabi_dmul                             0x08007125   Thumb Code     0  dmul.o(x$fpl$dmul)
    _dmul                                    0x08007125   Thumb Code   332  dmul.o(x$fpl$dmul)
    __fpl_dnaninf                            0x08007279   Thumb Code   156  dnaninf.o(x$fpl$dnaninf)
    __fpl_dretinf                            0x08007315   Thumb Code    12  dretinf.o(x$fpl$dretinf)
    __aeabi_cdrcmple                         0x08007321   Thumb Code     0  drleqf.o(x$fpl$drleqf)
    _drcmple                                 0x08007321   Thumb Code   108  drleqf.o(x$fpl$drleqf)
    __aeabi_drsub                            0x0800738d   Thumb Code     0  daddsub_clz.o(x$fpl$drsb)
    _drsb                                    0x0800738d   Thumb Code    22  daddsub_clz.o(x$fpl$drsb)
    _dsqrt                                   0x080073a5   Thumb Code   456  dsqrt_noumaal.o(x$fpl$dsqrt)
    __aeabi_dsub                             0x08007571   Thumb Code     0  daddsub_clz.o(x$fpl$dsub)
    _dsub                                    0x08007571   Thumb Code   464  daddsub_clz.o(x$fpl$dsub)
    __aeabi_f2d                              0x08007745   Thumb Code     0  f2d.o(x$fpl$f2d)
    _f2d                                     0x08007745   Thumb Code    86  f2d.o(x$fpl$f2d)
    __aeabi_fadd                             0x0800779d   Thumb Code     0  faddsub_clz.o(x$fpl$fadd)
    _fadd                                    0x0800779d   Thumb Code   196  faddsub_clz.o(x$fpl$fadd)
    __fpl_fcmp_Inf                           0x08007861   Thumb Code    24  fcmpi.o(x$fpl$fcmpinf)
    __aeabi_fdiv                             0x08007879   Thumb Code     0  fdiv.o(x$fpl$fdiv)
    _fdiv                                    0x08007879   Thumb Code   384  fdiv.o(x$fpl$fdiv)
    __aeabi_f2iz                             0x080079fd   Thumb Code     0  ffix.o(x$fpl$ffix)
    _ffix                                    0x080079fd   Thumb Code    54  ffix.o(x$fpl$ffix)
    __aeabi_f2uiz                            0x08007a35   Thumb Code     0  ffixu.o(x$fpl$ffixu)
    _ffixu                                   0x08007a35   Thumb Code    62  ffixu.o(x$fpl$ffixu)
    __aeabi_i2f                              0x08007a75   Thumb Code     0  fflt_clz.o(x$fpl$fflt)
    _fflt                                    0x08007a75   Thumb Code    48  fflt_clz.o(x$fpl$fflt)
    __aeabi_ui2f                             0x08007aa5   Thumb Code     0  fflt_clz.o(x$fpl$ffltu)
    _ffltu                                   0x08007aa5   Thumb Code    38  fflt_clz.o(x$fpl$ffltu)
    __aeabi_cfcmple                          0x08007acd   Thumb Code     0  fleqf.o(x$fpl$fleqf)
    _fcmple                                  0x08007acd   Thumb Code   104  fleqf.o(x$fpl$fleqf)
    __fpl_fcmple_InfNaN                      0x08007b1f   Thumb Code     0  fleqf.o(x$fpl$fleqf)
    __aeabi_fmul                             0x08007b35   Thumb Code     0  fmul.o(x$fpl$fmul)
    _fmul                                    0x08007b35   Thumb Code   258  fmul.o(x$fpl$fmul)
    __fpl_fnaninf                            0x08007c37   Thumb Code   140  fnaninf.o(x$fpl$fnaninf)
    __fpl_fretinf                            0x08007cc3   Thumb Code    10  fretinf.o(x$fpl$fretinf)
    __aeabi_cfrcmple                         0x08007ccd   Thumb Code     0  frleqf.o(x$fpl$frleqf)
    _frcmple                                 0x08007ccd   Thumb Code    98  frleqf.o(x$fpl$frleqf)
    __aeabi_fsub                             0x08007d31   Thumb Code     0  faddsub_clz.o(x$fpl$fsub)
    _fsub                                    0x08007d31   Thumb Code   234  faddsub_clz.o(x$fpl$fsub)
    __fpl_return_NaN                         0x08007e1b   Thumb Code   100  retnan.o(x$fpl$retnan)
    __ARM_scalbn                             0x08007e7f   Thumb Code    92  scalbn.o(x$fpl$scalbn)
    __fpl_cmpreturn                          0x08007edb   Thumb Code    48  trapv.o(x$fpl$trapveneer)
    __I$use$fp                               0x08007f0a   Number         0  usenofp.o(x$fpl$usenofp)
    sin_data                                 0x08007f0c   Data        3604  usermath.o(.constdata)
    __mathlib_zero                           0x08008e10   Data           8  qnan.o(.constdata)
    Region$$Table$$Base                      0x08008f68   Number         0  anon$$obj.o(Region$$Table)
    Region$$Table$$Limit                     0x08008f88   Number         0  anon$$obj.o(Region$$Table)
    sss                                      0x20000000   Data           4  main.o(.data)
    iirsss                                   0x20000004   Data           4  main.o(.data)
    oldsss                                   0x20000008   Data           4  main.o(.data)
    loop_idx10ms                             0x2000000c   Data           1  main.o(.data)
    loop_idx20ms                             0x2000000d   Data           1  main.o(.data)
    loop_idx100ms                            0x2000000e   Data           1  main.o(.data)
    loop_idx200ms                            0x2000000f   Data           1  main.o(.data)
    SystemCoreClock                          0x20000014   Data           4  system_stm32f10x.o(.data)
    AHBPrescTable                            0x20000018   Data          16  system_stm32f10x.o(.data)
    ImuKp                                    0x20000028   Data           4  imu.o(.data)
    imupitch                                 0x2000002c   Data           4  imu.o(.data)
    imuroll                                  0x20000030   Data           4  imu.o(.data)
    imuyaw                                   0x20000034   Data           4  imu.o(.data)
    q0                                       0x20000038   Data           4  imu.o(.data)
    q1                                       0x2000003c   Data           4  imu.o(.data)
    q2                                       0x20000040   Data           4  imu.o(.data)
    q3                                       0x20000044   Data           4  imu.o(.data)
    exInt                                    0x20000048   Data           4  imu.o(.data)
    eyInt                                    0x2000004c   Data           4  imu.o(.data)
    ezInt                                    0x20000050   Data           4  imu.o(.data)
    glo_50ms                                 0x20000054   Data           4  timer.o(.data)
    TIM1CH1_CAPTURE_STA                      0x20000058   Data           1  motor.o(.data)
    TIM1CH1_CAPTURE_UPVAL                    0x2000005a   Data           2  motor.o(.data)
    LAST_TIM1CH1_CAPTURE_UPVAL               0x2000005c   Data           2  motor.o(.data)
    TIM1CH1_CAPTURE_DOWNVAL                  0x2000005e   Data           2  motor.o(.data)
    cappwmperiod                             0x20000060   Data           4  motor.o(.data)
    tempup1                                  0x20000064   Data           4  motor.o(.data)
    CaptureUpdate                            0x20000068   Data           1  motor.o(.data)
    StartPlus                                0x2000006c   Data           4  motor.o(.data)
    StopPlus                                 0x20000070   Data           4  motor.o(.data)
    MotorSpeed                               0x20000074   Data           2  motor.o(.data)
    PositionZeroMagnet                       0x20000076   Data           2  motor.o(.data)
    PositionZeroMotor                        0x20000078   Data           2  motor.o(.data)
    reasmotorangle                           0x2000007c   Data           4  motor.o(.data)
    MotorEnable                              0x20000080   Data           1  motor.o(.data)
    MotorPower                               0x20000082   Data           2  motor.o(.data)
    MotorPitch_cnt                           0x20000084   Data           1  motor.o(.data)
    USART1_TX_Finish                         0x2000008a   Data           1  usart.o(.data)
    USART3_TX_Finish                         0x2000008b   Data           1  usart.o(.data)
    needcalibration                          0x2000008c   Data           1  usart.o(.data)
    TargetAngle                              0x2000008e   Data           2  usart.o(.data)
    STOP_DELAY_TIME                          0x200000a4   Data           4  ano_tc_stm32f1_i2c.o(.data)
    Dev_Addr                                 0x200000a8   Data           1  ano_tc_stm32f1_i2c.o(.data)
    Reg_Addr                                 0x200000a9   Data           1  ano_tc_stm32f1_i2c.o(.data)
    WR_Num                                   0x200000aa   Data           1  ano_tc_stm32f1_i2c.o(.data)
    WR_Num_Cnt                               0x200000ab   Data           1  ano_tc_stm32f1_i2c.o(.data)
    WR_Temp                                  0x200000ac   Data           4  ano_tc_stm32f1_i2c.o(.data)
    W_R                                      0x200000b0   Data           1  ano_tc_stm32f1_i2c.o(.data)
    Send_WRReg_OK                            0x200000b1   Data           1  ano_tc_stm32f1_i2c.o(.data)
    Send_WRReg_OK2                           0x200000b2   Data           1  ano_tc_stm32f1_i2c.o(.data)
    I2C_BUSY                                 0x200000b3   Data           1  ano_tc_stm32f1_i2c.o(.data)
    IIC_ERROR_CNT                            0x200000b4   Data           1  ano_tc_stm32f1_i2c.o(.data)
    mpu6050_buffer                           0x200000b8   Data          14  mpu6050.o(.bss)
    BaseMpu                                  0x200000c6   Data          14  mpu6050.o(.bss)
    AveMpu                                   0x200000d4   Data          28  mpu6050.o(.bss)
    OffsetMpu                                0x200000f0   Data          28  mpu6050.o(.bss)
    MPU_ACCX                                 0x2000010c   Data          60  mpu6050.o(.bss)
    MPU_ACCY                                 0x20000148   Data          60  mpu6050.o(.bss)
    MPU_ACCZ                                 0x20000184   Data          60  mpu6050.o(.bss)
    MPU_GYROX                                0x200001c0   Data          60  mpu6050.o(.bss)
    MPU_GYROY                                0x200001fc   Data          60  mpu6050.o(.bss)
    MPU_GYROZ                                0x20000238   Data          60  mpu6050.o(.bss)
    USART1_TX_DATA                           0x20000274   Data         512  usart.o(.bss)
    USART1_RX_DATA                           0x20000474   Data         512  usart.o(.bss)
    USART3_TX_DATA                           0x20000674   Data         512  usart.o(.bss)
    USART3_RX_DATA                           0x20000874   Data         512  usart.o(.bss)
    __libspace_start                         0x20000a74   Data          96  libspace.o(.bss)
    __temporary_stack_top$libspace           0x20000ad4   Data           0  libspace.o(.bss)



==============================================================================

Memory Map of the image

  Image Entry point : 0x08000131

  Load Region LR_IROM1 (Base: 0x08000000, Size: 0x00009040, Max: 0x00010000, ABSOLUTE)

    Execution Region ER_IROM1 (Base: 0x08000000, Size: 0x00008f88, Max: 0x00010000, ABSOLUTE)

    Base Addr    Size         Type   Attr      Idx    E Section Name        Object

    0x08000000   0x00000130   Data   RO          466    RESET               startup_stm32f10x_hd.o
    0x08000130   0x00000008   Code   RO          882  * !!!main             c_w.l(__main.o)
    0x08000138   0x00000034   Code   RO         1314    !!!scatter          c_w.l(__scatter.o)
    0x0800016c   0x0000001a   Code   RO         1316    !!handler_copy      c_w.l(__scatter_copy.o)
    0x08000186   0x00000002   PAD
    0x08000188   0x0000001c   Code   RO         1318    !!handler_zi        c_w.l(__scatter_zi.o)
    0x080001a4   0x00000002   Code   RO         1249    .ARM.Collect$$libinit$$00000000  c_w.l(libinit.o)
    0x080001a6   0x00000000   Code   RO         1055    .ARM.Collect$$libinit$$00000002  c_w.l(libinit2.o)
    0x080001a6   0x00000000   Code   RO         1057    .ARM.Collect$$libinit$$00000004  c_w.l(libinit2.o)
    0x080001a6   0x00000008   Code   RO         1058    .ARM.Collect$$libinit$$00000005  c_w.l(libinit2.o)
    0x080001ae   0x00000000   Code   RO         1060    .ARM.Collect$$libinit$$0000000A  c_w.l(libinit2.o)
    0x080001ae   0x00000000   Code   RO         1062    .ARM.Collect$$libinit$$0000000C  c_w.l(libinit2.o)
    0x080001ae   0x00000000   Code   RO         1064    .ARM.Collect$$libinit$$0000000E  c_w.l(libinit2.o)
    0x080001ae   0x00000000   Code   RO         1067    .ARM.Collect$$libinit$$00000011  c_w.l(libinit2.o)
    0x080001ae   0x00000000   Code   RO         1069    .ARM.Collect$$libinit$$00000013  c_w.l(libinit2.o)
    0x080001ae   0x00000000   Code   RO         1071    .ARM.Collect$$libinit$$00000015  c_w.l(libinit2.o)
    0x080001ae   0x00000000   Code   RO         1073    .ARM.Collect$$libinit$$00000017  c_w.l(libinit2.o)
    0x080001ae   0x00000000   Code   RO         1075    .ARM.Collect$$libinit$$00000019  c_w.l(libinit2.o)
    0x080001ae   0x00000000   Code   RO         1077    .ARM.Collect$$libinit$$0000001B  c_w.l(libinit2.o)
    0x080001ae   0x00000000   Code   RO         1079    .ARM.Collect$$libinit$$0000001D  c_w.l(libinit2.o)
    0x080001ae   0x00000000   Code   RO         1081    .ARM.Collect$$libinit$$0000001F  c_w.l(libinit2.o)
    0x080001ae   0x00000000   Code   RO         1083    .ARM.Collect$$libinit$$00000021  c_w.l(libinit2.o)
    0x080001ae   0x00000000   Code   RO         1085    .ARM.Collect$$libinit$$00000023  c_w.l(libinit2.o)
    0x080001ae   0x00000000   Code   RO         1087    .ARM.Collect$$libinit$$00000025  c_w.l(libinit2.o)
    0x080001ae   0x00000000   Code   RO         1091    .ARM.Collect$$libinit$$0000002C  c_w.l(libinit2.o)
    0x080001ae   0x00000000   Code   RO         1093    .ARM.Collect$$libinit$$0000002E  c_w.l(libinit2.o)
    0x080001ae   0x00000000   Code   RO         1095    .ARM.Collect$$libinit$$00000030  c_w.l(libinit2.o)
    0x080001ae   0x00000000   Code   RO         1097    .ARM.Collect$$libinit$$00000032  c_w.l(libinit2.o)
    0x080001ae   0x00000002   Code   RO         1098    .ARM.Collect$$libinit$$00000033  c_w.l(libinit2.o)
    0x080001b0   0x00000002   Code   RO         1311    .ARM.Collect$$libshutdown$$00000000  c_w.l(libshutdown.o)
    0x080001b2   0x00000000   Code   RO         1265    .ARM.Collect$$libshutdown$$00000002  c_w.l(libshutdown2.o)
    0x080001b2   0x00000000   Code   RO         1267    .ARM.Collect$$libshutdown$$00000004  c_w.l(libshutdown2.o)
    0x080001b2   0x00000000   Code   RO         1270    .ARM.Collect$$libshutdown$$00000007  c_w.l(libshutdown2.o)
    0x080001b2   0x00000000   Code   RO         1273    .ARM.Collect$$libshutdown$$0000000A  c_w.l(libshutdown2.o)
    0x080001b2   0x00000000   Code   RO         1275    .ARM.Collect$$libshutdown$$0000000C  c_w.l(libshutdown2.o)
    0x080001b2   0x00000000   Code   RO         1278    .ARM.Collect$$libshutdown$$0000000F  c_w.l(libshutdown2.o)
    0x080001b2   0x00000002   Code   RO         1279    .ARM.Collect$$libshutdown$$00000010  c_w.l(libshutdown2.o)
    0x080001b4   0x00000000   Code   RO         1022    .ARM.Collect$$rtentry$$00000000  c_w.l(__rtentry.o)
    0x080001b4   0x00000000   Code   RO         1183    .ARM.Collect$$rtentry$$00000002  c_w.l(__rtentry2.o)
    0x080001b4   0x00000006   Code   RO         1195    .ARM.Collect$$rtentry$$00000004  c_w.l(__rtentry4.o)
    0x080001ba   0x00000000   Code   RO         1185    .ARM.Collect$$rtentry$$00000009  c_w.l(__rtentry2.o)
    0x080001ba   0x00000004   Code   RO         1186    .ARM.Collect$$rtentry$$0000000A  c_w.l(__rtentry2.o)
    0x080001be   0x00000000   Code   RO         1188    .ARM.Collect$$rtentry$$0000000C  c_w.l(__rtentry2.o)
    0x080001be   0x00000008   Code   RO         1189    .ARM.Collect$$rtentry$$0000000D  c_w.l(__rtentry2.o)
    0x080001c6   0x00000002   Code   RO         1254    .ARM.Collect$$rtexit$$00000000  c_w.l(rtexit.o)
    0x080001c8   0x00000000   Code   RO         1285    .ARM.Collect$$rtexit$$00000002  c_w.l(rtexit2.o)
    0x080001c8   0x00000004   Code   RO         1286    .ARM.Collect$$rtexit$$00000003  c_w.l(rtexit2.o)
    0x080001cc   0x00000006   Code   RO         1287    .ARM.Collect$$rtexit$$00000004  c_w.l(rtexit2.o)
    0x080001d2   0x00000002   PAD
    0x080001d4   0x00000000   Code   RO         1204    .emb_text           c_w.l(maybetermalloc1.o)
    0x080001d4   0x00000748   Code   RO            1    .text               main.o
    0x0800091c   0x0000002a   Code   RO          175    .text               stm32f10x_it.o
    0x08000946   0x00000002   PAD
    0x08000948   0x000001e0   Code   RO          216    .text               system_stm32f10x.o
    0x08000b28   0x00000188   Code   RO          234    .text               usermath.o
    0x08000cb0   0x000002a4   Code   RO          252    .text               uprotocol.o
    0x08000f54   0x00000856   Code   RO          301    .text               iir.o
    0x080017aa   0x00000002   PAD
    0x080017ac   0x00000030   Code   RO          313    .text               led.o
    0x080017dc   0x0000010c   Code   RO          374    .text               timer.o
    0x080018e8   0x000005b4   Code   RO          389    .text               motor.o
    0x08001e9c   0x0000000c   Code   RO          408    .text               sys.o
    0x08001ea8   0x000000d4   Code   RO          420    .text               delay.o
    0x08001f7c   0x00000528   Code   RO          434    .text               usart.o
    0x080024a4   0x00000040   Code   RO          467    .text               startup_stm32f10x_hd.o
    0x080024e4   0x00000408   Code   RO          471    .text               stm32f10x_usart.o
    0x080028ec   0x000000dc   Code   RO          483    .text               misc.o
    0x080029c8   0x0000035c   Code   RO          495    .text               stm32f10x_gpio.o
    0x08002d24   0x000003a4   Code   RO          507    .text               stm32f10x_rcc.o
    0x080030c8   0x00000254   Code   RO          605    .text               stm32f10x_dma.o
    0x0800331c   0x00000404   Code   RO          653    .text               stm32f10x_i2c.o
    0x08003720   0x00000e1a   Code   RO          725    .text               stm32f10x_tim.o
    0x0800453a   0x00000002   PAD
    0x0800453c   0x00000864   Code   RO          749    .text               ANO_TC_STM32F1_I2C.lib(ano_tc_stm32f1_i2c.o)
    0x08004da0   0x0000005e   Code   RO          820    .text               c_w.l(h1_alloc.o)
    0x08004dfe   0x0000004e   Code   RO          822    .text               c_w.l(h1_free.o)
    0x08004e4c   0x0000004e   Code   RO          878    .text               c_w.l(rt_memclr_w.o)
    0x08004e9a   0x00000006   Code   RO          880    .text               c_w.l(heapauxi.o)
    0x08004ea0   0x00000008   Code   RO         1026    .text               c_w.l(rt_heap_descriptor_intlibspace.o)
    0x08004ea8   0x00000004   Code   RO         1028    .text               c_w.l(hguard.o)
    0x08004eac   0x0000008a   Code   RO         1030    .text               c_w.l(init_alloc.o)
    0x08004f36   0x0000000e   Code   RO         1034    .text               c_w.l(h1_init.o)
    0x08004f44   0x00000016   Code   RO         1048    .text               c_w.l(_rserrno.o)
    0x08004f5a   0x00000002   PAD
    0x08004f5c   0x00000008   Code   RO         1179    .text               c_w.l(libspace.o)
    0x08004f64   0x00000008   Code   RO         1200    .text               c_w.l(rt_errno_addr_intlibspace.o)
    0x08004f6c   0x00000034   Code   RO         1206    .text               c_w.l(h1_extend.o)
    0x08004fa0   0x0000000e   Code   RO         1210    .text               c_w.l(defsig_rtmem_outer.o)
    0x08004fae   0x00000002   Code   RO         1225    .text               c_w.l(use_no_semi.o)
    0x08004fb0   0x00000000   Code   RO         1227    .text               c_w.l(indicate_semi.o)
    0x08004fb0   0x0000004a   Code   RO         1228    .text               c_w.l(sys_stackheap_outer.o)
    0x08004ffa   0x00000012   Code   RO         1234    .text               c_w.l(exit.o)
    0x0800500c   0x0000000a   Code   RO         1236    .text               c_w.l(defsig_exit.o)
    0x08005016   0x00000002   PAD
    0x08005018   0x00000050   Code   RO         1238    .text               c_w.l(defsig_rtmem_inner.o)
    0x08005068   0x0000000c   Code   RO         1252    .text               c_w.l(sys_exit.o)
    0x08005074   0x00000032   Code   RO         1262    .text               c_w.l(defsig_general.o)
    0x080050a6   0x0000000e   Code   RO         1282    .text               c_w.l(sys_wrch.o)
    0x080050b4   0x00000028   Code   RO         1145    i.__ARM_fpclassify  m_ws.l(fpclassify.o)
    0x080050dc   0x00000388   Code   RO         1160    i.__ieee754_rem_pio2  m_ws.l(rred.o)
    0x08005464   0x000000fc   Code   RO         1128    i.__kernel_cos      m_ws.l(cos_i.o)
    0x08005560   0x000000aa   Code   RO         1157    i.__kernel_poly     m_ws.l(poly.o)
    0x0800560a   0x00000002   PAD
    0x0800560c   0x000000ec   Code   RO         1165    i.__kernel_sin      m_ws.l(sin_i.o)
    0x080056f8   0x0000027c   Code   RO         1171    i.__kernel_tan      m_ws.l(tan_i.o)
    0x08005974   0x00000010   Code   RO         1131    i.__mathlib_dbl_divzero  m_ws.l(dunder.o)
    0x08005984   0x00000006   Code   RO         1132    i.__mathlib_dbl_infnan  m_ws.l(dunder.o)
    0x0800598a   0x00000004   Code   RO         1133    i.__mathlib_dbl_infnan2  m_ws.l(dunder.o)
    0x0800598e   0x0000000c   Code   RO         1134    i.__mathlib_dbl_invalid  m_ws.l(dunder.o)
    0x0800599a   0x0000000e   Code   RO         1135    i.__mathlib_dbl_overflow  m_ws.l(dunder.o)
    0x080059a8   0x00000010   Code   RO         1137    i.__mathlib_dbl_underflow  m_ws.l(dunder.o)
    0x080059b8   0x000000dc   Code   RO          967    i.ceil              m_ws.l(ceil.o)
    0x08005a94   0x0000009c   Code   RO          971    i.cos               m_ws.l(cos.o)
    0x08005b30   0x0000035c   Code   RO         1148    i.log               m_ws.l(log.o)
    0x08005e8c   0x000000e4   Code   RO          979    i.log10             m_ws.l(log10.o)
    0x08005f70   0x000009d8   Code   RO          987    i.pow               m_ws.l(pow.o)
    0x08006948   0x000000a0   Code   RO          997    i.sin               m_ws.l(sin.o)
    0x080069e8   0x0000004c   Code   RO         1005    i.sqrt              m_ws.l(sqrt.o)
    0x08006a34   0x00000064   Code   RO         1013    i.tan               m_ws.l(tan.o)
    0x08006a98   0x00000062   Code   RO          884    x$fpl$d2f           fz_ws.l(d2f.o)
    0x08006afa   0x00000002   PAD
    0x08006afc   0x00000150   Code   RO          886    x$fpl$dadd          fz_ws.l(daddsub_clz.o)
    0x08006c4c   0x00000010   Code   RO         1219    x$fpl$dcheck1       fz_ws.l(dcheck1.o)
    0x08006c5c   0x00000018   Code   RO         1099    x$fpl$dcmpinf       fz_ws.l(dcmpi.o)
    0x08006c74   0x000002b0   Code   RO          893    x$fpl$ddiv          fz_ws.l(ddiv.o)
    0x08006f24   0x00000078   Code   RO         1221    x$fpl$deqf          fz_ws.l(deqf.o)
    0x08006f9c   0x0000005e   Code   RO          896    x$fpl$dfix          fz_ws.l(dfix.o)
    0x08006ffa   0x00000002   PAD
    0x08006ffc   0x0000005a   Code   RO          900    x$fpl$dfixu         fz_ws.l(dfixu.o)
    0x08007056   0x0000002e   Code   RO          905    x$fpl$dflt          fz_ws.l(dflt_clz.o)
    0x08007084   0x00000026   Code   RO          904    x$fpl$dfltu         fz_ws.l(dflt_clz.o)
    0x080070aa   0x00000002   PAD
    0x080070ac   0x00000078   Code   RO          910    x$fpl$dleqf         fz_ws.l(dleqf.o)
    0x08007124   0x00000154   Code   RO          912    x$fpl$dmul          fz_ws.l(dmul.o)
    0x08007278   0x0000009c   Code   RO         1101    x$fpl$dnaninf       fz_ws.l(dnaninf.o)
    0x08007314   0x0000000c   Code   RO         1103    x$fpl$dretinf       fz_ws.l(dretinf.o)
    0x08007320   0x0000006c   Code   RO         1105    x$fpl$drleqf        fz_ws.l(drleqf.o)
    0x0800738c   0x00000016   Code   RO          887    x$fpl$drsb          fz_ws.l(daddsub_clz.o)
    0x080073a2   0x00000002   PAD
    0x080073a4   0x000001cc   Code   RO         1107    x$fpl$dsqrt         fz_ws.l(dsqrt_noumaal.o)
    0x08007570   0x000001d4   Code   RO          888    x$fpl$dsub          fz_ws.l(daddsub_clz.o)
    0x08007744   0x00000056   Code   RO          914    x$fpl$f2d           fz_ws.l(f2d.o)
    0x0800779a   0x00000002   PAD
    0x0800779c   0x000000c4   Code   RO          916    x$fpl$fadd          fz_ws.l(faddsub_clz.o)
    0x08007860   0x00000018   Code   RO         1109    x$fpl$fcmpinf       fz_ws.l(fcmpi.o)
    0x08007878   0x00000184   Code   RO          923    x$fpl$fdiv          fz_ws.l(fdiv.o)
    0x080079fc   0x00000036   Code   RO          928    x$fpl$ffix          fz_ws.l(ffix.o)
    0x08007a32   0x00000002   PAD
    0x08007a34   0x0000003e   Code   RO          932    x$fpl$ffixu         fz_ws.l(ffixu.o)
    0x08007a72   0x00000002   PAD
    0x08007a74   0x00000030   Code   RO          937    x$fpl$fflt          fz_ws.l(fflt_clz.o)
    0x08007aa4   0x00000026   Code   RO          936    x$fpl$ffltu         fz_ws.l(fflt_clz.o)
    0x08007aca   0x00000002   PAD
    0x08007acc   0x00000068   Code   RO          942    x$fpl$fleqf         fz_ws.l(fleqf.o)
    0x08007b34   0x00000102   Code   RO          944    x$fpl$fmul          fz_ws.l(fmul.o)
    0x08007c36   0x0000008c   Code   RO         1111    x$fpl$fnaninf       fz_ws.l(fnaninf.o)
    0x08007cc2   0x0000000a   Code   RO         1113    x$fpl$fretinf       fz_ws.l(fretinf.o)
    0x08007ccc   0x00000062   Code   RO          946    x$fpl$frleqf        fz_ws.l(frleqf.o)
    0x08007d2e   0x00000002   PAD
    0x08007d30   0x000000ea   Code   RO          918    x$fpl$fsub          fz_ws.l(faddsub_clz.o)
    0x08007e1a   0x00000064   Code   RO         1250    x$fpl$retnan        fz_ws.l(retnan.o)
    0x08007e7e   0x0000005c   Code   RO         1115    x$fpl$scalbn        fz_ws.l(scalbn.o)
    0x08007eda   0x00000030   Code   RO         1280    x$fpl$trapveneer    fz_ws.l(trapv.o)
    0x08007f0a   0x00000000   Code   RO         1117    x$fpl$usenofp       fz_ws.l(usenofp.o)
    0x08007f0a   0x00000002   PAD
    0x08007f0c   0x00000e14   Data   RO          235    .constdata          usermath.o
    0x08008d20   0x00000088   Data   RO          988    .constdata          m_ws.l(pow.o)
    0x08008da8   0x00000030   Data   RO         1129    .constdata          m_ws.l(cos_i.o)
    0x08008dd8   0x00000038   Data   RO         1149    .constdata          m_ws.l(log.o)
    0x08008e10   0x00000008   Data   RO         1159    .constdata          m_ws.l(qnan.o)
    0x08008e18   0x000000c8   Data   RO         1162    .constdata          m_ws.l(rred.o)
    0x08008ee0   0x00000028   Data   RO         1166    .constdata          m_ws.l(sin_i.o)
    0x08008f08   0x00000060   Data   RO         1172    .constdata          m_ws.l(tan_i.o)
    0x08008f68   0x00000020   Data   RO         1312    Region$$Table       anon$$obj.o


    Execution Region RW_IRAM1 (Base: 0x20000000, Size: 0x000010d8, Max: 0x00005000, ABSOLUTE)

    Base Addr    Size         Type   Attr      Idx    E Section Name        Object

    0x20000000   0x00000014   Data   RW            2    .data               main.o
    0x20000014   0x00000014   Data   RW          217    .data               system_stm32f10x.o
    0x20000028   0x0000002c   Data   RW          284    .data               imu.o
    0x20000054   0x00000004   Data   RW          375    .data               timer.o
    0x20000058   0x0000002d   Data   RW          391    .data               motor.o
    0x20000085   0x00000001   PAD
    0x20000086   0x00000004   Data   RW          421    .data               delay.o
    0x2000008a   0x00000006   Data   RW          436    .data               usart.o
    0x20000090   0x00000014   Data   RW          508    .data               stm32f10x_rcc.o
    0x200000a4   0x00000011   Data   RW          750    .data               ANO_TC_STM32F1_I2C.lib(ano_tc_stm32f1_i2c.o)
    0x200000b5   0x00000003   PAD
    0x200000b8   0x000001bc   Zero   RW          344    .bss                mpu6050.o
    0x20000274   0x00000800   Zero   RW          435    .bss                usart.o
    0x20000a74   0x00000060   Zero   RW         1180    .bss                c_w.l(libspace.o)
    0x20000ad4   0x00000004   PAD
    0x20000ad8   0x00000200   Zero   RW          465    HEAP                startup_stm32f10x_hd.o
    0x20000cd8   0x00000400   Zero   RW          464    STACK               startup_stm32f10x_hd.o


==============================================================================

Image component sizes


      Code (inc. data)   RO Data    RW Data    ZI Data      Debug   Object Name

         0          0          0          0          0         32   core_cm3.o
       212         18          0          4          0       1015   delay.o
      2134         18          0          0          0       3141   iir.o
         0          0          0         44          0        474   imu.o
        48          4          0          0          0        475   led.o
      1864        156          0         20          0     273555   main.o
       220         22          0          0          0       1781   misc.o
      1460        146          0         45          0       3569   motor.o
         0          0          0          0        444      11900   mpu6050.o
        64         26        304          0       1536        792   startup_stm32f10x_hd.o
       596          8          0          0          0       4346   stm32f10x_dma.o
       860         38          0          0          0       5713   stm32f10x_gpio.o
      1028         16          0          0          0       9207   stm32f10x_i2c.o
        42          0          0          0          0       1480   stm32f10x_it.o
       932         36          0         20          0       8884   stm32f10x_rcc.o
      3610         88          0          0          0      22824   stm32f10x_tim.o
      1032         22          0          0          0       8440   stm32f10x_usart.o
        12          0          0          0          0        441   sys.o
       480         38          0         20          0       1707   system_stm32f10x.o
       268         14          0          4          0       2103   timer.o
       676         34          0          0          0        974   uprotocol.o
      1320         66          0          6       2048       3972   usart.o
       392         12       3604          0          0       2918   usermath.o

    ----------------------------------------------------------------------
     17256        762       3940        164       4028     369743   Object Totals
         0          0         32          0          0          0   (incl. Generated)
         6          0          0          1          0          0   (incl. Padding)

    ----------------------------------------------------------------------

      Code (inc. data)   RO Data    RW Data    ZI Data      Debug   Library Member Name

      2148         94          0         17          0     227130   ano_tc_stm32f1_i2c.o
         8          0          0          0          0         68   __main.o
         0          0          0          0          0          0   __rtentry.o
        12          0          0          0          0          0   __rtentry2.o
         6          0          0          0          0          0   __rtentry4.o
        52          8          0          0          0          0   __scatter.o
        26          0          0          0          0          0   __scatter_copy.o
        28          0          0          0          0          0   __scatter_zi.o
        22          0          0          0          0        100   _rserrno.o
        10          0          0          0          0         68   defsig_exit.o
        50          0          0          0          0         88   defsig_general.o
        80         58          0          0          0         76   defsig_rtmem_inner.o
        14          0          0          0          0         80   defsig_rtmem_outer.o
        18          0          0          0          0         80   exit.o
        94          0          0          0          0         80   h1_alloc.o
        52          0          0          0          0         68   h1_extend.o
        78          0          0          0          0         80   h1_free.o
        14          0          0          0          0         84   h1_init.o
         6          0          0          0          0        152   heapauxi.o
         4          0          0          0          0        136   hguard.o
         0          0          0          0          0          0   indicate_semi.o
       138          0          0          0          0        168   init_alloc.o
         2          0          0          0          0          0   libinit.o
        10          0          0          0          0          0   libinit2.o
         2          0          0          0          0          0   libshutdown.o
         2          0          0          0          0          0   libshutdown2.o
         8          4          0          0         96         68   libspace.o
         0          0          0          0          0          0   maybetermalloc1.o
         8          4          0          0          0         68   rt_errno_addr_intlibspace.o
         8          4          0          0          0         68   rt_heap_descriptor_intlibspace.o
        78          0          0          0          0         80   rt_memclr_w.o
         2          0          0          0          0          0   rtexit.o
        10          0          0          0          0          0   rtexit2.o
        12          4          0          0          0         68   sys_exit.o
        74          0          0          0          0         80   sys_stackheap_outer.o
        14          0          0          0          0         76   sys_wrch.o
         2          0          0          0          0         68   use_no_semi.o
        98          4          0          0          0         92   d2f.o
       826         16          0          0          0        348   daddsub_clz.o
        16          4          0          0          0         68   dcheck1.o
        24          0          0          0          0         68   dcmpi.o
       688        140          0          0          0        208   ddiv.o
       120          4          0          0          0         92   deqf.o
        94          4          0          0          0         92   dfix.o
        90          4          0          0          0         92   dfixu.o
        84          0          0          0          0        136   dflt_clz.o
       120          4          0          0          0         92   dleqf.o
       340         12          0          0          0        104   dmul.o
       156          4          0          0          0         92   dnaninf.o
        12          0          0          0          0         68   dretinf.o
       108          0          0          0          0         80   drleqf.o
       460         56          0          0          0        120   dsqrt_noumaal.o
        86          4          0          0          0         84   f2d.o
       430          8          0          0          0        168   faddsub_clz.o
        24          0          0          0          0         68   fcmpi.o
       388         76          0          0          0         96   fdiv.o
        54          4          0          0          0         84   ffix.o
        62          4          0          0          0         84   ffixu.o
        86          0          0          0          0        136   fflt_clz.o
       104          4          0          0          0         84   fleqf.o
       258          4          0          0          0         84   fmul.o
       140          4          0          0          0         84   fnaninf.o
        10          0          0          0          0         68   fretinf.o
        98          0          0          0          0         68   frleqf.o
       100          0          0          0          0         68   retnan.o
        92          0          0          0          0         68   scalbn.o
        48          0          0          0          0         68   trapv.o
         0          0          0          0          0          0   usenofp.o
       220         16          0          0          0         84   ceil.o
       156          8          0          0          0        104   cos.o
       252         22         48          0          0        124   cos_i.o
        68         10          0          0          0        408   dunder.o
        40          0          0          0          0         68   fpclassify.o
       860         52         56          0          0        256   log.o
       228         30          0          0          0        120   log10.o
       170          0          0          0          0         96   poly.o
      2520        190        136          0          0        324   pow.o
         0          0          8          0          0          0   qnan.o
       904         76        200          0          0        140   rred.o
       160         10          0          0          0        108   sin.o
       236         12         40          0          0        128   sin_i.o
        76          0          0          0          0         84   sqrt.o
       100         10          0          0          0         96   tan.o
       636         50         96          0          0        168   tan_i.o

    ----------------------------------------------------------------------
     14964       1022        584         20        100     234406   Library Totals
        30          0          0          3          4          0   (incl. Padding)

    ----------------------------------------------------------------------

      Code (inc. data)   RO Data    RW Data    ZI Data      Debug   Library Name

      2148         94          0         17          0     227130   ANO_TC_STM32F1_I2C.lib
       944         82          0          0         96       1904   c_w.l
      5216        360          0          0          0       3064   fz_ws.l
      6626        486        584          0          0       2308   m_ws.l

    ----------------------------------------------------------------------
     14964       1022        584         20        100     234406   Library Totals

    ----------------------------------------------------------------------

==============================================================================


      Code (inc. data)   RO Data    RW Data    ZI Data      Debug   

     32220       1784       4524        184       4128     598477   Grand Totals
     32220       1784       4524        184       4128     598477   ELF Image Totals
     32220       1784       4524        184          0          0   ROM Totals

==============================================================================

    Total RO  Size (Code + RO Data)                36744 (  35.88kB)
    Total RW  Size (RW Data + ZI Data)              4312 (   4.21kB)
    Total ROM Size (Code + RO Data + RW Data)      36928 (  36.06kB)

==============================================================================

